{
  "_format": "hh-sol-artifact-1",
  "contractName": "VendorPlans",
  "sourceName": "contracts/VendorPlans.sol",
  "abi": [
    {
      "inputs": [
        {
          "internalType": "contract IMap3Pay",
          "name": "_map3ContractAddress",
          "type": "address"
        }
      ],
      "stateMutability": "payable",
      "type": "constructor"
    },
    {
      "anonymous": false,
      "inputs": [
        {
          "indexed": true,
          "internalType": "address",
          "name": "previousOwner",
          "type": "address"
        },
        {
          "indexed": true,
          "internalType": "address",
          "name": "newOwner",
          "type": "address"
        }
      ],
      "name": "OwnershipTransferred",
      "type": "event"
    },
    {
      "anonymous": false,
      "inputs": [
        {
          "indexed": false,
          "internalType": "address",
          "name": "subscriber",
          "type": "address"
        },
        {
          "indexed": false,
          "internalType": "string",
          "name": "vendorEmail",
          "type": "string"
        },
        {
          "indexed": false,
          "internalType": "uint256",
          "name": "date",
          "type": "uint256"
        }
      ],
      "name": "SubscriptionDeleted",
      "type": "event"
    },
    {
      "anonymous": false,
      "inputs": [
        {
          "indexed": false,
          "internalType": "address",
          "name": "subscriber",
          "type": "address"
        },
        {
          "indexed": false,
          "internalType": "string",
          "name": "vendorEmail",
          "type": "string"
        },
        {
          "indexed": false,
          "internalType": "uint256",
          "name": "availableTransactionsLeft",
          "type": "uint256"
        },
        {
          "indexed": false,
          "internalType": "uint256",
          "name": "date",
          "type": "uint256"
        }
      ],
      "name": "SubscriptionEvent",
      "type": "event"
    },
    {
      "anonymous": false,
      "inputs": [
        {
          "indexed": false,
          "internalType": "uint256",
          "name": "_planPrice",
          "type": "uint256"
        },
        {
          "indexed": false,
          "internalType": "uint256",
          "name": "_planTransactionLimit",
          "type": "uint256"
        },
        {
          "indexed": false,
          "internalType": "uint256",
          "name": "planId",
          "type": "uint256"
        }
      ],
      "name": "VendorPlanCreated",
      "type": "event"
    },
    {
      "inputs": [
        {
          "internalType": "uint256",
          "name": "",
          "type": "uint256"
        }
      ],
      "name": "VendorPlansMapping",
      "outputs": [
        {
          "internalType": "uint256",
          "name": "_planTransactionLimit",
          "type": "uint256"
        },
        {
          "internalType": "uint256",
          "name": "_planPrice",
          "type": "uint256"
        }
      ],
      "stateMutability": "view",
      "type": "function"
    },
    {
      "inputs": [
        {
          "internalType": "uint256",
          "name": "_price",
          "type": "uint256"
        },
        {
          "internalType": "uint256",
          "name": "_transactionLimit",
          "type": "uint256"
        }
      ],
      "name": "changeFreePlan",
      "outputs": [
        {
          "internalType": "bool",
          "name": "",
          "type": "bool"
        }
      ],
      "stateMutability": "nonpayable",
      "type": "function"
    },
    {
      "inputs": [
        {
          "internalType": "uint256",
          "name": "_price",
          "type": "uint256"
        },
        {
          "internalType": "uint256",
          "name": "_transactionLimit",
          "type": "uint256"
        }
      ],
      "name": "createPlan",
      "outputs": [
        {
          "internalType": "bool",
          "name": "",
          "type": "bool"
        }
      ],
      "stateMutability": "nonpayable",
      "type": "function"
    },
    {
      "inputs": [
        {
          "internalType": "uint256",
          "name": "planId",
          "type": "uint256"
        }
      ],
      "name": "deletePlan",
      "outputs": [
        {
          "internalType": "bool",
          "name": "",
          "type": "bool"
        }
      ],
      "stateMutability": "nonpayable",
      "type": "function"
    },
    {
      "inputs": [],
      "name": "freePlan",
      "outputs": [
        {
          "internalType": "uint256",
          "name": "_planTransactionLimit",
          "type": "uint256"
        },
        {
          "internalType": "uint256",
          "name": "_planPrice",
          "type": "uint256"
        }
      ],
      "stateMutability": "view",
      "type": "function"
    },
    {
      "inputs": [
        {
          "internalType": "address",
          "name": "_vendor",
          "type": "address"
        }
      ],
      "name": "freeTrialSubscribtion",
      "outputs": [
        {
          "internalType": "bool",
          "name": "",
          "type": "bool"
        }
      ],
      "stateMutability": "nonpayable",
      "type": "function"
    },
    {
      "inputs": [
        {
          "internalType": "address",
          "name": "_account",
          "type": "address"
        }
      ],
      "name": "getSubscriptionAvailableTransactionsLeft",
      "outputs": [
        {
          "internalType": "uint256",
          "name": "",
          "type": "uint256"
        }
      ],
      "stateMutability": "view",
      "type": "function"
    },
    {
      "inputs": [
        {
          "internalType": "address",
          "name": "_account",
          "type": "address"
        }
      ],
      "name": "getSubscriptionNextPayment",
      "outputs": [
        {
          "internalType": "uint256",
          "name": "",
          "type": "uint256"
        }
      ],
      "stateMutability": "view",
      "type": "function"
    },
    {
      "inputs": [],
      "name": "nextPlanId",
      "outputs": [
        {
          "internalType": "uint256",
          "name": "",
          "type": "uint256"
        }
      ],
      "stateMutability": "view",
      "type": "function"
    },
    {
      "inputs": [],
      "name": "owner",
      "outputs": [
        {
          "internalType": "address",
          "name": "",
          "type": "address"
        }
      ],
      "stateMutability": "view",
      "type": "function"
    },
    {
      "inputs": [],
      "name": "renounceOwnership",
      "outputs": [],
      "stateMutability": "nonpayable",
      "type": "function"
    },
    {
      "inputs": [
        {
          "internalType": "contract IMap3Pay",
          "name": "_map3Pay",
          "type": "address"
        }
      ],
      "name": "setMap3Contract",
      "outputs": [
        {
          "internalType": "bool",
          "name": "",
          "type": "bool"
        }
      ],
      "stateMutability": "nonpayable",
      "type": "function"
    },
    {
      "inputs": [
        {
          "internalType": "address",
          "name": "_account",
          "type": "address"
        },
        {
          "internalType": "uint256",
          "name": "_newNumber",
          "type": "uint256"
        },
        {
          "internalType": "bool",
          "name": "_calculation",
          "type": "bool"
        }
      ],
      "name": "setSubscriptionAvailableTransactionsLeft",
      "outputs": [
        {
          "internalType": "bool",
          "name": "",
          "type": "bool"
        }
      ],
      "stateMutability": "nonpayable",
      "type": "function"
    },
    {
      "inputs": [
        {
          "internalType": "address",
          "name": "_account",
          "type": "address"
        },
        {
          "internalType": "bool",
          "name": "_calculation",
          "type": "bool"
        }
      ],
      "name": "setSubscriptionNextPayment",
      "outputs": [
        {
          "internalType": "bool",
          "name": "",
          "type": "bool"
        }
      ],
      "stateMutability": "nonpayable",
      "type": "function"
    },
    {
      "inputs": [
        {
          "internalType": "uint256",
          "name": "planId",
          "type": "uint256"
        },
        {
          "internalType": "address",
          "name": "_vendor",
          "type": "address"
        }
      ],
      "name": "subscribeVendor",
      "outputs": [
        {
          "internalType": "bool",
          "name": "",
          "type": "bool"
        }
      ],
      "stateMutability": "payable",
      "type": "function"
    },
    {
      "inputs": [
        {
          "internalType": "address",
          "name": "",
          "type": "address"
        }
      ],
      "name": "subscriptions",
      "outputs": [
        {
          "internalType": "address",
          "name": "subscriber",
          "type": "address"
        },
        {
          "internalType": "uint256",
          "name": "availableTransactionsLeft",
          "type": "uint256"
        },
        {
          "internalType": "uint256",
          "name": "nextPayment",
          "type": "uint256"
        }
      ],
      "stateMutability": "view",
      "type": "function"
    },
    {
      "inputs": [
        {
          "internalType": "address",
          "name": "newOwner",
          "type": "address"
        }
      ],
      "name": "transferOwnership",
      "outputs": [],
      "stateMutability": "nonpayable",
      "type": "function"
    },
    {
      "inputs": [
        {
          "internalType": "address",
          "name": "_vendor",
          "type": "address"
        }
      ],
      "name": "unsubscribeVendor",
      "outputs": [
        {
          "internalType": "bool",
          "name": "",
          "type": "bool"
        }
      ],
      "stateMutability": "nonpayable",
      "type": "function"
    },
    {
      "inputs": [
        {
          "internalType": "address",
          "name": "",
          "type": "address"
        }
      ],
      "name": "vendorFreeTrialUsed",
      "outputs": [
        {
          "internalType": "bool",
          "name": "",
          "type": "bool"
        }
      ],
      "stateMutability": "view",
      "type": "function"
    }
  ],
  "bytecode": "0x608060405260405162002e1738038062002e17833981810160405281019062000029919062000271565b620000496200003d6200007860201b60201c565b6200008060201b60201c565b6003600260000181905550600060026001018190555062000070816200014460201b60201c565b50506200038d565b600033905090565b60008060009054906101000a900473ffffffffffffffffffffffffffffffffffffffff169050816000806101000a81548173ffffffffffffffffffffffffffffffffffffffff021916908373ffffffffffffffffffffffffffffffffffffffff1602179055508173ffffffffffffffffffffffffffffffffffffffff168173ffffffffffffffffffffffffffffffffffffffff167f8be0079c531659141344cd1fd0a4f28419497f9722a3daafe3b4186f6b6457e060405160405180910390a35050565b600062000156620001a060201b60201c565b81600160006101000a81548173ffffffffffffffffffffffffffffffffffffffff021916908373ffffffffffffffffffffffffffffffffffffffff16021790555060019050919050565b620001b06200007860201b60201c565b73ffffffffffffffffffffffffffffffffffffffff16620001d66200023160201b60201c565b73ffffffffffffffffffffffffffffffffffffffff16146200022f576040517f08c379a00000000000000000000000000000000000000000000000000000000081526004016200022690620002ca565b60405180910390fd5b565b60008060009054906101000a900473ffffffffffffffffffffffffffffffffffffffff16905090565b6000815190506200026b8162000373565b92915050565b6000602082840312156200028a576200028962000345565b5b60006200029a848285016200025a565b91505092915050565b6000620002b2602083620002ec565b9150620002bf826200034a565b602082019050919050565b60006020820190508181036000830152620002e581620002a3565b9050919050565b600082825260208201905092915050565b60006200030a8262000325565b9050919050565b60006200031e82620002fd565b9050919050565b600073ffffffffffffffffffffffffffffffffffffffff82169050919050565b600080fd5b7f4f776e61626c653a2063616c6c6572206973206e6f7420746865206f776e6572600082015250565b6200037e8162000311565b81146200038a57600080fd5b50565b612a7a806200039d6000396000f3fe6080604052600436106101145760003560e01c8063b197df54116100a0578063edbeddeb11610064578063edbeddeb14610408578063f046395a14610445578063f2fde38b14610484578063fa8dd889146104ad578063fdab5541146104ea57610114565b8063b197df54146102f5578063b84ea60214610332578063bd80c01814610362578063c5d805951461039f578063cc60fd5c146103cb57610114565b8063715018a6116100e7578063715018a6146101fc5780638da5cb5b146102135780639140690e1461023e578063925a06c61461027b578063acaf210f146102b857610114565b8063186aece5146101195780634cca6bdc146101565780635f8d26b2146101935780635fa2d7ba146101be575b600080fd5b34801561012557600080fd5b50610140600480360381019061013b9190611eec565b610527565b60405161014d9190612407565b60405180910390f35b34801561016257600080fd5b5061017d60048036038101906101789190612006565b610547565b60405161018a9190612407565b60405180910390f35b34801561019f57600080fd5b506101a861059b565b6040516101b59190612542565b60405180910390f35b3480156101ca57600080fd5b506101e560048036038101906101e0919061207c565b6105a1565b6040516101f392919061255d565b60405180910390f35b34801561020857600080fd5b506102116105c5565b005b34801561021f57600080fd5b506102286105d9565b6040516102359190612302565b60405180910390f35b34801561024a57600080fd5b5061026560048036038101906102609190611f86565b610602565b6040516102729190612407565b60405180910390f35b34801561028757600080fd5b506102a2600480360381019061029d919061207c565b610765565b6040516102af9190612407565b60405180910390f35b3480156102c457600080fd5b506102df60048036038101906102da9190611eec565b61079e565b6040516102ec9190612542565b60405180910390f35b34801561030157600080fd5b5061031c600480360381019061031791906120e9565b6107ea565b6040516103299190612407565b60405180910390f35b61034c600480360381019061034791906120a9565b6108d7565b6040516103599190612407565b60405180910390f35b34801561036e57600080fd5b5061038960048036038101906103849190611eec565b611016565b6040516103969190612542565b60405180910390f35b3480156103ab57600080fd5b506103b4611062565b6040516103c292919061255d565b60405180910390f35b3480156103d757600080fd5b506103f260048036038101906103ed9190611eec565b611074565b6040516103ff9190612407565b60405180910390f35b34801561041457600080fd5b5061042f600480360381019061042a9190611f46565b61151b565b60405161043c9190612407565b60405180910390f35b34801561045157600080fd5b5061046c60048036038101906104679190611eec565b611683565b60405161047b939291906123d0565b60405180910390f35b34801561049057600080fd5b506104ab60048036038101906104a69190611eec565b6116cd565b005b3480156104b957600080fd5b506104d460048036038101906104cf91906120e9565b611751565b6040516104e19190612407565b60405180910390f35b3480156104f657600080fd5b50610511600480360381019061050c9190611eec565b611779565b60405161051e9190612407565b60405180910390f35b60066020528060005260406000206000915054906101000a900460ff1681565b6000610551611cb4565b81600160006101000a81548173ffffffffffffffffffffffffffffffffffffffff021916908373ffffffffffffffffffffffffffffffffffffffff16021790555060019050919050565b60075481565b60046020528060005260406000206000915090508060000154908060010154905082565b6105cd611cb4565b6105d76000611d32565b565b60008060009054906101000a900473ffffffffffffffffffffffffffffffffffffffff16905090565b6000600160009054906101000a900473ffffffffffffffffffffffffffffffffffffffff1673ffffffffffffffffffffffffffffffffffffffff163373ffffffffffffffffffffffffffffffffffffffff1614610694576040517f08c379a000000000000000000000000000000000000000000000000000000000815260040161068b90612462565b60405180910390fd5b6001915081156107005782600560008673ffffffffffffffffffffffffffffffffffffffff1673ffffffffffffffffffffffffffffffffffffffff16815260200190815260200160002060010160008282546106f0919061263a565b925050819055506001905061075e565b82600560008673ffffffffffffffffffffffffffffffffffffffff1673ffffffffffffffffffffffffffffffffffffffff16815260200190815260200160002060010160008282546107529190612690565b92505081905550600190505b9392505050565b600061076f611cb4565b600460008381526020019081526020016000206000808201600090556001820160009055505060019050919050565b6000600560008373ffffffffffffffffffffffffffffffffffffffff1673ffffffffffffffffffffffffffffffffffffffff168152602001908152602001600020600101549050919050565b60006107f4611cb4565b60008311610837576040517f08c379a000000000000000000000000000000000000000000000000000000000815260040161082e90612482565b60405180910390fd5b60405180604001604052808481526020018381525060046000600754815260200190815260200160002060008201518160000155602082015181600101559050507f866e382f80cddcdd39ac6fc6274e0aa9fd410a5e12bb3956d249ecdf8829a00e83836007546040516108ad93929190612586565b60405180910390a1600760008154809291906108c890612782565b91905055506001905092915050565b6000600160009054906101000a900473ffffffffffffffffffffffffffffffffffffffff1673ffffffffffffffffffffffffffffffffffffffff166320853b28836040518263ffffffff1660e01b81526004016109349190612302565b60206040518083038186803b15801561094c57600080fd5b505afa158015610960573d6000803e3d6000fd5b505050506040513d601f19601f820116820180604052508101906109849190611fd9565b6109c3576040517f08c379a00000000000000000000000000000000000000000000000000000000081526004016109ba906124a2565b60405180910390fd5b60006004600085815260200190815260200160002090506000816001015411610a21576040517f08c379a0000000000000000000000000000000000000000000000000000000008152600401610a1890612502565b60405180910390fd5b8060010154341015610a68576040517f08c379a0000000000000000000000000000000000000000000000000000000008152600401610a5f90612522565b60405180910390fd5b6000600160009054906101000a900473ffffffffffffffffffffffffffffffffffffffff1673ffffffffffffffffffffffffffffffffffffffff1663984d24196040518163ffffffff1660e01b815260040160206040518083038186803b158015610ad257600080fd5b505afa158015610ae6573d6000803e3d6000fd5b505050506040513d601f19601f82011682018060405250810190610b0a9190611f19565b73ffffffffffffffffffffffffffffffffffffffff1634604051610b2d906122ed565b60006040518083038185875af1925050503d8060008114610b6a576040519150601f19603f3d011682016040523d82523d6000602084013e610b6f565b606091505b5050905080610bb3576040517f08c379a0000000000000000000000000000000000000000000000000000000008152600401610baa90612442565b60405180910390fd5b600073ffffffffffffffffffffffffffffffffffffffff16600560008673ffffffffffffffffffffffffffffffffffffffff1673ffffffffffffffffffffffffffffffffffffffff16815260200190815260200160002060000160009054906101000a900473ffffffffffffffffffffffffffffffffffffffff1673ffffffffffffffffffffffffffffffffffffffff161415610de05760405180606001604052808573ffffffffffffffffffffffffffffffffffffffff1681526020018360000154815260200162278d0042610c8a919061263a565b815250600560008673ffffffffffffffffffffffffffffffffffffffff1673ffffffffffffffffffffffffffffffffffffffff16815260200190815260200160002060008201518160000160006101000a81548173ffffffffffffffffffffffffffffffffffffffff021916908373ffffffffffffffffffffffffffffffffffffffff1602179055506020820151816001015560408201518160020155905050600160009054906101000a900473ffffffffffffffffffffffffffffffffffffffff1673ffffffffffffffffffffffffffffffffffffffff1663af93c6ad8560016040518363ffffffff1660e01b8152600401610d8892919061231d565b602060405180830381600087803b158015610da257600080fd5b505af1158015610db6573d6000803e3d6000fd5b505050506040513d601f19601f82011682018060405250810190610dda9190611fd9565b50610e9a565b8160000154600560008673ffffffffffffffffffffffffffffffffffffffff1673ffffffffffffffffffffffffffffffffffffffff1681526020019081526020016000206001016000828254610e36919061263a565b9250508190555062278d00600560008673ffffffffffffffffffffffffffffffffffffffff1673ffffffffffffffffffffffffffffffffffffffff1681526020019081526020016000206002016000828254610e92919061263a565b925050819055505b7f8aeeb067fbe29d5b6a98869ff760d3249d3b1dac803c7ea9c1cf7e8161ba746e84600160009054906101000a900473ffffffffffffffffffffffffffffffffffffffff1673ffffffffffffffffffffffffffffffffffffffff16633c527f31876040518263ffffffff1660e01b8152600401610f179190612302565b60006040518083038186803b158015610f2f57600080fd5b505afa158015610f43573d6000803e3d6000fd5b505050506040513d6000823e3d601f19601f82011682018060405250810190610f6c9190612033565b600560008873ffffffffffffffffffffffffffffffffffffffff1673ffffffffffffffffffffffffffffffffffffffff16815260200190815260200160002060020154600560008973ffffffffffffffffffffffffffffffffffffffff1673ffffffffffffffffffffffffffffffffffffffff168152602001908152602001600020600101546040516110029493929190612384565b60405180910390a160019250505092915050565b6000600560008373ffffffffffffffffffffffffffffffffffffffff1673ffffffffffffffffffffffffffffffffffffffff168152602001908152602001600020600201549050919050565b60028060000154908060010154905082565b6000600160009054906101000a900473ffffffffffffffffffffffffffffffffffffffff1673ffffffffffffffffffffffffffffffffffffffff163373ffffffffffffffffffffffffffffffffffffffff1614806110fd57508173ffffffffffffffffffffffffffffffffffffffff163373ffffffffffffffffffffffffffffffffffffffff16145b61113c576040517f08c379a000000000000000000000000000000000000000000000000000000000815260040161113390612462565b60405180910390fd5b600160009054906101000a900473ffffffffffffffffffffffffffffffffffffffff1673ffffffffffffffffffffffffffffffffffffffff166320853b28836040518263ffffffff1660e01b81526004016111979190612302565b60206040518083038186803b1580156111af57600080fd5b505afa1580156111c3573d6000803e3d6000fd5b505050506040513d601f19601f820116820180604052508101906111e79190611fd9565b611226576040517f08c379a000000000000000000000000000000000000000000000000000000000815260040161121d906124a2565b60405180910390fd5b6000600560008473ffffffffffffffffffffffffffffffffffffffff1673ffffffffffffffffffffffffffffffffffffffff1681526020019081526020016000209050600073ffffffffffffffffffffffffffffffffffffffff168160000160009054906101000a900473ffffffffffffffffffffffffffffffffffffffff1673ffffffffffffffffffffffffffffffffffffffff1614156112fd576040517f08c379a00000000000000000000000000000000000000000000000000000000081526004016112f4906124c2565b60405180910390fd5b600560008473ffffffffffffffffffffffffffffffffffffffff1673ffffffffffffffffffffffffffffffffffffffff168152602001908152602001600020600080820160006101000a81549073ffffffffffffffffffffffffffffffffffffffff0219169055600182016000905560028201600090555050600160009054906101000a900473ffffffffffffffffffffffffffffffffffffffff1673ffffffffffffffffffffffffffffffffffffffff1663af93c6ad8460006040518363ffffffff1660e01b81526004016113d492919061231d565b602060405180830381600087803b1580156113ee57600080fd5b505af1158015611402573d6000803e3d6000fd5b505050506040513d601f19601f820116820180604052508101906114269190611fd9565b507ffb33a9b55a8bc0a9a0d3b8bec534c57ce9939bebea91125b3dea9173c499d34d83600160009054906101000a900473ffffffffffffffffffffffffffffffffffffffff1673ffffffffffffffffffffffffffffffffffffffff16633c527f31866040518263ffffffff1660e01b81526004016114a49190612302565b60006040518083038186803b1580156114bc57600080fd5b505afa1580156114d0573d6000803e3d6000fd5b505050506040513d6000823e3d601f19601f820116820180604052508101906114f99190612033565b4260405161150993929190612346565b60405180910390a16001915050919050565b6000600160009054906101000a900473ffffffffffffffffffffffffffffffffffffffff1673ffffffffffffffffffffffffffffffffffffffff163373ffffffffffffffffffffffffffffffffffffffff16146115ad576040517f08c379a00000000000000000000000000000000000000000000000000000000081526004016115a490612462565b60405180910390fd5b60019150811561161c5762278d00600560008573ffffffffffffffffffffffffffffffffffffffff1673ffffffffffffffffffffffffffffffffffffffff168152602001908152602001600020600201600082825461160c919061263a565b925050819055506001905061167d565b62278d00600560008573ffffffffffffffffffffffffffffffffffffffff1673ffffffffffffffffffffffffffffffffffffffff16815260200190815260200160002060020160008282546116719190612690565b92505081905550600190505b92915050565b60056020528060005260406000206000915090508060000160009054906101000a900473ffffffffffffffffffffffffffffffffffffffff16908060010154908060020154905083565b6116d5611cb4565b600073ffffffffffffffffffffffffffffffffffffffff168173ffffffffffffffffffffffffffffffffffffffff161415611745576040517f08c379a000000000000000000000000000000000000000000000000000000000815260040161173c90612422565b60405180910390fd5b61174e81611d32565b50565b600061175b611cb4565b81600260000181905550826002600101819055506001905092915050565b6000600160009054906101000a900473ffffffffffffffffffffffffffffffffffffffff1673ffffffffffffffffffffffffffffffffffffffff163373ffffffffffffffffffffffffffffffffffffffff161461180b576040517f08c379a000000000000000000000000000000000000000000000000000000000815260040161180290612462565b60405180910390fd5b600160009054906101000a900473ffffffffffffffffffffffffffffffffffffffff1673ffffffffffffffffffffffffffffffffffffffff166320853b28836040518263ffffffff1660e01b81526004016118669190612302565b60206040518083038186803b15801561187e57600080fd5b505afa158015611892573d6000803e3d6000fd5b505050506040513d601f19601f820116820180604052508101906118b69190611fd9565b6118f5576040517f08c379a00000000000000000000000000000000000000000000000000000000081526004016118ec906124a2565b60405180910390fd5b600660008373ffffffffffffffffffffffffffffffffffffffff1673ffffffffffffffffffffffffffffffffffffffff16815260200190815260200160002060009054906101000a900460ff16156119505760019050611caf565b60405180606001604052808373ffffffffffffffffffffffffffffffffffffffff168152602001600260000154815260200162278d0042611991919061263a565b815250600560008473ffffffffffffffffffffffffffffffffffffffff1673ffffffffffffffffffffffffffffffffffffffff16815260200190815260200160002060008201518160000160006101000a81548173ffffffffffffffffffffffffffffffffffffffff021916908373ffffffffffffffffffffffffffffffffffffffff1602179055506020820151816001015560408201518160020155905050600160009054906101000a900473ffffffffffffffffffffffffffffffffffffffff1673ffffffffffffffffffffffffffffffffffffffff1663af93c6ad8360016040518363ffffffff1660e01b8152600401611a8f92919061231d565b602060405180830381600087803b158015611aa957600080fd5b505af1158015611abd573d6000803e3d6000fd5b505050506040513d601f19601f82011682018060405250810190611ae19190611fd9565b506001600660008473ffffffffffffffffffffffffffffffffffffffff1673ffffffffffffffffffffffffffffffffffffffff16815260200190815260200160002060006101000a81548160ff0219169083151502179055507f8aeeb067fbe29d5b6a98869ff760d3249d3b1dac803c7ea9c1cf7e8161ba746e82600160009054906101000a900473ffffffffffffffffffffffffffffffffffffffff1673ffffffffffffffffffffffffffffffffffffffff16633c527f31856040518263ffffffff1660e01b8152600401611bb79190612302565b60006040518083038186803b158015611bcf57600080fd5b505afa158015611be3573d6000803e3d6000fd5b505050506040513d6000823e3d601f19601f82011682018060405250810190611c0c9190612033565b600560008673ffffffffffffffffffffffffffffffffffffffff1673ffffffffffffffffffffffffffffffffffffffff16815260200190815260200160002060020154600560008773ffffffffffffffffffffffffffffffffffffffff1673ffffffffffffffffffffffffffffffffffffffff16815260200190815260200160002060010154604051611ca29493929190612384565b60405180910390a1600190505b919050565b611cbc611df6565b73ffffffffffffffffffffffffffffffffffffffff16611cda6105d9565b73ffffffffffffffffffffffffffffffffffffffff1614611d30576040517f08c379a0000000000000000000000000000000000000000000000000000000008152600401611d27906124e2565b60405180910390fd5b565b60008060009054906101000a900473ffffffffffffffffffffffffffffffffffffffff169050816000806101000a81548173ffffffffffffffffffffffffffffffffffffffff021916908373ffffffffffffffffffffffffffffffffffffffff1602179055508173ffffffffffffffffffffffffffffffffffffffff168173ffffffffffffffffffffffffffffffffffffffff167f8be0079c531659141344cd1fd0a4f28419497f9722a3daafe3b4186f6b6457e060405160405180910390a35050565b600033905090565b6000611e11611e0c846125e2565b6125bd565b905082815260208101848484011115611e2d57611e2c61282e565b5b611e3884828561271e565b509392505050565b600081359050611e4f816129e8565b92915050565b600081519050611e64816129e8565b92915050565b600081359050611e79816129ff565b92915050565b600081519050611e8e816129ff565b92915050565b600081359050611ea381612a16565b92915050565b600082601f830112611ebe57611ebd612829565b5b8151611ece848260208601611dfe565b91505092915050565b600081359050611ee681612a2d565b92915050565b600060208284031215611f0257611f01612838565b5b6000611f1084828501611e40565b91505092915050565b600060208284031215611f2f57611f2e612838565b5b6000611f3d84828501611e55565b91505092915050565b60008060408385031215611f5d57611f5c612838565b5b6000611f6b85828601611e40565b9250506020611f7c85828601611e6a565b9150509250929050565b600080600060608486031215611f9f57611f9e612838565b5b6000611fad86828701611e40565b9350506020611fbe86828701611ed7565b9250506040611fcf86828701611e6a565b9150509250925092565b600060208284031215611fef57611fee612838565b5b6000611ffd84828501611e7f565b91505092915050565b60006020828403121561201c5761201b612838565b5b600061202a84828501611e94565b91505092915050565b60006020828403121561204957612048612838565b5b600082015167ffffffffffffffff81111561206757612066612833565b5b61207384828501611ea9565b91505092915050565b60006020828403121561209257612091612838565b5b60006120a084828501611ed7565b91505092915050565b600080604083850312156120c0576120bf612838565b5b60006120ce85828601611ed7565b92505060206120df85828601611e40565b9150509250929050565b60008060408385031215612100576120ff612838565b5b600061210e85828601611ed7565b925050602061211f85828601611ed7565b9150509250929050565b612132816126c4565b82525050565b612141816126d6565b82525050565b600061215282612613565b61215c8185612629565b935061216c81856020860161271e565b6121758161283d565b840191505092915050565b600061218d602683612629565b91506121988261284e565b604082019050919050565b60006121b0601483612629565b91506121bb8261289d565b602082019050919050565b60006121d3600d83612629565b91506121de826128c6565b602082019050919050565b60006121f6601683612629565b9150612201826128ef565b602082019050919050565b6000612219600c83612629565b915061222482612918565b602082019050919050565b600061223c601b83612629565b915061224782612941565b602082019050919050565b600061225f602083612629565b915061226a8261296a565b602082019050919050565b6000612282601383612629565b915061228d82612993565b602082019050919050565b60006122a560008361261e565b91506122b0826129bc565b600082019050919050565b60006122c8601c83612629565b91506122d3826129bf565b602082019050919050565b6122e781612714565b82525050565b60006122f882612298565b9150819050919050565b60006020820190506123176000830184612129565b92915050565b60006040820190506123326000830185612129565b61233f6020830184612138565b9392505050565b600060608201905061235b6000830186612129565b818103602083015261236d8185612147565b905061237c60408301846122de565b949350505050565b60006080820190506123996000830187612129565b81810360208301526123ab8186612147565b90506123ba60408301856122de565b6123c760608301846122de565b95945050505050565b60006060820190506123e56000830186612129565b6123f260208301856122de565b6123ff60408301846122de565b949350505050565b600060208201905061241c6000830184612138565b92915050565b6000602082019050818103600083015261243b81612180565b9050919050565b6000602082019050818103600083015261245b816121a3565b9050919050565b6000602082019050818103600083015261247b816121c6565b9050919050565b6000602082019050818103600083015261249b816121e9565b9050919050565b600060208201905081810360008301526124bb8161220c565b9050919050565b600060208201905081810360008301526124db8161222f565b9050919050565b600060208201905081810360008301526124fb81612252565b9050919050565b6000602082019050818103600083015261251b81612275565b9050919050565b6000602082019050818103600083015261253b816122bb565b9050919050565b600060208201905061255760008301846122de565b92915050565b600060408201905061257260008301856122de565b61257f60208301846122de565b9392505050565b600060608201905061259b60008301866122de565b6125a860208301856122de565b6125b560408301846122de565b949350505050565b60006125c76125d8565b90506125d38282612751565b919050565b6000604051905090565b600067ffffffffffffffff8211156125fd576125fc6127fa565b5b6126068261283d565b9050602081019050919050565b600081519050919050565b600081905092915050565b600082825260208201905092915050565b600061264582612714565b915061265083612714565b9250827fffffffffffffffffffffffffffffffffffffffffffffffffffffffffffffffff03821115612685576126846127cb565b5b828201905092915050565b600061269b82612714565b91506126a683612714565b9250828210156126b9576126b86127cb565b5b828203905092915050565b60006126cf826126f4565b9050919050565b60008115159050919050565b60006126ed826126c4565b9050919050565b600073ffffffffffffffffffffffffffffffffffffffff82169050919050565b6000819050919050565b60005b8381101561273c578082015181840152602081019050612721565b8381111561274b576000848401525b50505050565b61275a8261283d565b810181811067ffffffffffffffff82111715612779576127786127fa565b5b80604052505050565b600061278d82612714565b91507fffffffffffffffffffffffffffffffffffffffffffffffffffffffffffffffff8214156127c0576127bf6127cb565b5b600182019050919050565b7f4e487b7100000000000000000000000000000000000000000000000000000000600052601160045260246000fd5b7f4e487b7100000000000000000000000000000000000000000000000000000000600052604160045260246000fd5b600080fd5b600080fd5b600080fd5b600080fd5b6000601f19601f8301169050919050565b7f4f776e61626c653a206e6577206f776e657220697320746865207a65726f206160008201527f6464726573730000000000000000000000000000000000000000000000000000602082015250565b7f4661696c656420746f2073656e64204574686572000000000000000000000000600082015250565b7f6f7574206f6620626f756e647300000000000000000000000000000000000000600082015250565b7f616d6f756e74206e6565647320746f206265203e203000000000000000000000600082015250565b7f6e6f7420612056656e646f720000000000000000000000000000000000000000600082015250565b7f737562736372697074696f6e20646f6573206e6f742065786973740000000000600082015250565b7f4f776e61626c653a2063616c6c6572206973206e6f7420746865206f776e6572600082015250565b7f706c616e20646f6573206e6f7420657869737400000000000000000000000000600082015250565b50565b7f506c656173652073656e642065746820746f2073756273637269626500000000600082015250565b6129f1816126c4565b81146129fc57600080fd5b50565b612a08816126d6565b8114612a1357600080fd5b50565b612a1f816126e2565b8114612a2a57600080fd5b50565b612a3681612714565b8114612a4157600080fd5b5056fea2646970667358221220880842747003dcf9955596218e44fb85540f5442335f4373cff0a9343b9b51b064736f6c63430008070033",
  "linkReferences": {},
  "deployedLinkReferences": {}
}