{
  "_format": "hh-sol-artifact-1",
  "contractName": "Map3Pay",
  "sourceName": "contracts/Map3Pay.sol",
  "abi": [
    {
      "inputs": [
        {
          "internalType": "address",
          "name": "_feeColector",
          "type": "address"
        },
        {
          "internalType": "address",
          "name": "_wethAddress",
          "type": "address"
        }
      ],
      "stateMutability": "payable",
      "type": "constructor"
    },
    {
      "anonymous": false,
      "inputs": [
        {
          "indexed": false,
          "internalType": "contract IERC20",
          "name": "sellToken",
          "type": "address"
        },
        {
          "indexed": false,
          "internalType": "contract IERC20",
          "name": "buyToken",
          "type": "address"
        },
        {
          "indexed": false,
          "internalType": "uint256",
          "name": "boughtAmount",
          "type": "uint256"
        }
      ],
      "name": "FilledSwapOrder",
      "type": "event"
    },
    {
      "anonymous": false,
      "inputs": [
        {
          "indexed": false,
          "internalType": "address",
          "name": "from",
          "type": "address"
        },
        {
          "indexed": false,
          "internalType": "address",
          "name": "to",
          "type": "address"
        },
        {
          "indexed": false,
          "internalType": "address",
          "name": "tokenIn",
          "type": "address"
        },
        {
          "indexed": false,
          "internalType": "address",
          "name": "tokenOut",
          "type": "address"
        },
        {
          "indexed": false,
          "internalType": "uint256",
          "name": "amount",
          "type": "uint256"
        }
      ],
      "name": "MoneySpent",
      "type": "event"
    },
    {
      "anonymous": false,
      "inputs": [
        {
          "indexed": true,
          "internalType": "address",
          "name": "previousOwner",
          "type": "address"
        },
        {
          "indexed": true,
          "internalType": "address",
          "name": "newOwner",
          "type": "address"
        }
      ],
      "name": "OwnershipTransferred",
      "type": "event"
    },
    {
      "anonymous": false,
      "inputs": [
        {
          "indexed": false,
          "internalType": "address",
          "name": "sender",
          "type": "address"
        },
        {
          "indexed": false,
          "internalType": "address",
          "name": "to",
          "type": "address"
        },
        {
          "indexed": false,
          "internalType": "uint256",
          "name": "amount",
          "type": "uint256"
        }
      ],
      "name": "Paid",
      "type": "event"
    },
    {
      "anonymous": false,
      "inputs": [
        {
          "indexed": false,
          "internalType": "address",
          "name": "vendorsWalletAddress",
          "type": "address"
        },
        {
          "indexed": false,
          "internalType": "string",
          "name": "vendorsName",
          "type": "string"
        },
        {
          "indexed": false,
          "internalType": "string",
          "name": "vendorsStreetAddress",
          "type": "string"
        },
        {
          "indexed": false,
          "internalType": "string",
          "name": "vendorsCity",
          "type": "string"
        },
        {
          "indexed": false,
          "internalType": "string",
          "name": "vendorsState",
          "type": "string"
        },
        {
          "indexed": false,
          "internalType": "string",
          "name": "vendorsZip",
          "type": "string"
        },
        {
          "indexed": false,
          "internalType": "string",
          "name": "vendorsEmail",
          "type": "string"
        }
      ],
      "name": "VendorCreated",
      "type": "event"
    },
    {
      "anonymous": false,
      "inputs": [
        {
          "indexed": false,
          "internalType": "string",
          "name": "vendorsBio",
          "type": "string"
        },
        {
          "indexed": false,
          "internalType": "string",
          "name": "vendorsLat",
          "type": "string"
        },
        {
          "indexed": false,
          "internalType": "string",
          "name": "vendorsLong",
          "type": "string"
        },
        {
          "indexed": false,
          "internalType": "string",
          "name": "vendorsImageUrl",
          "type": "string"
        },
        {
          "indexed": false,
          "internalType": "string",
          "name": "vendorsWebsiteUrl",
          "type": "string"
        },
        {
          "indexed": false,
          "internalType": "uint256",
          "name": "vendorsId",
          "type": "uint256"
        },
        {
          "indexed": false,
          "internalType": "contract IERC20",
          "name": "vendorsToken",
          "type": "address"
        }
      ],
      "name": "newVendorInfo",
      "type": "event"
    },
    {
      "inputs": [
        {
          "internalType": "contract IERC20",
          "name": "_Coin",
          "type": "address"
        },
        {
          "internalType": "address",
          "name": "_account",
          "type": "address"
        }
      ],
      "name": "GetAllowance",
      "outputs": [
        {
          "internalType": "uint256",
          "name": "",
          "type": "uint256"
        }
      ],
      "stateMutability": "view",
      "type": "function"
    },
    {
      "inputs": [
        {
          "internalType": "contract IERC20",
          "name": "_tokenIn",
          "type": "address"
        }
      ],
      "name": "GetContractTokenBalance",
      "outputs": [
        {
          "internalType": "uint256",
          "name": "",
          "type": "uint256"
        }
      ],
      "stateMutability": "view",
      "type": "function"
    },
    {
      "inputs": [
        {
          "internalType": "contract IERC20",
          "name": "_Coin",
          "type": "address"
        }
      ],
      "name": "GetThisContractAllowance",
      "outputs": [
        {
          "internalType": "uint256",
          "name": "",
          "type": "uint256"
        }
      ],
      "stateMutability": "view",
      "type": "function"
    },
    {
      "inputs": [
        {
          "internalType": "uint256",
          "name": "_tokenamount",
          "type": "uint256"
        },
        {
          "internalType": "address",
          "name": "_to",
          "type": "address"
        },
        {
          "internalType": "contract IERC20",
          "name": "_tokenIn",
          "type": "address"
        }
      ],
      "name": "SameTokenPay",
      "outputs": [
        {
          "internalType": "bool",
          "name": "",
          "type": "bool"
        }
      ],
      "stateMutability": "payable",
      "type": "function"
    },
    {
      "inputs": [
        {
          "internalType": "address",
          "name": "",
          "type": "address"
        }
      ],
      "name": "VendorId",
      "outputs": [
        {
          "internalType": "uint256",
          "name": "",
          "type": "uint256"
        }
      ],
      "stateMutability": "view",
      "type": "function"
    },
    {
      "inputs": [],
      "name": "VendorIdCount",
      "outputs": [
        {
          "internalType": "uint256",
          "name": "",
          "type": "uint256"
        }
      ],
      "stateMutability": "view",
      "type": "function"
    },
    {
      "inputs": [
        {
          "internalType": "uint256",
          "name": "",
          "type": "uint256"
        }
      ],
      "name": "VendorList",
      "outputs": [
        {
          "internalType": "address",
          "name": "vendorsWalletAddress",
          "type": "address"
        },
        {
          "internalType": "string",
          "name": "vendorsName",
          "type": "string"
        },
        {
          "internalType": "string",
          "name": "vendorsEmail",
          "type": "string"
        },
        {
          "internalType": "string",
          "name": "vendorsBio",
          "type": "string"
        },
        {
          "internalType": "string",
          "name": "vendorsLat",
          "type": "string"
        },
        {
          "internalType": "string",
          "name": "vendorsLong",
          "type": "string"
        },
        {
          "internalType": "string",
          "name": "vendorsImageUrl",
          "type": "string"
        },
        {
          "internalType": "string",
          "name": "vendorsWebsiteUrl",
          "type": "string"
        },
        {
          "internalType": "uint256",
          "name": "vendorsId",
          "type": "uint256"
        },
        {
          "internalType": "contract IERC20",
          "name": "vendorsToken",
          "type": "address"
        }
      ],
      "stateMutability": "view",
      "type": "function"
    },
    {
      "inputs": [
        {
          "components": [
            {
              "internalType": "address",
              "name": "vendorsWalletAddress",
              "type": "address"
            },
            {
              "internalType": "string",
              "name": "vendorsName",
              "type": "string"
            },
            {
              "internalType": "string",
              "name": "vendorsStreetAddress",
              "type": "string"
            },
            {
              "internalType": "string",
              "name": "vendorsCity",
              "type": "string"
            },
            {
              "internalType": "string",
              "name": "vendorsState",
              "type": "string"
            },
            {
              "internalType": "string",
              "name": "vendorsZip",
              "type": "string"
            },
            {
              "internalType": "string",
              "name": "vendorsEmail",
              "type": "string"
            },
            {
              "internalType": "string",
              "name": "vendorsBio",
              "type": "string"
            },
            {
              "internalType": "string",
              "name": "vendorsLat",
              "type": "string"
            },
            {
              "internalType": "string",
              "name": "vendorsLong",
              "type": "string"
            },
            {
              "internalType": "string",
              "name": "vendorsImageUrl",
              "type": "string"
            },
            {
              "internalType": "string",
              "name": "vendorsWebsiteUrl",
              "type": "string"
            },
            {
              "internalType": "contract IERC20",
              "name": "vendorsToken",
              "type": "address"
            }
          ],
          "internalType": "struct Map3Pay.signUpVendor",
          "name": "_signUpVendor",
          "type": "tuple"
        }
      ],
      "name": "addVendor",
      "outputs": [
        {
          "internalType": "bool",
          "name": "",
          "type": "bool"
        }
      ],
      "stateMutability": "payable",
      "type": "function"
    },
    {
      "inputs": [],
      "name": "approveAmmount",
      "outputs": [
        {
          "internalType": "uint256",
          "name": "",
          "type": "uint256"
        }
      ],
      "stateMutability": "view",
      "type": "function"
    },
    {
      "inputs": [
        {
          "internalType": "address",
          "name": "_account",
          "type": "address"
        }
      ],
      "name": "checkIsVendor",
      "outputs": [
        {
          "internalType": "bool",
          "name": "",
          "type": "bool"
        }
      ],
      "stateMutability": "view",
      "type": "function"
    },
    {
      "inputs": [
        {
          "internalType": "address",
          "name": "_account",
          "type": "address"
        }
      ],
      "name": "checkIsVendorActive",
      "outputs": [
        {
          "internalType": "bool",
          "name": "",
          "type": "bool"
        }
      ],
      "stateMutability": "view",
      "type": "function"
    },
    {
      "inputs": [],
      "name": "decimalMultiplier",
      "outputs": [
        {
          "internalType": "uint256",
          "name": "",
          "type": "uint256"
        }
      ],
      "stateMutability": "view",
      "type": "function"
    },
    {
      "inputs": [],
      "name": "depositETH",
      "outputs": [
        {
          "internalType": "bool",
          "name": "",
          "type": "bool"
        }
      ],
      "stateMutability": "payable",
      "type": "function"
    },
    {
      "inputs": [],
      "name": "feeColector",
      "outputs": [
        {
          "internalType": "address",
          "name": "",
          "type": "address"
        }
      ],
      "stateMutability": "view",
      "type": "function"
    },
    {
      "inputs": [
        {
          "internalType": "contract IERC20",
          "name": "sellToken",
          "type": "address"
        },
        {
          "internalType": "contract IERC20",
          "name": "buyToken",
          "type": "address"
        },
        {
          "internalType": "address",
          "name": "spender",
          "type": "address"
        },
        {
          "internalType": "address payable",
          "name": "swapTarget",
          "type": "address"
        },
        {
          "internalType": "uint256",
          "name": "_tokenamount",
          "type": "uint256"
        },
        {
          "internalType": "uint256",
          "name": "_sendAmount",
          "type": "uint256"
        },
        {
          "internalType": "address",
          "name": "_toAddress",
          "type": "address"
        },
        {
          "internalType": "bytes",
          "name": "swapCallData",
          "type": "bytes"
        }
      ],
      "name": "fillQuote",
      "outputs": [],
      "stateMutability": "payable",
      "type": "function"
    },
    {
      "inputs": [],
      "name": "getFeeColector",
      "outputs": [
        {
          "internalType": "address",
          "name": "",
          "type": "address"
        }
      ],
      "stateMutability": "view",
      "type": "function"
    },
    {
      "inputs": [
        {
          "internalType": "address",
          "name": "_account",
          "type": "address"
        }
      ],
      "name": "getVendorEmail",
      "outputs": [
        {
          "internalType": "string",
          "name": "",
          "type": "string"
        }
      ],
      "stateMutability": "view",
      "type": "function"
    },
    {
      "inputs": [
        {
          "internalType": "address",
          "name": "_account",
          "type": "address"
        }
      ],
      "name": "getVendorId",
      "outputs": [
        {
          "internalType": "uint256",
          "name": "",
          "type": "uint256"
        }
      ],
      "stateMutability": "view",
      "type": "function"
    },
    {
      "inputs": [
        {
          "internalType": "address",
          "name": "",
          "type": "address"
        }
      ],
      "name": "isVendor",
      "outputs": [
        {
          "internalType": "bool",
          "name": "",
          "type": "bool"
        }
      ],
      "stateMutability": "view",
      "type": "function"
    },
    {
      "inputs": [
        {
          "internalType": "address",
          "name": "",
          "type": "address"
        }
      ],
      "name": "isVendorActive",
      "outputs": [
        {
          "internalType": "bool",
          "name": "",
          "type": "bool"
        }
      ],
      "stateMutability": "view",
      "type": "function"
    },
    {
      "inputs": [],
      "name": "numberOfVendors",
      "outputs": [
        {
          "internalType": "uint256",
          "name": "",
          "type": "uint256"
        }
      ],
      "stateMutability": "view",
      "type": "function"
    },
    {
      "inputs": [],
      "name": "owner",
      "outputs": [
        {
          "internalType": "address",
          "name": "",
          "type": "address"
        }
      ],
      "stateMutability": "view",
      "type": "function"
    },
    {
      "inputs": [],
      "name": "rate",
      "outputs": [
        {
          "internalType": "uint256",
          "name": "",
          "type": "uint256"
        }
      ],
      "stateMutability": "view",
      "type": "function"
    },
    {
      "inputs": [
        {
          "internalType": "address",
          "name": "_vendor",
          "type": "address"
        }
      ],
      "name": "removeVendor",
      "outputs": [
        {
          "internalType": "bool",
          "name": "",
          "type": "bool"
        }
      ],
      "stateMutability": "nonpayable",
      "type": "function"
    },
    {
      "inputs": [],
      "name": "renounceOwnership",
      "outputs": [],
      "stateMutability": "nonpayable",
      "type": "function"
    },
    {
      "inputs": [
        {
          "internalType": "address",
          "name": "_account",
          "type": "address"
        },
        {
          "internalType": "bool",
          "name": "_status",
          "type": "bool"
        }
      ],
      "name": "setIsVendorActive",
      "outputs": [
        {
          "internalType": "bool",
          "name": "",
          "type": "bool"
        }
      ],
      "stateMutability": "nonpayable",
      "type": "function"
    },
    {
      "inputs": [
        {
          "internalType": "uint256",
          "name": "_rate",
          "type": "uint256"
        }
      ],
      "name": "setRate",
      "outputs": [
        {
          "internalType": "bool",
          "name": "",
          "type": "bool"
        }
      ],
      "stateMutability": "nonpayable",
      "type": "function"
    },
    {
      "inputs": [
        {
          "internalType": "address",
          "name": "_wethAddress",
          "type": "address"
        }
      ],
      "name": "setUpWeth",
      "outputs": [],
      "stateMutability": "nonpayable",
      "type": "function"
    },
    {
      "inputs": [
        {
          "internalType": "string",
          "name": "_newBio",
          "type": "string"
        }
      ],
      "name": "setVendorBio",
      "outputs": [
        {
          "internalType": "bool",
          "name": "",
          "type": "bool"
        }
      ],
      "stateMutability": "nonpayable",
      "type": "function"
    },
    {
      "inputs": [
        {
          "internalType": "string",
          "name": "_newEmail",
          "type": "string"
        }
      ],
      "name": "setVendorEmail",
      "outputs": [
        {
          "internalType": "bool",
          "name": "",
          "type": "bool"
        }
      ],
      "stateMutability": "nonpayable",
      "type": "function"
    },
    {
      "inputs": [
        {
          "internalType": "string",
          "name": "_newImageUrl",
          "type": "string"
        }
      ],
      "name": "setVendorImageUrl",
      "outputs": [
        {
          "internalType": "bool",
          "name": "",
          "type": "bool"
        }
      ],
      "stateMutability": "nonpayable",
      "type": "function"
    },
    {
      "inputs": [
        {
          "internalType": "string",
          "name": "_newLat",
          "type": "string"
        },
        {
          "internalType": "string",
          "name": "_newLong",
          "type": "string"
        }
      ],
      "name": "setVendorLatAndLong",
      "outputs": [
        {
          "internalType": "bool",
          "name": "",
          "type": "bool"
        }
      ],
      "stateMutability": "nonpayable",
      "type": "function"
    },
    {
      "inputs": [
        {
          "internalType": "string",
          "name": "_newName",
          "type": "string"
        }
      ],
      "name": "setVendorName",
      "outputs": [
        {
          "internalType": "bool",
          "name": "",
          "type": "bool"
        }
      ],
      "stateMutability": "nonpayable",
      "type": "function"
    },
    {
      "inputs": [
        {
          "internalType": "contract IVendorPlans",
          "name": "_vendorPlans",
          "type": "address"
        }
      ],
      "name": "setVendorPlansContract",
      "outputs": [
        {
          "internalType": "bool",
          "name": "",
          "type": "bool"
        }
      ],
      "stateMutability": "nonpayable",
      "type": "function"
    },
    {
      "inputs": [
        {
          "internalType": "uint256",
          "name": "_price",
          "type": "uint256"
        }
      ],
      "name": "setVendorSignUpFee",
      "outputs": [
        {
          "internalType": "bool",
          "name": "",
          "type": "bool"
        }
      ],
      "stateMutability": "nonpayable",
      "type": "function"
    },
    {
      "inputs": [
        {
          "internalType": "contract IERC20",
          "name": "_newToken",
          "type": "address"
        }
      ],
      "name": "setVendorToken",
      "outputs": [
        {
          "internalType": "bool",
          "name": "",
          "type": "bool"
        }
      ],
      "stateMutability": "nonpayable",
      "type": "function"
    },
    {
      "inputs": [
        {
          "internalType": "string",
          "name": "_newWebsiteUrl",
          "type": "string"
        }
      ],
      "name": "setVendorWebsiteUrl",
      "outputs": [
        {
          "internalType": "bool",
          "name": "",
          "type": "bool"
        }
      ],
      "stateMutability": "nonpayable",
      "type": "function"
    },
    {
      "inputs": [
        {
          "internalType": "address",
          "name": "_feeColector",
          "type": "address"
        }
      ],
      "name": "setfeeColector",
      "outputs": [
        {
          "internalType": "bool",
          "name": "",
          "type": "bool"
        }
      ],
      "stateMutability": "nonpayable",
      "type": "function"
    },
    {
      "inputs": [
        {
          "internalType": "uint256",
          "name": "_rate",
          "type": "uint256"
        }
      ],
      "name": "settipRate",
      "outputs": [
        {
          "internalType": "bool",
          "name": "",
          "type": "bool"
        }
      ],
      "stateMutability": "nonpayable",
      "type": "function"
    },
    {
      "inputs": [],
      "name": "tipRate",
      "outputs": [
        {
          "internalType": "uint256",
          "name": "",
          "type": "uint256"
        }
      ],
      "stateMutability": "view",
      "type": "function"
    },
    {
      "inputs": [
        {
          "internalType": "address",
          "name": "newOwner",
          "type": "address"
        }
      ],
      "name": "transferOwnership",
      "outputs": [],
      "stateMutability": "nonpayable",
      "type": "function"
    },
    {
      "inputs": [],
      "name": "vendorSignUpFee",
      "outputs": [
        {
          "internalType": "uint256",
          "name": "",
          "type": "uint256"
        }
      ],
      "stateMutability": "view",
      "type": "function"
    },
    {
      "stateMutability": "payable",
      "type": "receive"
    }
  ],
  "bytecode": "0x6080604052612710600355600060045560056007556103e86008557fffffffffffffffffffffffffffffffffffffffffffffffffffffffffffffffff6009556000600a5560405162005ab538038062005ab58339818101604052810190620000689190620001f5565b620000886200007c6200011260201b60201c565b6200011a60201b60201c565b81600260006101000a81548173ffffffffffffffffffffffffffffffffffffffff021916908373ffffffffffffffffffffffffffffffffffffffff16021790555080600b60006101000a81548173ffffffffffffffffffffffffffffffffffffffff021916908373ffffffffffffffffffffffffffffffffffffffff16021790555050506200028f565b600033905090565b60008060009054906101000a900473ffffffffffffffffffffffffffffffffffffffff169050816000806101000a81548173ffffffffffffffffffffffffffffffffffffffff021916908373ffffffffffffffffffffffffffffffffffffffff1602179055508173ffffffffffffffffffffffffffffffffffffffff168173ffffffffffffffffffffffffffffffffffffffff167f8be0079c531659141344cd1fd0a4f28419497f9722a3daafe3b4186f6b6457e060405160405180910390a35050565b600081519050620001ef8162000275565b92915050565b600080604083850312156200020f576200020e62000270565b5b60006200021f85828601620001de565b92505060206200023285828601620001de565b9150509250929050565b6000620002498262000250565b9050919050565b600073ffffffffffffffffffffffffffffffffffffffff82169050919050565b600080fd5b62000280816200023c565b81146200028c57600080fd5b50565b615816806200029f6000396000f3fe6080604052600436106102555760003560e01c80636207d54111610139578063a98f25b5116100b6578063c9a68f261161007a578063c9a68f26146109e2578063e8a2119314610a1f578063ea8ade9314610a4f578063ee54d54f14610a8c578063f2fde38b14610ac9578063f6326fb314610af25761025c565b8063a98f25b5146108c3578063af93c6ad14610900578063b04101a61461093d578063c6c42bb914610968578063c88e7954146109a55761025c565b80637718be35116100fd5780637718be35146107fd5780638da5cb5b146108285780639428e8b614610853578063960ee6461461087c578063984d2419146108985761025c565b80636207d541146107165780636334101a1461074157806368a7f16a1461076c578063715018a6146107a957806373f9733d146107c05761025c565b806334fcf437116101d25780634b488dce116101965780634b488dce146105ac5780634de0da69146105e95780634e3fc3a214610619578063534627411461065657806354b622c9146106935780635ebba8f9146106d05761025c565b806334fcf4371461048d57806339a3adeb146104ca5780633c527f3114610507578063454f98e314610544578063498e76a0146105815761025c565b806321980f461161021957806321980f46146103805780632c4e722e146103bd5780632cc64ebf146103e85780632dd5aa10146104255780633082538f146104625761025c565b806309334db6146102615780630b73b7fb1461029e57806313b97d79146102db578063177c6fd61461030657806320853b28146103435761025c565b3661025c57005b600080fd5b34801561026d57600080fd5b50610288600480360381019061028391906143bb565b610b10565b6040516102959190614d0a565b60405180910390f35b3480156102aa57600080fd5b506102c560048036038101906102c091906145c5565b610b30565b6040516102d29190614d0a565b60405180910390f35b3480156102e757600080fd5b506102f0610c40565b6040516102fd9190614ff9565b60405180910390f35b34801561031257600080fd5b5061032d6004803603810190610328919061460e565b610c4d565b60405161033a9190614d0a565b60405180910390f35b34801561034f57600080fd5b5061036a600480360381019061036591906143bb565b610dd7565b6040516103779190614d0a565b60405180910390f35b34801561038c57600080fd5b506103a760048036038101906103a291906145c5565b610e2d565b6040516103b49190614d0a565b60405180910390f35b3480156103c957600080fd5b506103d2610f3d565b6040516103df9190614ff9565b60405180910390f35b3480156103f457600080fd5b5061040f600480360381019061040a9190614455565b610f43565b60405161041c9190614ff9565b60405180910390f35b34801561043157600080fd5b5061044c600480360381019061044791906143bb565b610fda565b6040516104599190614ff9565b60405180910390f35b34801561046e57600080fd5b50610477611023565b6040516104849190614ff9565b60405180910390f35b34801561049957600080fd5b506104b460048036038101906104af91906146cf565b611029565b6040516104c19190614d0a565b60405180910390f35b3480156104d657600080fd5b506104f160048036038101906104ec91906145c5565b611043565b6040516104fe9190614d0a565b60405180910390f35b34801561051357600080fd5b5061052e600480360381019061052991906143bb565b611153565b60405161053b9190614d25565b60405180910390f35b34801561055057600080fd5b5061056b600480360381019061056691906146cf565b611249565b6040516105789190614d0a565b60405180910390f35b34801561058d57600080fd5b50610596611263565b6040516105a39190614ff9565b60405180910390f35b3480156105b857600080fd5b506105d360048036038101906105ce9190614598565b611269565b6040516105e09190614d0a565b60405180910390f35b61060360048036038101906105fe9190614686565b6112bd565b6040516106109190614d0a565b60405180910390f35b34801561062557600080fd5b50610640600480360381019061063b9190614455565b6118c8565b60405161064d9190614d0a565b60405180910390f35b34801561066257600080fd5b5061067d60048036038101906106789190614455565b611a02565b60405161068a9190614ff9565b60405180910390f35b34801561069f57600080fd5b506106ba60048036038101906106b591906143bb565b611a96565b6040516106c79190614d0a565b60405180910390f35b3480156106dc57600080fd5b506106f760048036038101906106f291906146cf565b611ec2565b60405161070d9a99989796959493929190614c14565b60405180910390f35b34801561072257600080fd5b5061072b61231e565b6040516107389190614ac9565b60405180910390f35b34801561074d57600080fd5b50610756612344565b6040516107639190614ff9565b60405180910390f35b34801561077857600080fd5b50610793600480360381019061078e91906145c5565b61234a565b6040516107a09190614d0a565b60405180910390f35b3480156107b557600080fd5b506107be61245a565b005b3480156107cc57600080fd5b506107e760048036038101906107e29190614482565b61246e565b6040516107f49190614ff9565b60405180910390f35b34801561080957600080fd5b50610812612503565b60405161081f9190614ff9565b60405180910390f35b34801561083457600080fd5b5061083d612509565b60405161084a9190614ac9565b60405180910390f35b34801561085f57600080fd5b5061087a600480360381019061087591906143bb565b612532565b005b610896600480360381019061089191906144c2565b61257e565b005b3480156108a457600080fd5b506108ad612fbb565b6040516108ba9190614ac9565b60405180910390f35b3480156108cf57600080fd5b506108ea60048036038101906108e591906146cf565b612fe5565b6040516108f79190614d0a565b60405180910390f35b34801561090c57600080fd5b50610927600480360381019061092291906143e8565b612fff565b6040516109349190614d0a565b60405180910390f35b34801561094957600080fd5b506109526130f2565b60405161095f9190614ff9565b60405180910390f35b34801561097457600080fd5b5061098f600480360381019061098a91906143bb565b6130f8565b60405161099c9190614d0a565b60405180910390f35b3480156109b157600080fd5b506109cc60048036038101906109c791906143bb565b61314e565b6040516109d99190614ff9565b60405180910390f35b3480156109ee57600080fd5b50610a096004803603810190610a0491906145c5565b613166565b604051610a169190614d0a565b60405180910390f35b610a396004803603810190610a349190614729565b613276565b604051610a469190614d0a565b60405180910390f35b348015610a5b57600080fd5b50610a766004803603810190610a7191906143bb565b613a41565b604051610a839190614d0a565b60405180910390f35b348015610a9857600080fd5b50610ab36004803603810190610aae91906143bb565b613a95565b604051610ac09190614d0a565b60405180910390f35b348015610ad557600080fd5b50610af06004803603810190610aeb91906143bb565b613ab5565b005b610afa613b39565b604051610b079190614d0a565b60405180910390f35b600d6020528060005260406000206000915054906101000a900460ff1681565b6000600c60003373ffffffffffffffffffffffffffffffffffffffff1673ffffffffffffffffffffffffffffffffffffffff16815260200190815260200160002060009054906101000a900460ff16610bbe576040517f08c379a0000000000000000000000000000000000000000000000000000000008152600401610bb590614eb9565b60405180910390fd5b816005600e60003373ffffffffffffffffffffffffffffffffffffffff1673ffffffffffffffffffffffffffffffffffffffff1681526020019081526020016000205481548110610c1257610c11615391565b5b90600052602060002090600a02016006019080519060200190610c36929190613efe565b5060019050919050565b6000600580549050905090565b6000600c60003373ffffffffffffffffffffffffffffffffffffffff1673ffffffffffffffffffffffffffffffffffffffff16815260200190815260200160002060009054906101000a900460ff16610cdb576040517f08c379a0000000000000000000000000000000000000000000000000000000008152600401610cd290614eb9565b60405180910390fd5b826005600e60003373ffffffffffffffffffffffffffffffffffffffff1673ffffffffffffffffffffffffffffffffffffffff1681526020019081526020016000205481548110610d2f57610d2e615391565b5b90600052602060002090600a02016004019080519060200190610d53929190613efe565b50816005600e60003373ffffffffffffffffffffffffffffffffffffffff1673ffffffffffffffffffffffffffffffffffffffff1681526020019081526020016000205481548110610da857610da7615391565b5b90600052602060002090600a02016005019080519060200190610dcc929190613efe565b506001905092915050565b6000600c60008373ffffffffffffffffffffffffffffffffffffffff1673ffffffffffffffffffffffffffffffffffffffff16815260200190815260200160002060009054906101000a900460ff169050919050565b6000600c60003373ffffffffffffffffffffffffffffffffffffffff1673ffffffffffffffffffffffffffffffffffffffff16815260200190815260200160002060009054906101000a900460ff16610ebb576040517f08c379a0000000000000000000000000000000000000000000000000000000008152600401610eb290614eb9565b60405180910390fd5b816005600e60003373ffffffffffffffffffffffffffffffffffffffff1673ffffffffffffffffffffffffffffffffffffffff1681526020019081526020016000205481548110610f0f57610f0e615391565b5b90600052602060002090600a02016002019080519060200190610f33929190613efe565b5060019050919050565b60075481565b6000808290508073ffffffffffffffffffffffffffffffffffffffff166370a08231306040518263ffffffff1660e01b8152600401610f829190614ac9565b60206040518083038186803b158015610f9a57600080fd5b505afa158015610fae573d6000803e3d6000fd5b505050506040513d601f19601f82011682018060405250810190610fd291906146fc565b915050919050565b6000600e60008373ffffffffffffffffffffffffffffffffffffffff1673ffffffffffffffffffffffffffffffffffffffff168152602001908152602001600020549050919050565b60035481565b6000611033613bc5565b8160078190555060019050919050565b6000600c60003373ffffffffffffffffffffffffffffffffffffffff1673ffffffffffffffffffffffffffffffffffffffff16815260200190815260200160002060009054906101000a900460ff166110d1576040517f08c379a00000000000000000000000000000000000000000000000000000000081526004016110c890614eb9565b60405180910390fd5b816005600e60003373ffffffffffffffffffffffffffffffffffffffff1673ffffffffffffffffffffffffffffffffffffffff168152602001908152602001600020548154811061112557611124615391565b5b90600052602060002090600a02016007019080519060200190611149929190613efe565b5060019050919050565b60606005600e60008473ffffffffffffffffffffffffffffffffffffffff1673ffffffffffffffffffffffffffffffffffffffff16815260200190815260200160002054815481106111a8576111a7615391565b5b90600052602060002090600a020160020180546111c490615258565b80601f01602080910402602001604051908101604052809291908181526020018280546111f090615258565b801561123d5780601f106112125761010080835404028352916020019161123d565b820191906000526020600020905b81548152906001019060200180831161122057829003601f168201915b50505050509050919050565b6000611253613bc5565b81600a8190555060019050919050565b60085481565b6000611273613bc5565b81600160006101000a81548173ffffffffffffffffffffffffffffffffffffffff021916908373ffffffffffffffffffffffffffffffffffffffff16021790555060019050919050565b6000600a54341015611304576040517f08c379a00000000000000000000000000000000000000000000000000000000081526004016112fb90614ed9565b60405180910390fd5b600c6000836000015173ffffffffffffffffffffffffffffffffffffffff1673ffffffffffffffffffffffffffffffffffffffff16815260200190815260200160002060009054906101000a900460ff1615611395576040517f08c379a000000000000000000000000000000000000000000000000000000000815260040161138c90614df9565b60405180910390fd5b600c6000836000015173ffffffffffffffffffffffffffffffffffffffff1673ffffffffffffffffffffffffffffffffffffffff16815260200190815260200160002060009054906101000a900460ff1615600c6000846000015173ffffffffffffffffffffffffffffffffffffffff1673ffffffffffffffffffffffffffffffffffffffff16815260200190815260200160002060006101000a81548160ff021916908315150217905550600454600e6000846000015173ffffffffffffffffffffffffffffffffffffffff1673ffffffffffffffffffffffffffffffffffffffff168152602001908152602001600020819055506005604051806101400160405280846000015173ffffffffffffffffffffffffffffffffffffffff168152602001846020015181526020018460c0015181526020018460e0015181526020018461010001518152602001846101200151815260200184610140015181526020018461016001518152602001600e60003373ffffffffffffffffffffffffffffffffffffffff1673ffffffffffffffffffffffffffffffffffffffff16815260200190815260200160002054815260200184610180015173ffffffffffffffffffffffffffffffffffffffff1681525090806001815401808255809150506001900390600052602060002090600a020160009091909190915060008201518160000160006101000a81548173ffffffffffffffffffffffffffffffffffffffff021916908373ffffffffffffffffffffffffffffffffffffffff16021790555060208201518160010190805190602001906115f3929190613efe565b506040820151816002019080519060200190611610929190613efe565b50606082015181600301908051906020019061162d929190613efe565b50608082015181600401908051906020019061164a929190613efe565b5060a0820151816005019080519060200190611667929190613efe565b5060c0820151816006019080519060200190611684929190613efe565b5060e08201518160070190805190602001906116a1929190613efe565b5061010082015181600801556101208201518160090160006101000a81548173ffffffffffffffffffffffffffffffffffffffff021916908373ffffffffffffffffffffffffffffffffffffffff1602179055505050600160009054906101000a900473ffffffffffffffffffffffffffffffffffffffff1673ffffffffffffffffffffffffffffffffffffffff1663fdab554183600001516040518263ffffffff1660e01b81526004016117569190614ac9565b602060405180830381600087803b15801561177057600080fd5b505af1158015611784573d6000803e3d6000fd5b505050506040513d601f19601f820116820180604052508101906117a89190614428565b507f8fae7acf0841962f499918aefc7b550b64859bd36340e7d8310b8a76661495a2826000015183602001518460400151856060015186608001518760a001518860c001516040516118009796959493929190614b7b565b60405180910390a17f58f5d906b024b0c9c163d1e1cf6f3a884384b24e01774cd6b96c044071e4a4238260e00151836101000151846101200151856101400151866101600151600e60003373ffffffffffffffffffffffffffffffffffffffff1673ffffffffffffffffffffffffffffffffffffffff1681526020019081526020016000205488610180015160405161189f9796959493929190614d47565b60405180910390a1600460008154809291906118ba906152bb565b919050555060019050919050565b6000600c60003373ffffffffffffffffffffffffffffffffffffffff1673ffffffffffffffffffffffffffffffffffffffff16815260200190815260200160002060009054906101000a900460ff16611956576040517f08c379a000000000000000000000000000000000000000000000000000000000815260040161194d90614eb9565b60405180910390fd5b816005600e60003373ffffffffffffffffffffffffffffffffffffffff1673ffffffffffffffffffffffffffffffffffffffff16815260200190815260200160002054815481106119aa576119a9615391565b5b90600052602060002090600a020160090160006101000a81548173ffffffffffffffffffffffffffffffffffffffff021916908373ffffffffffffffffffffffffffffffffffffffff16021790555060019050919050565b60008173ffffffffffffffffffffffffffffffffffffffff1663dd62ed3e33306040518363ffffffff1660e01b8152600401611a3f929190614ae4565b60206040518083038186803b158015611a5757600080fd5b505afa158015611a6b573d6000803e3d6000fd5b505050506040513d601f19601f82011682018060405250810190611a8f91906146fc565b9050919050565b60008173ffffffffffffffffffffffffffffffffffffffff163373ffffffffffffffffffffffffffffffffffffffff1614611b06576040517f08c379a0000000000000000000000000000000000000000000000000000000008152600401611afd90614e79565b60405180910390fd5b600c60008373ffffffffffffffffffffffffffffffffffffffff1673ffffffffffffffffffffffffffffffffffffffff16815260200190815260200160002060009054906101000a900460ff16611b92576040517f08c379a0000000000000000000000000000000000000000000000000000000008152600401611b8990614f59565b60405180910390fd5b6000600160009054906101000a900473ffffffffffffffffffffffffffffffffffffffff1673ffffffffffffffffffffffffffffffffffffffff1663acaf210f846040518263ffffffff1660e01b8152600401611bef9190614ac9565b60206040518083038186803b158015611c0757600080fd5b505afa158015611c1b573d6000803e3d6000fd5b505050506040513d601f19601f82011682018060405250810190611c3f91906146fc565b1115611cf457600160009054906101000a900473ffffffffffffffffffffffffffffffffffffffff1673ffffffffffffffffffffffffffffffffffffffff1663cc60fd5c836040518263ffffffff1660e01b8152600401611ca09190614ac9565b602060405180830381600087803b158015611cba57600080fd5b505af1158015611cce573d6000803e3d6000fd5b505050506040513d601f19601f82011682018060405250810190611cf29190614428565b505b6000600c60008473ffffffffffffffffffffffffffffffffffffffff1673ffffffffffffffffffffffffffffffffffffffff16815260200190815260200160002060006101000a81548160ff0219169083151502179055506005600e60008473ffffffffffffffffffffffffffffffffffffffff1673ffffffffffffffffffffffffffffffffffffffff1681526020019081526020016000205481548110611d9f57611d9e615391565b5b90600052602060002090600a0201600080820160006101000a81549073ffffffffffffffffffffffffffffffffffffffff0219169055600182016000611de59190613f84565b600282016000611df59190613f84565b600382016000611e059190613f84565b600482016000611e159190613f84565b600582016000611e259190613f84565b600682016000611e359190613f84565b600782016000611e459190613f84565b60088201600090556009820160006101000a81549073ffffffffffffffffffffffffffffffffffffffff02191690555050600e60008373ffffffffffffffffffffffffffffffffffffffff1673ffffffffffffffffffffffffffffffffffffffff1681526020019081526020016000206000905560019050919050565b60058181548110611ed257600080fd5b90600052602060002090600a02016000915090508060000160009054906101000a900473ffffffffffffffffffffffffffffffffffffffff1690806001018054611f1b90615258565b80601f0160208091040260200160405190810160405280929190818152602001828054611f4790615258565b8015611f945780601f10611f6957610100808354040283529160200191611f94565b820191906000526020600020905b815481529060010190602001808311611f7757829003601f168201915b505050505090806002018054611fa990615258565b80601f0160208091040260200160405190810160405280929190818152602001828054611fd590615258565b80156120225780601f10611ff757610100808354040283529160200191612022565b820191906000526020600020905b81548152906001019060200180831161200557829003601f168201915b50505050509080600301805461203790615258565b80601f016020809104026020016040519081016040528092919081815260200182805461206390615258565b80156120b05780601f10612085576101008083540402835291602001916120b0565b820191906000526020600020905b81548152906001019060200180831161209357829003601f168201915b5050505050908060040180546120c590615258565b80601f01602080910402602001604051908101604052809291908181526020018280546120f190615258565b801561213e5780601f106121135761010080835404028352916020019161213e565b820191906000526020600020905b81548152906001019060200180831161212157829003601f168201915b50505050509080600501805461215390615258565b80601f016020809104026020016040519081016040528092919081815260200182805461217f90615258565b80156121cc5780601f106121a1576101008083540402835291602001916121cc565b820191906000526020600020905b8154815290600101906020018083116121af57829003601f168201915b5050505050908060060180546121e190615258565b80601f016020809104026020016040519081016040528092919081815260200182805461220d90615258565b801561225a5780601f1061222f5761010080835404028352916020019161225a565b820191906000526020600020905b81548152906001019060200180831161223d57829003601f168201915b50505050509080600701805461226f90615258565b80601f016020809104026020016040519081016040528092919081815260200182805461229b90615258565b80156122e85780601f106122bd576101008083540402835291602001916122e8565b820191906000526020600020905b8154815290600101906020018083116122cb57829003601f168201915b5050505050908060080154908060090160009054906101000a900473ffffffffffffffffffffffffffffffffffffffff1690508a565b600260009054906101000a900473ffffffffffffffffffffffffffffffffffffffff1681565b60095481565b6000600c60003373ffffffffffffffffffffffffffffffffffffffff1673ffffffffffffffffffffffffffffffffffffffff16815260200190815260200160002060009054906101000a900460ff166123d8576040517f08c379a00000000000000000000000000000000000000000000000000000000081526004016123cf90614eb9565b60405180910390fd5b816005600e60003373ffffffffffffffffffffffffffffffffffffffff1673ffffffffffffffffffffffffffffffffffffffff168152602001908152602001600020548154811061242c5761242b615391565b5b90600052602060002090600a02016003019080519060200190612450929190613efe565b5060019050919050565b612462613bc5565b61246c6000613c43565b565b60008273ffffffffffffffffffffffffffffffffffffffff1663dd62ed3e33846040518363ffffffff1660e01b81526004016124ab929190614ae4565b60206040518083038186803b1580156124c357600080fd5b505afa1580156124d7573d6000803e3d6000fd5b505050506040513d601f19601f820116820180604052508101906124fb91906146fc565b905092915050565b60045481565b60008060009054906101000a900473ffffffffffffffffffffffffffffffffffffffff16905090565b61253a613bc5565b80600b60006101000a81548173ffffffffffffffffffffffffffffffffffffffff021916908373ffffffffffffffffffffffffffffffffffffffff16021790555050565b6000806000600d60008773ffffffffffffffffffffffffffffffffffffffff1673ffffffffffffffffffffffffffffffffffffffff16815260200190815260200160002060009054906101000a900460ff1615612923576000600160009054906101000a900473ffffffffffffffffffffffffffffffffffffffff1673ffffffffffffffffffffffffffffffffffffffff1663bd80c018886040518263ffffffff1660e01b81526004016126329190614ac9565b60206040518083038186803b15801561264a57600080fd5b505afa15801561265e573d6000803e3d6000fd5b505050506040513d601f19601f8201168201806040525081019061268291906146fc565b90506000600160009054906101000a900473ffffffffffffffffffffffffffffffffffffffff1673ffffffffffffffffffffffffffffffffffffffff1663acaf210f896040518263ffffffff1660e01b81526004016126e19190614ac9565b60206040518083038186803b1580156126f957600080fd5b505afa15801561270d573d6000803e3d6000fd5b505050506040513d601f19601f8201168201806040525081019061273191906146fc565b905042821180156127425750600081115b1561280357600160009054906101000a900473ffffffffffffffffffffffffffffffffffffffff1673ffffffffffffffffffffffffffffffffffffffff16639140690e89600160006040518463ffffffff1660e01b81526004016127a893929190614b44565b602060405180830381600087803b1580156127c257600080fd5b505af11580156127d6573d6000803e3d6000fd5b505050506040513d601f19601f820116820180604052508101906127fa9190614428565b5088925061291c565b600160009054906101000a900473ffffffffffffffffffffffffffffffffffffffff1673ffffffffffffffffffffffffffffffffffffffff1663cc60fd5c896040518263ffffffff1660e01b815260040161285e9190614ac9565b602060405180830381600087803b15801561287857600080fd5b505af115801561288c573d6000803e3d6000fd5b505050506040513d601f19601f820116820180604052508101906128b09190614428565b6128ef576040517f08c379a00000000000000000000000000000000000000000000000000000000081526004016128e690614fb9565b60405180910390fd5b6003546007548a61290091906150c2565b61290a9190615091565b94506129168986613d07565b93508392505b5050612950565b6003546007548861293491906150c2565b61293e9190615091565b925061294a8784613d07565b91508190505b6000341115612a3557600b60009054906101000a900473ffffffffffffffffffffffffffffffffffffffff1673ffffffffffffffffffffffffffffffffffffffff168c73ffffffffffffffffffffffffffffffffffffffff16146129e9576040517f08c379a00000000000000000000000000000000000000000000000000000000081526004016129e090614e59565b60405180910390fd5b6129f1613b39565b612a30576040517f08c379a0000000000000000000000000000000000000000000000000000000008152600401612a2790614e39565b60405180910390fd5b612ac6565b8b73ffffffffffffffffffffffffffffffffffffffff166323b872dd33308b6040518463ffffffff1660e01b8152600401612a7293929190614b0d565b602060405180830381600087803b158015612a8c57600080fd5b505af1158015612aa0573d6000803e3d6000fd5b505050506040513d601f19601f82011682018060405250810190612ac49190614428565b505b8b73ffffffffffffffffffffffffffffffffffffffff1663095ea7b38b8a6040518363ffffffff1660e01b8152600401612b01929190614ce1565b602060405180830381600087803b158015612b1b57600080fd5b505af1158015612b2f573d6000803e3d6000fd5b505050506040513d601f19601f82011682018060405250810190612b539190614428565b612b92576040517f08c379a0000000000000000000000000000000000000000000000000000000008152600401612b8990614f99565b60405180910390fd5b878c73ffffffffffffffffffffffffffffffffffffffff166370a08231306040518263ffffffff1660e01b8152600401612bcc9190614ac9565b60206040518083038186803b158015612be457600080fd5b505afa158015612bf8573d6000803e3d6000fd5b505050506040513d601f19601f82011682018060405250810190612c1c91906146fc565b1015612c5d576040517f08c379a0000000000000000000000000000000000000000000000000000000008152600401612c5490614dd9565b60405180910390fd5b60008973ffffffffffffffffffffffffffffffffffffffff16348787604051612c87929190614a9b565b60006040518083038185875af1925050503d8060008114612cc4576040519150601f19603f3d011682016040523d82523d6000602084013e612cc9565b606091505b5050905080612d0d576040517f08c379a0000000000000000000000000000000000000000000000000000000008152600401612d0490614fd9565b60405180910390fd5b6000841115612dc7578b73ffffffffffffffffffffffffffffffffffffffff1663a9059cbb600260009054906101000a900473ffffffffffffffffffffffffffffffffffffffff16866040518363ffffffff1660e01b8152600401612d73929190614ce1565b602060405180830381600087803b158015612d8d57600080fd5b505af1158015612da1573d6000803e3d6000fd5b505050506040513d601f19601f82011682018060405250810190612dc59190614428565b505b8b73ffffffffffffffffffffffffffffffffffffffff1663a9059cbb88846040518363ffffffff1660e01b8152600401612e02929190614ce1565b602060405180830381600087803b158015612e1c57600080fd5b505af1158015612e30573d6000803e3d6000fd5b505050506040513d601f19601f82011682018060405250810190612e549190614428565b5060008d73ffffffffffffffffffffffffffffffffffffffff166370a08231306040518263ffffffff1660e01b8152600401612e909190614ac9565b60206040518083038186803b158015612ea857600080fd5b505afa158015612ebc573d6000803e3d6000fd5b505050506040513d601f19601f82011682018060405250810190612ee091906146fc565b90508d73ffffffffffffffffffffffffffffffffffffffff1663a9059cbb33836040518363ffffffff1660e01b8152600401612f1d929190614ce1565b602060405180830381600087803b158015612f3757600080fd5b505af1158015612f4b573d6000803e3d6000fd5b505050506040513d601f19601f82011682018060405250810190612f6f9190614428565b507f9def4e2802183d68ce90a6a226a2962b59298616c27165f12c4fbc5c84cdd778338985604051612fa393929190614b0d565b60405180910390a15050505050505050505050505050565b6000600260009054906101000a900473ffffffffffffffffffffffffffffffffffffffff16905090565b6000612fef613bc5565b8160088190555060019050919050565b6000600160009054906101000a900473ffffffffffffffffffffffffffffffffffffffff1673ffffffffffffffffffffffffffffffffffffffff163373ffffffffffffffffffffffffffffffffffffffff1614613091576040517f08c379a000000000000000000000000000000000000000000000000000000000815260040161308890614f39565b60405180910390fd5b81600d60008573ffffffffffffffffffffffffffffffffffffffff1673ffffffffffffffffffffffffffffffffffffffff16815260200190815260200160002060006101000a81548160ff0219169083151502179055506001905092915050565b600a5481565b6000600d60008373ffffffffffffffffffffffffffffffffffffffff1673ffffffffffffffffffffffffffffffffffffffff16815260200190815260200160002060009054906101000a900460ff169050919050565b600e6020528060005260406000206000915090505481565b6000600c60003373ffffffffffffffffffffffffffffffffffffffff1673ffffffffffffffffffffffffffffffffffffffff16815260200190815260200160002060009054906101000a900460ff166131f4576040517f08c379a00000000000000000000000000000000000000000000000000000000081526004016131eb90614eb9565b60405180910390fd5b816005600e60003373ffffffffffffffffffffffffffffffffffffffff1673ffffffffffffffffffffffffffffffffffffffff168152602001908152602001600020548154811061324857613247615391565b5b90600052602060002090600a0201600101908051906020019061326c929190613efe565b5060019050919050565b600080600080600d60008773ffffffffffffffffffffffffffffffffffffffff1673ffffffffffffffffffffffffffffffffffffffff16815260200190815260200160002060009054906101000a900460ff161561361c576000600160009054906101000a900473ffffffffffffffffffffffffffffffffffffffff1673ffffffffffffffffffffffffffffffffffffffff1663bd80c018886040518263ffffffff1660e01b815260040161332b9190614ac9565b60206040518083038186803b15801561334357600080fd5b505afa158015613357573d6000803e3d6000fd5b505050506040513d601f19601f8201168201806040525081019061337b91906146fc565b90506000600160009054906101000a900473ffffffffffffffffffffffffffffffffffffffff1673ffffffffffffffffffffffffffffffffffffffff1663acaf210f896040518263ffffffff1660e01b81526004016133da9190614ac9565b60206040518083038186803b1580156133f257600080fd5b505afa158015613406573d6000803e3d6000fd5b505050506040513d601f19601f8201168201806040525081019061342a91906146fc565b9050428211801561343b5750600081115b156134fc57600160009054906101000a900473ffffffffffffffffffffffffffffffffffffffff1673ffffffffffffffffffffffffffffffffffffffff16639140690e89600160006040518463ffffffff1660e01b81526004016134a193929190614b44565b602060405180830381600087803b1580156134bb57600080fd5b505af11580156134cf573d6000803e3d6000fd5b505050506040513d601f19601f820116820180604052508101906134f39190614428565b50889250613615565b600160009054906101000a900473ffffffffffffffffffffffffffffffffffffffff1673ffffffffffffffffffffffffffffffffffffffff1663cc60fd5c896040518263ffffffff1660e01b81526004016135579190614ac9565b602060405180830381600087803b15801561357157600080fd5b505af1158015613585573d6000803e3d6000fd5b505050506040513d601f19601f820116820180604052508101906135a99190614428565b6135e8576040517f08c379a00000000000000000000000000000000000000000000000000000000081526004016135df90614ef9565b60405180910390fd5b6003546007548a6135f991906150c2565b6136039190615091565b945061360f8986613d07565b93508392505b5050613649565b6003546007548861362d91906150c2565b6136379190615091565b92506136438784613d07565b91508190505b60003411156137c25760008311156137095760008673ffffffffffffffffffffffffffffffffffffffff168460405161368190614ab4565b60006040518083038185875af1925050503d80600081146136be576040519150601f19603f3d011682016040523d82523d6000602084013e6136c3565b606091505b5050905080613707576040517f08c379a00000000000000000000000000000000000000000000000000000000081526004016136fe90614e99565b60405180910390fd5b505b60008673ffffffffffffffffffffffffffffffffffffffff168260405161372f90614ab4565b60006040518083038185875af1925050503d806000811461376c576040519150601f19603f3d011682016040523d82523d6000602084013e613771565b606091505b50509050806137b5576040517f08c379a00000000000000000000000000000000000000000000000000000000081526004016137ac90614e99565b60405180910390fd5b6001945050505050613a3a565b60008590506137d081611a02565b881115613812576040517f08c379a000000000000000000000000000000000000000000000000000000000815260040161380990614f19565b60405180910390fd5b8073ffffffffffffffffffffffffffffffffffffffff166323b872dd33308b6040518463ffffffff1660e01b815260040161384f93929190614b0d565b602060405180830381600087803b15801561386957600080fd5b505af115801561387d573d6000803e3d6000fd5b505050506040513d601f19601f820116820180604052508101906138a19190614428565b506138ad828883613d1d565b5060008411156139f65760008173ffffffffffffffffffffffffffffffffffffffff166370a08231306040518263ffffffff1660e01b81526004016138f29190614ac9565b60206040518083038186803b15801561390a57600080fd5b505afa15801561391e573d6000803e3d6000fd5b505050506040513d601f19601f8201168201806040525081019061394291906146fc565b90508173ffffffffffffffffffffffffffffffffffffffff1663a9059cbb600260009054906101000a900473ffffffffffffffffffffffffffffffffffffffff16836040518363ffffffff1660e01b81526004016139a1929190614ce1565b602060405180830381600087803b1580156139bb57600080fd5b505af11580156139cf573d6000803e3d6000fd5b505050506040513d601f19601f820116820180604052508101906139f39190614428565b50505b7f9def4e2802183d68ce90a6a226a2962b59298616c27165f12c4fbc5c84cdd778338884604051613a2993929190614b0d565b60405180910390a160019450505050505b9392505050565b6000613a4b613bc5565b81600260006101000a81548173ffffffffffffffffffffffffffffffffffffffff021916908373ffffffffffffffffffffffffffffffffffffffff16021790555060019050919050565b600c6020528060005260406000206000915054906101000a900460ff1681565b613abd613bc5565b600073ffffffffffffffffffffffffffffffffffffffff168173ffffffffffffffffffffffffffffffffffffffff161415613b2d576040517f08c379a0000000000000000000000000000000000000000000000000000000008152600401613b2490614e19565b60405180910390fd5b613b3681613c43565b50565b6000600b60009054906101000a900473ffffffffffffffffffffffffffffffffffffffff1673ffffffffffffffffffffffffffffffffffffffff1663d0e30db0346040518263ffffffff1660e01b81526004016000604051808303818588803b158015613ba557600080fd5b505af1158015613bb9573d6000803e3d6000fd5b50505050506001905090565b613bcd613ef6565b73ffffffffffffffffffffffffffffffffffffffff16613beb612509565b73ffffffffffffffffffffffffffffffffffffffff1614613c41576040517f08c379a0000000000000000000000000000000000000000000000000000000008152600401613c3890614f79565b60405180910390fd5b565b60008060009054906101000a900473ffffffffffffffffffffffffffffffffffffffff169050816000806101000a81548173ffffffffffffffffffffffffffffffffffffffff021916908373ffffffffffffffffffffffffffffffffffffffff1602179055508173ffffffffffffffffffffffffffffffffffffffff168173ffffffffffffffffffffffffffffffffffffffff167f8be0079c531659141344cd1fd0a4f28419497f9722a3daafe3b4186f6b6457e060405160405180910390a35050565b60008183613d15919061511c565b905092915050565b60008173ffffffffffffffffffffffffffffffffffffffff1663a9059cbb84866040518363ffffffff1660e01b8152600401613d5a929190614ce1565b602060405180830381600087803b158015613d7457600080fd5b505af1158015613d88573d6000803e3d6000fd5b505050506040513d601f19601f82011682018060405250810190613dac9190614428565b5060008273ffffffffffffffffffffffffffffffffffffffff166370a08231306040518263ffffffff1660e01b8152600401613de89190614ac9565b60206040518083038186803b158015613e0057600080fd5b505afa158015613e14573d6000803e3d6000fd5b505050506040513d601f19601f82011682018060405250810190613e3891906146fc565b90508273ffffffffffffffffffffffffffffffffffffffff1663a9059cbb600260009054906101000a900473ffffffffffffffffffffffffffffffffffffffff16836040518363ffffffff1660e01b8152600401613e97929190614ce1565b602060405180830381600087803b158015613eb157600080fd5b505af1158015613ec5573d6000803e3d6000fd5b505050506040513d601f19601f82011682018060405250810190613ee99190614428565b5060019150509392505050565b600033905090565b828054613f0a90615258565b90600052602060002090601f016020900481019282613f2c5760008555613f73565b82601f10613f4557805160ff1916838001178555613f73565b82800160010185558215613f73579182015b82811115613f72578251825591602001919060010190613f57565b5b509050613f809190613fc4565b5090565b508054613f9090615258565b6000825580601f10613fa25750613fc1565b601f016020900490600052602060002090810190613fc09190613fc4565b5b50565b5b80821115613fdd576000816000905550600101613fc5565b5090565b6000613ff4613fef84615039565b615014565b9050828152602081018484840111156140105761400f615408565b5b61401b848285615216565b509392505050565b60008135905061403281615756565b92915050565b6000813590506140478161576d565b92915050565b60008135905061405c81615784565b92915050565b60008151905061407181615784565b92915050565b60008083601f84011261408d5761408c6153f4565b5b8235905067ffffffffffffffff8111156140aa576140a96153ef565b5b6020830191508360018202830111156140c6576140c5615403565b5b9250929050565b6000813590506140dc8161579b565b92915050565b6000813590506140f1816157b2565b92915050565b600082601f83011261410c5761410b6153f4565b5b813561411c848260208601613fe1565b91505092915050565b60006101a0828403121561413c5761413b6153f9565b5b6141476101a0615014565b9050600061415784828501614023565b600083015250602082013567ffffffffffffffff81111561417b5761417a6153fe565b5b614187848285016140f7565b602083015250604082013567ffffffffffffffff8111156141ab576141aa6153fe565b5b6141b7848285016140f7565b604083015250606082013567ffffffffffffffff8111156141db576141da6153fe565b5b6141e7848285016140f7565b606083015250608082013567ffffffffffffffff81111561420b5761420a6153fe565b5b614217848285016140f7565b60808301525060a082013567ffffffffffffffff81111561423b5761423a6153fe565b5b614247848285016140f7565b60a08301525060c082013567ffffffffffffffff81111561426b5761426a6153fe565b5b614277848285016140f7565b60c08301525060e082013567ffffffffffffffff81111561429b5761429a6153fe565b5b6142a7848285016140f7565b60e08301525061010082013567ffffffffffffffff8111156142cc576142cb6153fe565b5b6142d8848285016140f7565b6101008301525061012082013567ffffffffffffffff8111156142fe576142fd6153fe565b5b61430a848285016140f7565b6101208301525061014082013567ffffffffffffffff8111156143305761432f6153fe565b5b61433c848285016140f7565b6101408301525061016082013567ffffffffffffffff811115614362576143616153fe565b5b61436e848285016140f7565b61016083015250610180614384848285016140cd565b6101808301525092915050565b6000813590506143a0816157c9565b92915050565b6000815190506143b5816157c9565b92915050565b6000602082840312156143d1576143d0615412565b5b60006143df84828501614023565b91505092915050565b600080604083850312156143ff576143fe615412565b5b600061440d85828601614023565b925050602061441e8582860161404d565b9150509250929050565b60006020828403121561443e5761443d615412565b5b600061444c84828501614062565b91505092915050565b60006020828403121561446b5761446a615412565b5b6000614479848285016140cd565b91505092915050565b6000806040838503121561449957614498615412565b5b60006144a7858286016140cd565b92505060206144b885828601614023565b9150509250929050565b60008060008060008060008060006101008a8c0312156144e5576144e4615412565b5b60006144f38c828d016140cd565b99505060206145048c828d016140cd565b98505060406145158c828d01614023565b97505060606145268c828d01614038565b96505060806145378c828d01614391565b95505060a06145488c828d01614391565b94505060c06145598c828d01614023565b93505060e08a013567ffffffffffffffff81111561457a5761457961540d565b5b6145868c828d01614077565b92509250509295985092959850929598565b6000602082840312156145ae576145ad615412565b5b60006145bc848285016140e2565b91505092915050565b6000602082840312156145db576145da615412565b5b600082013567ffffffffffffffff8111156145f9576145f861540d565b5b614605848285016140f7565b91505092915050565b6000806040838503121561462557614624615412565b5b600083013567ffffffffffffffff8111156146435761464261540d565b5b61464f858286016140f7565b925050602083013567ffffffffffffffff8111156146705761466f61540d565b5b61467c858286016140f7565b9150509250929050565b60006020828403121561469c5761469b615412565b5b600082013567ffffffffffffffff8111156146ba576146b961540d565b5b6146c684828501614125565b91505092915050565b6000602082840312156146e5576146e4615412565b5b60006146f384828501614391565b91505092915050565b60006020828403121561471257614711615412565b5b6000614720848285016143a6565b91505092915050565b60008060006060848603121561474257614741615412565b5b600061475086828701614391565b935050602061476186828701614023565b9250506040614772868287016140cd565b9150509250925092565b61478581615150565b82525050565b61479481615174565b82525050565b60006147a68385615075565b93506147b3838584615216565b82840190509392505050565b6147c8816151ce565b82525050565b6147d7816151e0565b82525050565b60006147e88261506a565b6147f28185615080565b9350614802818560208601615225565b61480b81615417565b840191505092915050565b6000614823601583615080565b915061482e82615428565b602082019050919050565b6000614846601a83615080565b915061485182615451565b602082019050919050565b6000614869602683615080565b91506148748261547a565b604082019050919050565b600061488c601183615080565b9150614897826154c9565b602082019050919050565b60006148af601683615080565b91506148ba826154f2565b602082019050919050565b60006148d2602083615080565b91506148dd8261551b565b602082019050919050565b60006148f5601483615080565b915061490082615544565b602082019050919050565b6000614918600e83615080565b91506149238261556d565b602082019050919050565b600061493b602283615080565b915061494682615596565b604082019050919050565b600061495e601383615080565b9150614969826155e5565b602082019050919050565b6000614981601483615080565b915061498c8261560e565b602082019050919050565b60006149a4600d83615080565b91506149af82615637565b602082019050919050565b60006149c7600c83615080565b91506149d282615660565b602082019050919050565b60006149ea602083615080565b91506149f582615689565b602082019050919050565b6000614a0d600083615075565b9150614a18826156b2565b600082019050919050565b6000614a30600f83615080565b9150614a3b826156b5565b602082019050919050565b6000614a53602d83615080565b9150614a5e826156de565b604082019050919050565b6000614a76600f83615080565b9150614a818261572d565b602082019050919050565b614a95816151c4565b82525050565b6000614aa882848661479a565b91508190509392505050565b6000614abf82614a00565b9150819050919050565b6000602082019050614ade600083018461477c565b92915050565b6000604082019050614af9600083018561477c565b614b06602083018461477c565b9392505050565b6000606082019050614b22600083018661477c565b614b2f602083018561477c565b614b3c6040830184614a8c565b949350505050565b6000606082019050614b59600083018661477c565b614b6660208301856147ce565b614b73604083018461478b565b949350505050565b600060e082019050614b90600083018a61477c565b8181036020830152614ba281896147dd565b90508181036040830152614bb681886147dd565b90508181036060830152614bca81876147dd565b90508181036080830152614bde81866147dd565b905081810360a0830152614bf281856147dd565b905081810360c0830152614c0681846147dd565b905098975050505050505050565b600061014082019050614c2a600083018d61477c565b8181036020830152614c3c818c6147dd565b90508181036040830152614c50818b6147dd565b90508181036060830152614c64818a6147dd565b90508181036080830152614c7881896147dd565b905081810360a0830152614c8c81886147dd565b905081810360c0830152614ca081876147dd565b905081810360e0830152614cb481866147dd565b9050614cc4610100830185614a8c565b614cd26101208301846147bf565b9b9a5050505050505050505050565b6000604082019050614cf6600083018561477c565b614d036020830184614a8c565b9392505050565b6000602082019050614d1f600083018461478b565b92915050565b60006020820190508181036000830152614d3f81846147dd565b905092915050565b600060e0820190508181036000830152614d61818a6147dd565b90508181036020830152614d7581896147dd565b90508181036040830152614d8981886147dd565b90508181036060830152614d9d81876147dd565b90508181036080830152614db181866147dd565b9050614dc060a0830185614a8c565b614dcd60c08301846147bf565b98975050505050505050565b60006020820190508181036000830152614df281614816565b9050919050565b60006020820190508181036000830152614e1281614839565b9050919050565b60006020820190508181036000830152614e328161485c565b9050919050565b60006020820190508181036000830152614e528161487f565b9050919050565b60006020820190508181036000830152614e72816148a2565b9050919050565b60006020820190508181036000830152614e92816148c5565b9050919050565b60006020820190508181036000830152614eb2816148e8565b9050919050565b60006020820190508181036000830152614ed28161490b565b9050919050565b60006020820190508181036000830152614ef28161492e565b9050919050565b60006020820190508181036000830152614f1281614951565b9050919050565b60006020820190508181036000830152614f3281614974565b9050919050565b60006020820190508181036000830152614f5281614997565b9050919050565b60006020820190508181036000830152614f72816149ba565b9050919050565b60006020820190508181036000830152614f92816149dd565b9050919050565b60006020820190508181036000830152614fb281614a23565b9050919050565b60006020820190508181036000830152614fd281614a46565b9050919050565b60006020820190508181036000830152614ff281614a69565b9050919050565b600060208201905061500e6000830184614a8c565b92915050565b600061501e61502f565b905061502a828261528a565b919050565b6000604051905090565b600067ffffffffffffffff821115615054576150536153c0565b5b61505d82615417565b9050602081019050919050565b600081519050919050565b600081905092915050565b600082825260208201905092915050565b600061509c826151c4565b91506150a7836151c4565b9250826150b7576150b6615333565b5b828204905092915050565b60006150cd826151c4565b91506150d8836151c4565b9250817fffffffffffffffffffffffffffffffffffffffffffffffffffffffffffffffff048311821515161561511157615110615304565b5b828202905092915050565b6000615127826151c4565b9150615132836151c4565b92508282101561514557615144615304565b5b828203905092915050565b600061515b826151a4565b9050919050565b600061516d826151a4565b9050919050565b60008115159050919050565b600061518b82615150565b9050919050565b600061519d82615150565b9050919050565b600073ffffffffffffffffffffffffffffffffffffffff82169050919050565b6000819050919050565b60006151d9826151f2565b9050919050565b60006151eb826151c4565b9050919050565b60006151fd82615204565b9050919050565b600061520f826151a4565b9050919050565b82818337600083830152505050565b60005b83811015615243578082015181840152602081019050615228565b83811115615252576000848401525b50505050565b6000600282049050600182168061527057607f821691505b6020821081141561528457615283615362565b5b50919050565b61529382615417565b810181811067ffffffffffffffff821117156152b2576152b16153c0565b5b80604052505050565b60006152c6826151c4565b91507fffffffffffffffffffffffffffffffffffffffffffffffffffffffffffffffff8214156152f9576152f8615304565b5b600182019050919050565b7f4e487b7100000000000000000000000000000000000000000000000000000000600052601160045260246000fd5b7f4e487b7100000000000000000000000000000000000000000000000000000000600052601260045260246000fd5b7f4e487b7100000000000000000000000000000000000000000000000000000000600052602260045260246000fd5b7f4e487b7100000000000000000000000000000000000000000000000000000000600052603260045260246000fd5b7f4e487b7100000000000000000000000000000000000000000000000000000000600052604160045260246000fd5b600080fd5b600080fd5b600080fd5b600080fd5b600080fd5b600080fd5b600080fd5b600080fd5b6000601f19601f8301169050919050565b7f6e617469766520746f2057455448206661696c65640000000000000000000000600082015250565b7f796f752063616e206f6e6c79207265676973746572206f6e6365000000000000600082015250565b7f4f776e61626c653a206e6577206f776e657220697320746865207a65726f206160008201527f6464726573730000000000000000000000000000000000000000000000000000602082015250565b7f6465706f7369742077696c6c206661696c000000000000000000000000000000600082015250565b7f73656c6c20746f6b656e206973206e6f74207765746800000000000000000000600082015250565b7f20796f7520646f206e6f7420686176652074686973207065726d697373696f6e600082015250565b7f4661696c656420746f2073656e64204574686572000000000000000000000000600082015250565b7f206e6f742020612056656e646f72000000000000000000000000000000000000600082015250565b7f796f75206861766520746f2070617920746f206265636f6d6520612076656e6460008201527f6f72000000000000000000000000000000000000000000000000000000000000602082015250565b7f756e73756263726962696e67206661696c656400000000000000000000000000600082015250565b7f617070726f766520656e6f75676820746f6b656e000000000000000000000000600082015250565b7f6f7574206f6620626f756e647300000000000000000000000000000000000000600082015250565b7f6e6f7420612056656e646f720000000000000000000000000000000000000000600082015250565b7f4f776e61626c653a2063616c6c6572206973206e6f7420746865206f776e6572600082015250565b50565b7f617070726f76616c206661696c65640000000000000000000000000000000000600082015250565b7f736f6d657468696e672077656e742077726f6e67207768656e20756e7375626360008201527f726962696e672076656e646f7200000000000000000000000000000000000000602082015250565b7f535741505f43414c4c5f4641494c210000000000000000000000000000000000600082015250565b61575f81615150565b811461576a57600080fd5b50565b61577681615162565b811461578157600080fd5b50565b61578d81615174565b811461579857600080fd5b50565b6157a481615180565b81146157af57600080fd5b50565b6157bb81615192565b81146157c657600080fd5b50565b6157d2816151c4565b81146157dd57600080fd5b5056fea2646970667358221220111041f3515afc39c680631f8d07dd836c5d762474ffdb2b884da3bbd6f2257964736f6c63430008070033",
  "linkReferences": {},
  "deployedLinkReferences": {}
}