{
  "_format": "hh-sol-artifact-1",
  "contractName": "UniVotingToken",
  "sourceName": "contracts/UniVotingToken.sol",
  "abi": [
    {
      "inputs": [],
      "stateMutability": "payable",
      "type": "constructor"
    },
    {
      "anonymous": false,
      "inputs": [
        {
          "indexed": true,
          "internalType": "address",
          "name": "owner",
          "type": "address"
        },
        {
          "indexed": true,
          "internalType": "address",
          "name": "spender",
          "type": "address"
        },
        {
          "indexed": false,
          "internalType": "uint256",
          "name": "value",
          "type": "uint256"
        }
      ],
      "name": "Approval",
      "type": "event"
    },
    {
      "anonymous": false,
      "inputs": [
        {
          "indexed": false,
          "internalType": "address",
          "name": "vendor",
          "type": "address"
        },
        {
          "indexed": false,
          "internalType": "uint256",
          "name": "amount",
          "type": "uint256"
        }
      ],
      "name": "Claimed",
      "type": "event"
    },
    {
      "anonymous": false,
      "inputs": [
        {
          "indexed": true,
          "internalType": "address",
          "name": "previousOwner",
          "type": "address"
        },
        {
          "indexed": true,
          "internalType": "address",
          "name": "newOwner",
          "type": "address"
        }
      ],
      "name": "OwnershipTransferred",
      "type": "event"
    },
    {
      "anonymous": false,
      "inputs": [
        {
          "indexed": true,
          "internalType": "address",
          "name": "from",
          "type": "address"
        },
        {
          "indexed": true,
          "internalType": "address",
          "name": "to",
          "type": "address"
        },
        {
          "indexed": false,
          "internalType": "uint256",
          "name": "value",
          "type": "uint256"
        }
      ],
      "name": "Transfer",
      "type": "event"
    },
    {
      "anonymous": false,
      "inputs": [
        {
          "indexed": false,
          "internalType": "address",
          "name": "voter",
          "type": "address"
        },
        {
          "indexed": false,
          "internalType": "uint256",
          "name": "amount",
          "type": "uint256"
        },
        {
          "indexed": false,
          "internalType": "address",
          "name": "vendor",
          "type": "address"
        },
        {
          "indexed": false,
          "internalType": "enum UniVotingToken.voteAction",
          "name": "action",
          "type": "uint8"
        }
      ],
      "name": "voted",
      "type": "event"
    },
    {
      "inputs": [],
      "name": "ResetContest",
      "outputs": [
        {
          "internalType": "bool",
          "name": "",
          "type": "bool"
        }
      ],
      "stateMutability": "nonpayable",
      "type": "function"
    },
    {
      "inputs": [
        {
          "internalType": "uint256",
          "name": "_ammount",
          "type": "uint256"
        },
        {
          "internalType": "enum UniVotingToken.voteAction",
          "name": "_vote",
          "type": "uint8"
        },
        {
          "internalType": "address",
          "name": "_vendor",
          "type": "address"
        }
      ],
      "name": "VoteForVendor",
      "outputs": [
        {
          "internalType": "bool",
          "name": "",
          "type": "bool"
        }
      ],
      "stateMutability": "payable",
      "type": "function"
    },
    {
      "inputs": [
        {
          "internalType": "uint256",
          "name": "",
          "type": "uint256"
        }
      ],
      "name": "VoteList",
      "outputs": [
        {
          "internalType": "uint256",
          "name": "id",
          "type": "uint256"
        },
        {
          "internalType": "uint256",
          "name": "value",
          "type": "uint256"
        },
        {
          "internalType": "address",
          "name": "voter",
          "type": "address"
        },
        {
          "internalType": "enum UniVotingToken.voteAction",
          "name": "action",
          "type": "uint8"
        },
        {
          "internalType": "address",
          "name": "vendor",
          "type": "address"
        }
      ],
      "stateMutability": "view",
      "type": "function"
    },
    {
      "inputs": [
        {
          "internalType": "uint256",
          "name": "",
          "type": "uint256"
        }
      ],
      "name": "VotedVendors",
      "outputs": [
        {
          "internalType": "address",
          "name": "",
          "type": "address"
        }
      ],
      "stateMutability": "view",
      "type": "function"
    },
    {
      "inputs": [
        {
          "internalType": "address",
          "name": "owner",
          "type": "address"
        },
        {
          "internalType": "address",
          "name": "spender",
          "type": "address"
        }
      ],
      "name": "allowance",
      "outputs": [
        {
          "internalType": "uint256",
          "name": "",
          "type": "uint256"
        }
      ],
      "stateMutability": "view",
      "type": "function"
    },
    {
      "inputs": [
        {
          "internalType": "address",
          "name": "spender",
          "type": "address"
        },
        {
          "internalType": "uint256",
          "name": "amount",
          "type": "uint256"
        }
      ],
      "name": "approve",
      "outputs": [
        {
          "internalType": "bool",
          "name": "",
          "type": "bool"
        }
      ],
      "stateMutability": "nonpayable",
      "type": "function"
    },
    {
      "inputs": [
        {
          "internalType": "address",
          "name": "account",
          "type": "address"
        }
      ],
      "name": "balanceOf",
      "outputs": [
        {
          "internalType": "uint256",
          "name": "",
          "type": "uint256"
        }
      ],
      "stateMutability": "view",
      "type": "function"
    },
    {
      "inputs": [
        {
          "internalType": "address",
          "name": "_account",
          "type": "address"
        }
      ],
      "name": "ban",
      "outputs": [
        {
          "internalType": "bool",
          "name": "",
          "type": "bool"
        }
      ],
      "stateMutability": "nonpayable",
      "type": "function"
    },
    {
      "inputs": [
        {
          "internalType": "uint256",
          "name": "amount",
          "type": "uint256"
        }
      ],
      "name": "burn",
      "outputs": [],
      "stateMutability": "nonpayable",
      "type": "function"
    },
    {
      "inputs": [
        {
          "internalType": "address",
          "name": "account",
          "type": "address"
        },
        {
          "internalType": "uint256",
          "name": "amount",
          "type": "uint256"
        }
      ],
      "name": "burnFrom",
      "outputs": [],
      "stateMutability": "nonpayable",
      "type": "function"
    },
    {
      "inputs": [
        {
          "internalType": "address",
          "name": "_vendor",
          "type": "address"
        }
      ],
      "name": "checkIsVendor",
      "outputs": [
        {
          "internalType": "bool",
          "name": "",
          "type": "bool"
        }
      ],
      "stateMutability": "view",
      "type": "function"
    },
    {
      "inputs": [
        {
          "internalType": "address",
          "name": "_account",
          "type": "address"
        }
      ],
      "name": "checkIsVoted",
      "outputs": [
        {
          "internalType": "bool",
          "name": "",
          "type": "bool"
        }
      ],
      "stateMutability": "view",
      "type": "function"
    },
    {
      "inputs": [
        {
          "internalType": "bytes",
          "name": "",
          "type": "bytes"
        }
      ],
      "name": "checkUpkeep",
      "outputs": [
        {
          "internalType": "bool",
          "name": "upkeepNeeded",
          "type": "bool"
        },
        {
          "internalType": "bytes",
          "name": "",
          "type": "bytes"
        }
      ],
      "stateMutability": "view",
      "type": "function"
    },
    {
      "inputs": [],
      "name": "decimalMultiplier",
      "outputs": [
        {
          "internalType": "uint256",
          "name": "",
          "type": "uint256"
        }
      ],
      "stateMutability": "view",
      "type": "function"
    },
    {
      "inputs": [],
      "name": "decimals",
      "outputs": [
        {
          "internalType": "uint8",
          "name": "",
          "type": "uint8"
        }
      ],
      "stateMutability": "view",
      "type": "function"
    },
    {
      "inputs": [
        {
          "internalType": "address",
          "name": "spender",
          "type": "address"
        },
        {
          "internalType": "uint256",
          "name": "subtractedValue",
          "type": "uint256"
        }
      ],
      "name": "decreaseAllowance",
      "outputs": [
        {
          "internalType": "bool",
          "name": "",
          "type": "bool"
        }
      ],
      "stateMutability": "nonpayable",
      "type": "function"
    },
    {
      "inputs": [],
      "name": "getNetTotalVotes",
      "outputs": [
        {
          "internalType": "uint256",
          "name": "",
          "type": "uint256"
        }
      ],
      "stateMutability": "view",
      "type": "function"
    },
    {
      "inputs": [],
      "name": "getTotalVotes",
      "outputs": [
        {
          "internalType": "uint256",
          "name": "",
          "type": "uint256"
        }
      ],
      "stateMutability": "view",
      "type": "function"
    },
    {
      "inputs": [
        {
          "internalType": "address",
          "name": "spender",
          "type": "address"
        },
        {
          "internalType": "uint256",
          "name": "addedValue",
          "type": "uint256"
        }
      ],
      "name": "increaseAllowance",
      "outputs": [
        {
          "internalType": "bool",
          "name": "",
          "type": "bool"
        }
      ],
      "stateMutability": "nonpayable",
      "type": "function"
    },
    {
      "inputs": [],
      "name": "interval",
      "outputs": [
        {
          "internalType": "uint256",
          "name": "",
          "type": "uint256"
        }
      ],
      "stateMutability": "view",
      "type": "function"
    },
    {
      "inputs": [
        {
          "internalType": "address",
          "name": "",
          "type": "address"
        }
      ],
      "name": "isBanned",
      "outputs": [
        {
          "internalType": "bool",
          "name": "",
          "type": "bool"
        }
      ],
      "stateMutability": "view",
      "type": "function"
    },
    {
      "inputs": [
        {
          "internalType": "address",
          "name": "",
          "type": "address"
        }
      ],
      "name": "isMySpender",
      "outputs": [
        {
          "internalType": "bool",
          "name": "",
          "type": "bool"
        }
      ],
      "stateMutability": "view",
      "type": "function"
    },
    {
      "inputs": [
        {
          "internalType": "address",
          "name": "",
          "type": "address"
        }
      ],
      "name": "isVoted",
      "outputs": [
        {
          "internalType": "bool",
          "name": "",
          "type": "bool"
        }
      ],
      "stateMutability": "view",
      "type": "function"
    },
    {
      "inputs": [],
      "name": "lastTimeStamp",
      "outputs": [
        {
          "internalType": "uint256",
          "name": "",
          "type": "uint256"
        }
      ],
      "stateMutability": "view",
      "type": "function"
    },
    {
      "inputs": [
        {
          "internalType": "address",
          "name": "_account",
          "type": "address"
        }
      ],
      "name": "mint",
      "outputs": [
        {
          "internalType": "bool",
          "name": "",
          "type": "bool"
        }
      ],
      "stateMutability": "payable",
      "type": "function"
    },
    {
      "inputs": [],
      "name": "name",
      "outputs": [
        {
          "internalType": "string",
          "name": "",
          "type": "string"
        }
      ],
      "stateMutability": "view",
      "type": "function"
    },
    {
      "inputs": [],
      "name": "owner",
      "outputs": [
        {
          "internalType": "address",
          "name": "",
          "type": "address"
        }
      ],
      "stateMutability": "view",
      "type": "function"
    },
    {
      "inputs": [
        {
          "internalType": "bytes",
          "name": "",
          "type": "bytes"
        }
      ],
      "name": "performUpkeep",
      "outputs": [],
      "stateMutability": "nonpayable",
      "type": "function"
    },
    {
      "inputs": [],
      "name": "renounceOwnership",
      "outputs": [],
      "stateMutability": "nonpayable",
      "type": "function"
    },
    {
      "inputs": [],
      "name": "rewardTreshold",
      "outputs": [
        {
          "internalType": "uint256",
          "name": "",
          "type": "uint256"
        }
      ],
      "stateMutability": "view",
      "type": "function"
    },
    {
      "inputs": [
        {
          "internalType": "uint256",
          "name": "_interval",
          "type": "uint256"
        }
      ],
      "name": "setInterval",
      "outputs": [
        {
          "internalType": "bool",
          "name": "",
          "type": "bool"
        }
      ],
      "stateMutability": "nonpayable",
      "type": "function"
    },
    {
      "inputs": [
        {
          "internalType": "uint256",
          "name": "_amount",
          "type": "uint256"
        }
      ],
      "name": "setMaxReward",
      "outputs": [
        {
          "internalType": "bool",
          "name": "",
          "type": "bool"
        }
      ],
      "stateMutability": "nonpayable",
      "type": "function"
    },
    {
      "inputs": [
        {
          "internalType": "uint256",
          "name": "_amount",
          "type": "uint256"
        }
      ],
      "name": "setRewardTreshold",
      "outputs": [
        {
          "internalType": "bool",
          "name": "",
          "type": "bool"
        }
      ],
      "stateMutability": "nonpayable",
      "type": "function"
    },
    {
      "inputs": [
        {
          "internalType": "contract ISpender",
          "name": "_spender",
          "type": "address"
        }
      ],
      "name": "setSpender",
      "outputs": [
        {
          "internalType": "bool",
          "name": "",
          "type": "bool"
        }
      ],
      "stateMutability": "nonpayable",
      "type": "function"
    },
    {
      "inputs": [],
      "name": "symbol",
      "outputs": [
        {
          "internalType": "string",
          "name": "",
          "type": "string"
        }
      ],
      "stateMutability": "view",
      "type": "function"
    },
    {
      "inputs": [],
      "name": "totalNegativeVotes",
      "outputs": [
        {
          "internalType": "uint256",
          "name": "",
          "type": "uint256"
        }
      ],
      "stateMutability": "view",
      "type": "function"
    },
    {
      "inputs": [],
      "name": "totalSupply",
      "outputs": [
        {
          "internalType": "uint256",
          "name": "",
          "type": "uint256"
        }
      ],
      "stateMutability": "view",
      "type": "function"
    },
    {
      "inputs": [],
      "name": "totalVotes",
      "outputs": [
        {
          "internalType": "uint256",
          "name": "",
          "type": "uint256"
        }
      ],
      "stateMutability": "view",
      "type": "function"
    },
    {
      "inputs": [
        {
          "internalType": "address",
          "name": "to",
          "type": "address"
        },
        {
          "internalType": "uint256",
          "name": "amount",
          "type": "uint256"
        }
      ],
      "name": "transfer",
      "outputs": [
        {
          "internalType": "bool",
          "name": "",
          "type": "bool"
        }
      ],
      "stateMutability": "nonpayable",
      "type": "function"
    },
    {
      "inputs": [
        {
          "internalType": "address",
          "name": "from",
          "type": "address"
        },
        {
          "internalType": "address",
          "name": "to",
          "type": "address"
        },
        {
          "internalType": "uint256",
          "name": "amount",
          "type": "uint256"
        }
      ],
      "name": "transferFrom",
      "outputs": [
        {
          "internalType": "bool",
          "name": "",
          "type": "bool"
        }
      ],
      "stateMutability": "nonpayable",
      "type": "function"
    },
    {
      "inputs": [
        {
          "internalType": "address",
          "name": "newOwner",
          "type": "address"
        }
      ],
      "name": "transferOwnership",
      "outputs": [],
      "stateMutability": "nonpayable",
      "type": "function"
    }
  ],
  "bytecode": "0x6080604052612710600a556109c4600b556000600c556000600d556001600e556040518060400160405280600881526020017f556e6976657273650000000000000000000000000000000000000000000000008152506040518060400160405280600381526020017f55565400000000000000000000000000000000000000000000000000000000008152508160039080519060200190620000a3929190620001ba565b508060049080519060200190620000bc929190620001ba565b505050620000df620000d3620000ec60201b60201c565b620000f460201b60201c565b42600881905550620002cf565b600033905090565b6000600560009054906101000a900473ffffffffffffffffffffffffffffffffffffffff16905081600560006101000a81548173ffffffffffffffffffffffffffffffffffffffff021916908373ffffffffffffffffffffffffffffffffffffffff1602179055508173ffffffffffffffffffffffffffffffffffffffff168173ffffffffffffffffffffffffffffffffffffffff167f8be0079c531659141344cd1fd0a4f28419497f9722a3daafe3b4186f6b6457e060405160405180910390a35050565b828054620001c8906200026a565b90600052602060002090601f016020900481019282620001ec576000855562000238565b82601f106200020757805160ff191683800117855562000238565b8280016001018555821562000238579182015b82811115620002375782518255916020019190600101906200021a565b5b5090506200024791906200024b565b5090565b5b80821115620002665760008160009055506001016200024c565b5090565b600060028204905060018216806200028357607f821691505b602082108114156200029a5762000299620002a0565b5b50919050565b7f4e487b7100000000000000000000000000000000000000000000000000000000600052602260045260246000fd5b6136f380620002df6000396000f3fe6080604052600436106102465760003560e01c80636e04ff0d11610139578063a2aa73b2116100b6578063e02b82c81161007a578063e02b82c81461093d578063ed837d161461097a578063ef34ab9f146109bb578063ef594925146109e6578063f2fde38b14610a23578063ff0fc77f14610a4c57610246565b8063a2aa73b21461080c578063a457c2d714610849578063a9059cbb14610886578063cbff75cb146108c3578063dd62ed3e1461090057610246565b8063947a36fb116100fd578063947a36fb1461071157806395d89b411461073c57806397c3ccd81461076757806397f735d5146107a45780639a0e7d66146107e157610246565b80636e04ff0d1461062b57806370a0823114610669578063715018a6146106a657806379cc6790146106bd5780638da5cb5b146106e657610246565b8063313ce567116101c7578063444392091161018b578063444392091461053f578063449b98261461057c5780634585e33b146105a75780635a8eb445146105d05780636a627842146105fb57610246565b8063313ce5671461045857806334d084fe1461048357806339509351146104ae5780633f3b3b27146104eb57806342966c681461051657610246565b806320853b281161020e57806320853b281461033957806322a900821461037657806323b872dd146103b357806325c33e13146103f05780633082538f1461042d57610246565b806306fdde031461024b578063095ea7b3146102765780630a2c514c146102b35780630d15fd77146102e357806318160ddd1461030e575b600080fd5b34801561025757600080fd5b50610260610a89565b60405161026d9190612d13565b60405180910390f35b34801561028257600080fd5b5061029d60048036038101906102989190612837565b610b1b565b6040516102aa9190612cc8565b60405180910390f35b6102cd60048036038101906102c8919061294b565b610b3e565b6040516102da9190612cc8565b60405180910390f35b3480156102ef57600080fd5b506102f8611297565b6040516103059190612f15565b60405180910390f35b34801561031a57600080fd5b5061032361129d565b6040516103309190612f15565b60405180910390f35b34801561034557600080fd5b50610360600480360381019061035b9190612777565b6112a7565b60405161036d9190612cc8565b60405180910390f35b34801561038257600080fd5b5061039d6004803603810190610398919061291e565b61135b565b6040516103aa9190612cc8565b60405180910390f35b3480156103bf57600080fd5b506103da60048036038101906103d591906127e4565b611375565b6040516103e79190612cc8565b60405180910390f35b3480156103fc57600080fd5b506104176004803603810190610412919061291e565b6113a4565b6040516104249190612cc8565b60405180910390f35b34801561043957600080fd5b506104426113be565b60405161044f9190612f15565b60405180910390f35b34801561046457600080fd5b5061046d6113c4565b60405161047a9190612f83565b60405180910390f35b34801561048f57600080fd5b506104986113cd565b6040516104a59190612f15565b60405180910390f35b3480156104ba57600080fd5b506104d560048036038101906104d09190612837565b6113e2565b6040516104e29190612cc8565b60405180910390f35b3480156104f757600080fd5b50610500611419565b60405161050d9190612f15565b60405180910390f35b34801561052257600080fd5b5061053d6004803603810190610538919061291e565b61141f565b005b34801561054b57600080fd5b50610566600480360381019061056191906128f1565b611433565b6040516105739190612cc8565b60405180910390f35b34801561058857600080fd5b5061059161152b565b60405161059e9190612f15565b60405180910390f35b3480156105b357600080fd5b506105ce60048036038101906105c991906128a4565b611531565b005b3480156105dc57600080fd5b506105e561155d565b6040516105f29190612f15565b60405180910390f35b61061560048036038101906106109190612777565b611563565b6040516106229190612cc8565b60405180910390f35b34801561063757600080fd5b50610652600480360381019061064d91906128a4565b611609565b604051610660929190612ce3565b60405180910390f35b34801561067557600080fd5b50610690600480360381019061068b9190612777565b611628565b60405161069d9190612f15565b60405180910390f35b3480156106b257600080fd5b506106bb611670565b005b3480156106c957600080fd5b506106e460048036038101906106df9190612837565b611684565b005b3480156106f257600080fd5b506106fb6116a4565b6040516107089190612c68565b60405180910390f35b34801561071d57600080fd5b506107266116ce565b6040516107339190612f15565b60405180910390f35b34801561074857600080fd5b506107516116d4565b60405161075e9190612d13565b60405180910390f35b34801561077357600080fd5b5061078e60048036038101906107899190612777565b611766565b60405161079b9190612cc8565b60405180910390f35b3480156107b057600080fd5b506107cb60048036038101906107c69190612777565b611815565b6040516107d89190612cc8565b60405180910390f35b3480156107ed57600080fd5b506107f6611835565b6040516108039190612f15565b60405180910390f35b34801561081857600080fd5b50610833600480360381019061082e9190612777565b61183f565b6040516108409190612cc8565b60405180910390f35b34801561085557600080fd5b50610870600480360381019061086b9190612837565b611895565b60405161087d9190612cc8565b60405180910390f35b34801561089257600080fd5b506108ad60048036038101906108a89190612837565b61190c565b6040516108ba9190612cc8565b60405180910390f35b3480156108cf57600080fd5b506108ea60048036038101906108e59190612777565b61192f565b6040516108f79190612cc8565b60405180910390f35b34801561090c57600080fd5b50610927600480360381019061092291906127a4565b61194f565b6040516109349190612f15565b60405180910390f35b34801561094957600080fd5b50610964600480360381019061095f9190612777565b6119d6565b6040516109719190612cc8565b60405180910390f35b34801561098657600080fd5b506109a1600480360381019061099c919061291e565b6119f6565b6040516109b2959493929190612f30565b60405180910390f35b3480156109c757600080fd5b506109d0611a89565b6040516109dd9190612cc8565b60405180910390f35b3480156109f257600080fd5b50610a0d6004803603810190610a08919061291e565b611c60565b604051610a1a9190612c68565b60405180910390f35b348015610a2f57600080fd5b50610a4a6004803603810190610a459190612777565b611c9f565b005b348015610a5857600080fd5b50610a736004803603810190610a6e919061291e565b611d23565b604051610a809190612cc8565b60405180910390f35b606060038054610a989061311f565b80601f0160208091040260200160405190810160405280929190818152602001828054610ac49061311f565b8015610b115780601f10610ae657610100808354040283529160200191610b11565b820191906000526020600020905b815481529060010190602001808311610af457829003601f168201915b5050505050905090565b600080610b26611d3d565b9050610b33818585611d45565b600191505092915050565b6000600660009054906101000a900473ffffffffffffffffffffffffffffffffffffffff1673ffffffffffffffffffffffffffffffffffffffff166320853b28836040518263ffffffff1660e01b8152600401610b9b9190612c68565b60206040518083038186803b158015610bb357600080fd5b505afa158015610bc7573d6000803e3d6000fd5b505050506040513d601f19601f82011682018060405250810190610beb9190612877565b610c2a576040517f08c379a0000000000000000000000000000000000000000000000000000000008152600401610c2190612dd5565b60405180910390fd5b8173ffffffffffffffffffffffffffffffffffffffff163373ffffffffffffffffffffffffffffffffffffffff161415610c99576040517f08c379a0000000000000000000000000000000000000000000000000000000008152600401610c9090612e35565b60405180910390fd5b60006001601080549050610cad9190612fd6565b90506000610cbb3387611f10565b85600c6000828254610ccd9190612fd6565b92505081905550806001811115610ce757610ce66131c9565b5b856001811115610cfa57610cf96131c9565b5b1415610d0f57610d0a84876120e7565b610d80565b600086610d1b86611628565b610d25919061302c565b1015610d5b57610d3d84610d3886611628565b611f10565b85600d6000828254610d4f9190612fd6565b92505081905550610d7f565b610d658487611f10565b85600d6000828254610d779190612fd6565b925050819055505b5b601160008573ffffffffffffffffffffffffffffffffffffffff1673ffffffffffffffffffffffffffffffffffffffff16815260200190815260200160002060009054906101000a900460ff1615610fe157600f849080600181540180825580915050600190039060005260206000200160009091909190916101000a81548173ffffffffffffffffffffffffffffffffffffffff021916908373ffffffffffffffffffffffffffffffffffffffff16021790555060106040518060a001604052808481526020018881526020013373ffffffffffffffffffffffffffffffffffffffff168152602001876001811115610e7d57610e7c6131c9565b5b81526020018673ffffffffffffffffffffffffffffffffffffffff168152509080600181540180825580915050600190039060005260206000209060040201600090919091909150600082015181600001556020820151816001015560408201518160020160006101000a81548173ffffffffffffffffffffffffffffffffffffffff021916908373ffffffffffffffffffffffffffffffffffffffff16021790555060608201518160020160146101000a81548160ff02191690836001811115610f4b57610f4a6131c9565b5b021790555060808201518160030160006101000a81548173ffffffffffffffffffffffffffffffffffffffff021916908373ffffffffffffffffffffffffffffffffffffffff16021790555050507f6f6b2d2c516bee6bab99fd289c9cb0d1ed0f93de049b73baf1e98b3daa67d75233878688604051610fce9493929190612c83565b60405180910390a1600192505050611290565b601160008573ffffffffffffffffffffffffffffffffffffffff1673ffffffffffffffffffffffffffffffffffffffff16815260200190815260200160002060009054906101000a900460ff1615601160008673ffffffffffffffffffffffffffffffffffffffff1673ffffffffffffffffffffffffffffffffffffffff16815260200190815260200160002060006101000a81548160ff021916908315150217905550600f849080600181540180825580915050600190039060005260206000200160009091909190916101000a81548173ffffffffffffffffffffffffffffffffffffffff021916908373ffffffffffffffffffffffffffffffffffffffff16021790555060106040518060a001604052808481526020018881526020013373ffffffffffffffffffffffffffffffffffffffff1681526020018760018111156111305761112f6131c9565b5b81526020018673ffffffffffffffffffffffffffffffffffffffff168152509080600181540180825580915050600190039060005260206000209060040201600090919091909150600082015181600001556020820151816001015560408201518160020160006101000a81548173ffffffffffffffffffffffffffffffffffffffff021916908373ffffffffffffffffffffffffffffffffffffffff16021790555060608201518160020160146101000a81548160ff021916908360018111156111fe576111fd6131c9565b5b021790555060808201518160030160006101000a81548173ffffffffffffffffffffffffffffffffffffffff021916908373ffffffffffffffffffffffffffffffffffffffff16021790555050507f6f6b2d2c516bee6bab99fd289c9cb0d1ed0f93de049b73baf1e98b3daa67d752338786886040516112819493929190612c83565b60405180910390a16001925050505b9392505050565b600c5481565b6000600254905090565b6000600660009054906101000a900473ffffffffffffffffffffffffffffffffffffffff1673ffffffffffffffffffffffffffffffffffffffff166320853b28836040518263ffffffff1660e01b81526004016113049190612c68565b60206040518083038186803b15801561131c57600080fd5b505afa158015611330573d6000803e3d6000fd5b505050506040513d601f19601f820116820180604052508101906113549190612877565b9050919050565b6000611365612247565b8160078190555060019050919050565b600080611380611d3d565b905061138d8582856122c5565b611398858585612351565b60019150509392505050565b60006113ae612247565b81600b8190555060019050919050565b600a5481565b60006001905090565b60006113dd600c54600d546125d2565b905090565b6000806113ed611d3d565b905061140e8185856113ff858961194f565b6114099190612fd6565b611d45565b600191505092915050565b60085481565b61143061142a611d3d565b82611f10565b50565b600061143d612247565b600960008373ffffffffffffffffffffffffffffffffffffffff1673ffffffffffffffffffffffffffffffffffffffff16815260200190815260200160002060009054906101000a900460ff1615600960008473ffffffffffffffffffffffffffffffffffffffff1673ffffffffffffffffffffffffffffffffffffffff16815260200190815260200160002060006101000a81548160ff02191690831515021790555081600660006101000a81548173ffffffffffffffffffffffffffffffffffffffff021916908373ffffffffffffffffffffffffffffffffffffffff16021790555060019050919050565b600d5481565b60075460085442611542919061302c565b11156115595742600881905550611557611a89565b505b5050565b600e5481565b6000600660009054906101000a900473ffffffffffffffffffffffffffffffffffffffff1673ffffffffffffffffffffffffffffffffffffffff163373ffffffffffffffffffffffffffffffffffffffff16146115f5576040517f08c379a00000000000000000000000000000000000000000000000000000000081526004016115ec90612e15565b60405180910390fd5b6116008260016120e7565b60019050919050565b600060606007546008544261161e919061302c565b1191509250929050565b60008060008373ffffffffffffffffffffffffffffffffffffffff1673ffffffffffffffffffffffffffffffffffffffff168152602001908152602001600020549050919050565b611678612247565b61168260006125e8565b565b61169682611690611d3d565b836122c5565b6116a08282611f10565b5050565b6000600560009054906101000a900473ffffffffffffffffffffffffffffffffffffffff16905090565b60075481565b6060600480546116e39061311f565b80601f016020809104026020016040519081016040528092919081815260200182805461170f9061311f565b801561175c5780601f106117315761010080835404028352916020019161175c565b820191906000526020600020905b81548152906001019060200180831161173f57829003601f168201915b5050505050905090565b6000601260008373ffffffffffffffffffffffffffffffffffffffff1673ffffffffffffffffffffffffffffffffffffffff16815260200190815260200160002060009054906101000a900460ff1615601260008473ffffffffffffffffffffffffffffffffffffffff1673ffffffffffffffffffffffffffffffffffffffff16815260200190815260200160002060006101000a81548160ff02191690831515021790555060019050919050565b60126020528060005260406000206000915054906101000a900460ff1681565b6000600c54905090565b6000601160008373ffffffffffffffffffffffffffffffffffffffff1673ffffffffffffffffffffffffffffffffffffffff16815260200190815260200160002060009054906101000a900460ff169050919050565b6000806118a0611d3d565b905060006118ae828661194f565b9050838110156118f3576040517f08c379a00000000000000000000000000000000000000000000000000000000081526004016118ea90612ed5565b60405180910390fd5b6119008286868403611d45565b60019250505092915050565b600080611917611d3d565b9050611924818585612351565b600191505092915050565b60116020528060005260406000206000915054906101000a900460ff1681565b6000600160008473ffffffffffffffffffffffffffffffffffffffff1673ffffffffffffffffffffffffffffffffffffffff16815260200190815260200160002060008373ffffffffffffffffffffffffffffffffffffffff1673ffffffffffffffffffffffffffffffffffffffff16815260200190815260200160002054905092915050565b60096020528060005260406000206000915054906101000a900460ff1681565b60108181548110611a0657600080fd5b90600052602060002090600402016000915090508060000154908060010154908060020160009054906101000a900473ffffffffffffffffffffffffffffffffffffffff16908060020160149054906101000a900460ff16908060030160009054906101000a900473ffffffffffffffffffffffffffffffffffffffff16905085565b6000611a93612247565b6000600c819055506000600d8190555060005b600f80549050811015611b9d57600f8181548110611ac757611ac6613227565b5b9060005260206000200160006101000a81549073ffffffffffffffffffffffffffffffffffffffff0219169055600060126000600f8481548110611b0e57611b0d613227565b5b9060005260206000200160009054906101000a900473ffffffffffffffffffffffffffffffffffffffff1673ffffffffffffffffffffffffffffffffffffffff1673ffffffffffffffffffffffffffffffffffffffff16815260200190815260200160002060006101000a81548160ff0219169083151502179055508080611b9590613151565b915050611aa6565b5060005b601080549050811015611c585760108181548110611bc257611bc1613227565b5b906000526020600020906004020160008082016000905560018201600090556002820160006101000a81549073ffffffffffffffffffffffffffffffffffffffff02191690556002820160146101000a81549060ff02191690556003820160006101000a81549073ffffffffffffffffffffffffffffffffffffffff021916905550508080611c5090613151565b915050611ba1565b506001905090565b600f8181548110611c7057600080fd5b906000526020600020016000915054906101000a900473ffffffffffffffffffffffffffffffffffffffff1681565b611ca7612247565b600073ffffffffffffffffffffffffffffffffffffffff168173ffffffffffffffffffffffffffffffffffffffff161415611d17576040517f08c379a0000000000000000000000000000000000000000000000000000000008152600401611d0e90612d75565b60405180910390fd5b611d20816125e8565b50565b6000611d2d612247565b81600e8190555060019050919050565b600033905090565b600073ffffffffffffffffffffffffffffffffffffffff168373ffffffffffffffffffffffffffffffffffffffff161415611db5576040517f08c379a0000000000000000000000000000000000000000000000000000000008152600401611dac90612eb5565b60405180910390fd5b600073ffffffffffffffffffffffffffffffffffffffff168273ffffffffffffffffffffffffffffffffffffffff161415611e25576040517f08c379a0000000000000000000000000000000000000000000000000000000008152600401611e1c90612d95565b60405180910390fd5b80600160008573ffffffffffffffffffffffffffffffffffffffff1673ffffffffffffffffffffffffffffffffffffffff16815260200190815260200160002060008473ffffffffffffffffffffffffffffffffffffffff1673ffffffffffffffffffffffffffffffffffffffff168152602001908152602001600020819055508173ffffffffffffffffffffffffffffffffffffffff168373ffffffffffffffffffffffffffffffffffffffff167f8c5be1e5ebec7d5bd14f71427d1e84f3dd0314c0f7b2291e5b200ac8c7c3b92583604051611f039190612f15565b60405180910390a3505050565b600073ffffffffffffffffffffffffffffffffffffffff168273ffffffffffffffffffffffffffffffffffffffff161415611f80576040517f08c379a0000000000000000000000000000000000000000000000000000000008152600401611f7790612e75565b60405180910390fd5b611f8c826000836126ae565b60008060008473ffffffffffffffffffffffffffffffffffffffff1673ffffffffffffffffffffffffffffffffffffffff16815260200190815260200160002054905081811015612012576040517f08c379a000000000000000000000000000000000000000000000000000000000815260040161200990612d55565b60405180910390fd5b8181036000808573ffffffffffffffffffffffffffffffffffffffff1673ffffffffffffffffffffffffffffffffffffffff168152602001908152602001600020819055508160026000828254612069919061302c565b92505081905550600073ffffffffffffffffffffffffffffffffffffffff168373ffffffffffffffffffffffffffffffffffffffff167fddf252ad1be2c89b69c2b068fc378daa952ba7f163c4a11628f55a4df523b3ef846040516120ce9190612f15565b60405180910390a36120e2836000846126b3565b505050565b600073ffffffffffffffffffffffffffffffffffffffff168273ffffffffffffffffffffffffffffffffffffffff161415612157576040517f08c379a000000000000000000000000000000000000000000000000000000000815260040161214e90612ef5565b60405180910390fd5b612163600083836126ae565b80600260008282546121759190612fd6565b92505081905550806000808473ffffffffffffffffffffffffffffffffffffffff1673ffffffffffffffffffffffffffffffffffffffff16815260200190815260200160002060008282546121ca9190612fd6565b925050819055508173ffffffffffffffffffffffffffffffffffffffff16600073ffffffffffffffffffffffffffffffffffffffff167fddf252ad1be2c89b69c2b068fc378daa952ba7f163c4a11628f55a4df523b3ef8360405161222f9190612f15565b60405180910390a3612243600083836126b3565b5050565b61224f611d3d565b73ffffffffffffffffffffffffffffffffffffffff1661226d6116a4565b73ffffffffffffffffffffffffffffffffffffffff16146122c3576040517f08c379a00000000000000000000000000000000000000000000000000000000081526004016122ba90612e55565b60405180910390fd5b565b60006122d1848461194f565b90507fffffffffffffffffffffffffffffffffffffffffffffffffffffffffffffffff811461234b578181101561233d576040517f08c379a000000000000000000000000000000000000000000000000000000000815260040161233490612db5565b60405180910390fd5b61234a8484848403611d45565b5b50505050565b600073ffffffffffffffffffffffffffffffffffffffff168373ffffffffffffffffffffffffffffffffffffffff1614156123c1576040517f08c379a00000000000000000000000000000000000000000000000000000000081526004016123b890612e95565b60405180910390fd5b600073ffffffffffffffffffffffffffffffffffffffff168273ffffffffffffffffffffffffffffffffffffffff161415612431576040517f08c379a000000000000000000000000000000000000000000000000000000000815260040161242890612d35565b60405180910390fd5b61243c8383836126ae565b60008060008573ffffffffffffffffffffffffffffffffffffffff1673ffffffffffffffffffffffffffffffffffffffff168152602001908152602001600020549050818110156124c2576040517f08c379a00000000000000000000000000000000000000000000000000000000081526004016124b990612df5565b60405180910390fd5b8181036000808673ffffffffffffffffffffffffffffffffffffffff1673ffffffffffffffffffffffffffffffffffffffff16815260200190815260200160002081905550816000808573ffffffffffffffffffffffffffffffffffffffff1673ffffffffffffffffffffffffffffffffffffffff16815260200190815260200160002060008282546125559190612fd6565b925050819055508273ffffffffffffffffffffffffffffffffffffffff168473ffffffffffffffffffffffffffffffffffffffff167fddf252ad1be2c89b69c2b068fc378daa952ba7f163c4a11628f55a4df523b3ef846040516125b99190612f15565b60405180910390a36125cc8484846126b3565b50505050565b600081836125e0919061302c565b905092915050565b6000600560009054906101000a900473ffffffffffffffffffffffffffffffffffffffff16905081600560006101000a81548173ffffffffffffffffffffffffffffffffffffffff021916908373ffffffffffffffffffffffffffffffffffffffff1602179055508173ffffffffffffffffffffffffffffffffffffffff168173ffffffffffffffffffffffffffffffffffffffff167f8be0079c531659141344cd1fd0a4f28419497f9722a3daafe3b4186f6b6457e060405160405180910390a35050565b505050565b505050565b6000813590506126c781613651565b92915050565b6000815190506126dc81613668565b92915050565b60008083601f8401126126f8576126f761325b565b5b8235905067ffffffffffffffff81111561271557612714613256565b5b60208301915083600182028301111561273157612730613260565b5b9250929050565b6000813590506127478161367f565b92915050565b60008135905061275c81613696565b92915050565b600081359050612771816136a6565b92915050565b60006020828403121561278d5761278c61326a565b5b600061279b848285016126b8565b91505092915050565b600080604083850312156127bb576127ba61326a565b5b60006127c9858286016126b8565b92505060206127da858286016126b8565b9150509250929050565b6000806000606084860312156127fd576127fc61326a565b5b600061280b868287016126b8565b935050602061281c868287016126b8565b925050604061282d86828701612762565b9150509250925092565b6000806040838503121561284e5761284d61326a565b5b600061285c858286016126b8565b925050602061286d85828601612762565b9150509250929050565b60006020828403121561288d5761288c61326a565b5b600061289b848285016126cd565b91505092915050565b600080602083850312156128bb576128ba61326a565b5b600083013567ffffffffffffffff8111156128d9576128d8613265565b5b6128e5858286016126e2565b92509250509250929050565b6000602082840312156129075761290661326a565b5b600061291584828501612738565b91505092915050565b6000602082840312156129345761293361326a565b5b600061294284828501612762565b91505092915050565b6000806000606084860312156129645761296361326a565b5b600061297286828701612762565b93505060206129838682870161274d565b9250506040612994868287016126b8565b9150509250925092565b6129a781613060565b82525050565b6129b681613072565b82525050565b60006129c782612f9e565b6129d18185612fb4565b93506129e18185602086016130ec565b6129ea8161326f565b840191505092915050565b6129fe816130da565b82525050565b6000612a0f82612fa9565b612a198185612fc5565b9350612a298185602086016130ec565b612a328161326f565b840191505092915050565b6000612a4a602383612fc5565b9150612a5582613280565b604082019050919050565b6000612a6d602283612fc5565b9150612a78826132cf565b604082019050919050565b6000612a90602683612fc5565b9150612a9b8261331e565b604082019050919050565b6000612ab3602283612fc5565b9150612abe8261336d565b604082019050919050565b6000612ad6601d83612fc5565b9150612ae1826133bc565b602082019050919050565b6000612af9600c83612fc5565b9150612b04826133e5565b602082019050919050565b6000612b1c602683612fc5565b9150612b278261340e565b604082019050919050565b6000612b3f600d83612fc5565b9150612b4a8261345d565b602082019050919050565b6000612b62601483612fc5565b9150612b6d82613486565b602082019050919050565b6000612b85602083612fc5565b9150612b90826134af565b602082019050919050565b6000612ba8602183612fc5565b9150612bb3826134d8565b604082019050919050565b6000612bcb602583612fc5565b9150612bd682613527565b604082019050919050565b6000612bee602483612fc5565b9150612bf982613576565b604082019050919050565b6000612c11602583612fc5565b9150612c1c826135c5565b604082019050919050565b6000612c34601f83612fc5565b9150612c3f82613614565b602082019050919050565b612c53816130c3565b82525050565b612c62816130cd565b82525050565b6000602082019050612c7d600083018461299e565b92915050565b6000608082019050612c98600083018761299e565b612ca56020830186612c4a565b612cb2604083018561299e565b612cbf60608301846129f5565b95945050505050565b6000602082019050612cdd60008301846129ad565b92915050565b6000604082019050612cf860008301856129ad565b8181036020830152612d0a81846129bc565b90509392505050565b60006020820190508181036000830152612d2d8184612a04565b905092915050565b60006020820190508181036000830152612d4e81612a3d565b9050919050565b60006020820190508181036000830152612d6e81612a60565b9050919050565b60006020820190508181036000830152612d8e81612a83565b9050919050565b60006020820190508181036000830152612dae81612aa6565b9050919050565b60006020820190508181036000830152612dce81612ac9565b9050919050565b60006020820190508181036000830152612dee81612aec565b9050919050565b60006020820190508181036000830152612e0e81612b0f565b9050919050565b60006020820190508181036000830152612e2e81612b32565b9050919050565b60006020820190508181036000830152612e4e81612b55565b9050919050565b60006020820190508181036000830152612e6e81612b78565b9050919050565b60006020820190508181036000830152612e8e81612b9b565b9050919050565b60006020820190508181036000830152612eae81612bbe565b9050919050565b60006020820190508181036000830152612ece81612be1565b9050919050565b60006020820190508181036000830152612eee81612c04565b9050919050565b60006020820190508181036000830152612f0e81612c27565b9050919050565b6000602082019050612f2a6000830184612c4a565b92915050565b600060a082019050612f456000830188612c4a565b612f526020830187612c4a565b612f5f604083018661299e565b612f6c60608301856129f5565b612f79608083018461299e565b9695505050505050565b6000602082019050612f986000830184612c59565b92915050565b600081519050919050565b600081519050919050565b600082825260208201905092915050565b600082825260208201905092915050565b6000612fe1826130c3565b9150612fec836130c3565b9250827fffffffffffffffffffffffffffffffffffffffffffffffffffffffffffffffff038211156130215761302061319a565b5b828201905092915050565b6000613037826130c3565b9150613042836130c3565b9250828210156130555761305461319a565b5b828203905092915050565b600061306b826130a3565b9050919050565b60008115159050919050565b600061308982613060565b9050919050565b600081905061309e8261363d565b919050565b600073ffffffffffffffffffffffffffffffffffffffff82169050919050565b6000819050919050565b600060ff82169050919050565b60006130e582613090565b9050919050565b60005b8381101561310a5780820151818401526020810190506130ef565b83811115613119576000848401525b50505050565b6000600282049050600182168061313757607f821691505b6020821081141561314b5761314a6131f8565b5b50919050565b600061315c826130c3565b91507fffffffffffffffffffffffffffffffffffffffffffffffffffffffffffffffff82141561318f5761318e61319a565b5b600182019050919050565b7f4e487b7100000000000000000000000000000000000000000000000000000000600052601160045260246000fd5b7f4e487b7100000000000000000000000000000000000000000000000000000000600052602160045260246000fd5b7f4e487b7100000000000000000000000000000000000000000000000000000000600052602260045260246000fd5b7f4e487b7100000000000000000000000000000000000000000000000000000000600052603260045260246000fd5b600080fd5b600080fd5b600080fd5b600080fd5b600080fd5b6000601f19601f8301169050919050565b7f45524332303a207472616e7366657220746f20746865207a65726f206164647260008201527f6573730000000000000000000000000000000000000000000000000000000000602082015250565b7f45524332303a206275726e20616d6f756e7420657863656564732062616c616e60008201527f6365000000000000000000000000000000000000000000000000000000000000602082015250565b7f4f776e61626c653a206e6577206f776e657220697320746865207a65726f206160008201527f6464726573730000000000000000000000000000000000000000000000000000602082015250565b7f45524332303a20617070726f766520746f20746865207a65726f20616464726560008201527f7373000000000000000000000000000000000000000000000000000000000000602082015250565b7f45524332303a20696e73756666696369656e7420616c6c6f77616e6365000000600082015250565b7f6e6f7420612076656e646f720000000000000000000000000000000000000000600082015250565b7f45524332303a207472616e7366657220616d6f756e742065786365656473206260008201527f616c616e63650000000000000000000000000000000000000000000000000000602082015250565b7f6f7574206f6620626f756e647300000000000000000000000000000000000000600082015250565b7f63616e6e6f7420766f746520796f757273656c66000000000000000000000000600082015250565b7f4f776e61626c653a2063616c6c6572206973206e6f7420746865206f776e6572600082015250565b7f45524332303a206275726e2066726f6d20746865207a65726f2061646472657360008201527f7300000000000000000000000000000000000000000000000000000000000000602082015250565b7f45524332303a207472616e736665722066726f6d20746865207a65726f20616460008201527f6472657373000000000000000000000000000000000000000000000000000000602082015250565b7f45524332303a20617070726f76652066726f6d20746865207a65726f2061646460008201527f7265737300000000000000000000000000000000000000000000000000000000602082015250565b7f45524332303a2064656372656173656420616c6c6f77616e63652062656c6f7760008201527f207a65726f000000000000000000000000000000000000000000000000000000602082015250565b7f45524332303a206d696e7420746f20746865207a65726f206164647265737300600082015250565b6002811061364e5761364d6131c9565b5b50565b61365a81613060565b811461366557600080fd5b50565b61367181613072565b811461367c57600080fd5b50565b6136888161307e565b811461369357600080fd5b50565b600281106136a357600080fd5b50565b6136af816130c3565b81146136ba57600080fd5b5056fea2646970667358221220d856086572fff2b0aa99f99fb25bb66d2cd9bc0e5f8e3738c01a45f4fb33be3e64736f6c63430008070033",
  "linkReferences": {},
  "deployedLinkReferences": {}
}