{
  "_format": "hh-sol-artifact-1",
  "contractName": "UniVotingToken",
  "sourceName": "contracts/UniVotingToken.sol",
  "abi": [
    {
      "inputs": [],
      "stateMutability": "payable",
      "type": "constructor"
    },
    {
      "anonymous": false,
      "inputs": [
        {
          "indexed": true,
          "internalType": "address",
          "name": "owner",
          "type": "address"
        },
        {
          "indexed": true,
          "internalType": "address",
          "name": "spender",
          "type": "address"
        },
        {
          "indexed": false,
          "internalType": "uint256",
          "name": "value",
          "type": "uint256"
        }
      ],
      "name": "Approval",
      "type": "event"
    },
    {
      "anonymous": false,
      "inputs": [
        {
          "indexed": false,
          "internalType": "address",
          "name": "vendor",
          "type": "address"
        },
        {
          "indexed": false,
          "internalType": "uint256",
          "name": "amount",
          "type": "uint256"
        }
      ],
      "name": "Claimed",
      "type": "event"
    },
    {
      "anonymous": false,
      "inputs": [
        {
          "indexed": true,
          "internalType": "address",
          "name": "previousOwner",
          "type": "address"
        },
        {
          "indexed": true,
          "internalType": "address",
          "name": "newOwner",
          "type": "address"
        }
      ],
      "name": "OwnershipTransferred",
      "type": "event"
    },
    {
      "anonymous": false,
      "inputs": [
        {
          "indexed": true,
          "internalType": "address",
          "name": "from",
          "type": "address"
        },
        {
          "indexed": true,
          "internalType": "address",
          "name": "to",
          "type": "address"
        },
        {
          "indexed": false,
          "internalType": "uint256",
          "name": "value",
          "type": "uint256"
        }
      ],
      "name": "Transfer",
      "type": "event"
    },
    {
      "anonymous": false,
      "inputs": [
        {
          "indexed": false,
          "internalType": "address",
          "name": "voter",
          "type": "address"
        },
        {
          "indexed": false,
          "internalType": "uint256",
          "name": "amount",
          "type": "uint256"
        },
        {
          "indexed": false,
          "internalType": "address",
          "name": "vendor",
          "type": "address"
        },
        {
          "indexed": false,
          "internalType": "enum UniVotingToken.voteAction",
          "name": "action",
          "type": "uint8"
        }
      ],
      "name": "voted",
      "type": "event"
    },
    {
      "inputs": [],
      "name": "ResetContest",
      "outputs": [
        {
          "internalType": "bool",
          "name": "",
          "type": "bool"
        }
      ],
      "stateMutability": "nonpayable",
      "type": "function"
    },
    {
      "inputs": [
        {
          "internalType": "uint256",
          "name": "_ammount",
          "type": "uint256"
        },
        {
          "internalType": "enum UniVotingToken.voteAction",
          "name": "_vote",
          "type": "uint8"
        },
        {
          "internalType": "address",
          "name": "_vendor",
          "type": "address"
        }
      ],
      "name": "VoteForVendor",
      "outputs": [
        {
          "internalType": "bool",
          "name": "",
          "type": "bool"
        }
      ],
      "stateMutability": "payable",
      "type": "function"
    },
    {
      "inputs": [
        {
          "internalType": "uint256",
          "name": "",
          "type": "uint256"
        }
      ],
      "name": "VoteList",
      "outputs": [
        {
          "internalType": "uint256",
          "name": "id",
          "type": "uint256"
        },
        {
          "internalType": "uint256",
          "name": "value",
          "type": "uint256"
        },
        {
          "internalType": "address",
          "name": "voter",
          "type": "address"
        },
        {
          "internalType": "enum UniVotingToken.voteAction",
          "name": "action",
          "type": "uint8"
        },
        {
          "internalType": "address",
          "name": "vendor",
          "type": "address"
        }
      ],
      "stateMutability": "view",
      "type": "function"
    },
    {
      "inputs": [
        {
          "internalType": "uint256",
          "name": "",
          "type": "uint256"
        }
      ],
      "name": "VotedVendors",
      "outputs": [
        {
          "internalType": "address",
          "name": "",
          "type": "address"
        }
      ],
      "stateMutability": "view",
      "type": "function"
    },
    {
      "inputs": [
        {
          "internalType": "address",
          "name": "owner",
          "type": "address"
        },
        {
          "internalType": "address",
          "name": "spender",
          "type": "address"
        }
      ],
      "name": "allowance",
      "outputs": [
        {
          "internalType": "uint256",
          "name": "",
          "type": "uint256"
        }
      ],
      "stateMutability": "view",
      "type": "function"
    },
    {
      "inputs": [
        {
          "internalType": "address",
          "name": "spender",
          "type": "address"
        },
        {
          "internalType": "uint256",
          "name": "amount",
          "type": "uint256"
        }
      ],
      "name": "approve",
      "outputs": [
        {
          "internalType": "bool",
          "name": "",
          "type": "bool"
        }
      ],
      "stateMutability": "nonpayable",
      "type": "function"
    },
    {
      "inputs": [
        {
          "internalType": "address",
          "name": "account",
          "type": "address"
        }
      ],
      "name": "balanceOf",
      "outputs": [
        {
          "internalType": "uint256",
          "name": "",
          "type": "uint256"
        }
      ],
      "stateMutability": "view",
      "type": "function"
    },
    {
      "inputs": [
        {
          "internalType": "address",
          "name": "_account",
          "type": "address"
        }
      ],
      "name": "ban",
      "outputs": [
        {
          "internalType": "bool",
          "name": "",
          "type": "bool"
        }
      ],
      "stateMutability": "nonpayable",
      "type": "function"
    },
    {
      "inputs": [
        {
          "internalType": "uint256",
          "name": "amount",
          "type": "uint256"
        }
      ],
      "name": "burn",
      "outputs": [],
      "stateMutability": "nonpayable",
      "type": "function"
    },
    {
      "inputs": [
        {
          "internalType": "address",
          "name": "account",
          "type": "address"
        },
        {
          "internalType": "uint256",
          "name": "amount",
          "type": "uint256"
        }
      ],
      "name": "burnFrom",
      "outputs": [],
      "stateMutability": "nonpayable",
      "type": "function"
    },
    {
      "inputs": [
        {
          "internalType": "address",
          "name": "_vendor",
          "type": "address"
        }
      ],
      "name": "checkIsVendor",
      "outputs": [
        {
          "internalType": "bool",
          "name": "",
          "type": "bool"
        }
      ],
      "stateMutability": "view",
      "type": "function"
    },
    {
      "inputs": [
        {
          "internalType": "address",
          "name": "_account",
          "type": "address"
        }
      ],
      "name": "checkIsVoted",
      "outputs": [
        {
          "internalType": "bool",
          "name": "",
          "type": "bool"
        }
      ],
      "stateMutability": "view",
      "type": "function"
    },
    {
      "inputs": [
        {
          "internalType": "bytes",
          "name": "",
          "type": "bytes"
        }
      ],
      "name": "checkUpkeep",
      "outputs": [
        {
          "internalType": "bool",
          "name": "upkeepNeeded",
          "type": "bool"
        },
        {
          "internalType": "bytes",
          "name": "",
          "type": "bytes"
        }
      ],
      "stateMutability": "view",
      "type": "function"
    },
    {
      "inputs": [],
      "name": "decimalMultiplier",
      "outputs": [
        {
          "internalType": "uint256",
          "name": "",
          "type": "uint256"
        }
      ],
      "stateMutability": "view",
      "type": "function"
    },
    {
      "inputs": [],
      "name": "decimals",
      "outputs": [
        {
          "internalType": "uint8",
          "name": "",
          "type": "uint8"
        }
      ],
      "stateMutability": "view",
      "type": "function"
    },
    {
      "inputs": [
        {
          "internalType": "address",
          "name": "spender",
          "type": "address"
        },
        {
          "internalType": "uint256",
          "name": "subtractedValue",
          "type": "uint256"
        }
      ],
      "name": "decreaseAllowance",
      "outputs": [
        {
          "internalType": "bool",
          "name": "",
          "type": "bool"
        }
      ],
      "stateMutability": "nonpayable",
      "type": "function"
    },
    {
      "inputs": [],
      "name": "getNetTotalVotes",
      "outputs": [
        {
          "internalType": "uint256",
          "name": "",
          "type": "uint256"
        }
      ],
      "stateMutability": "view",
      "type": "function"
    },
    {
      "inputs": [],
      "name": "getTotalVotes",
      "outputs": [
        {
          "internalType": "uint256",
          "name": "",
          "type": "uint256"
        }
      ],
      "stateMutability": "view",
      "type": "function"
    },
    {
      "inputs": [
        {
          "internalType": "address",
          "name": "spender",
          "type": "address"
        },
        {
          "internalType": "uint256",
          "name": "addedValue",
          "type": "uint256"
        }
      ],
      "name": "increaseAllowance",
      "outputs": [
        {
          "internalType": "bool",
          "name": "",
          "type": "bool"
        }
      ],
      "stateMutability": "nonpayable",
      "type": "function"
    },
    {
      "inputs": [],
      "name": "interval",
      "outputs": [
        {
          "internalType": "uint256",
          "name": "",
          "type": "uint256"
        }
      ],
      "stateMutability": "view",
      "type": "function"
    },
    {
      "inputs": [
        {
          "internalType": "address",
          "name": "",
          "type": "address"
        }
      ],
      "name": "isBanned",
      "outputs": [
        {
          "internalType": "bool",
          "name": "",
          "type": "bool"
        }
      ],
      "stateMutability": "view",
      "type": "function"
    },
    {
      "inputs": [
        {
          "internalType": "address",
          "name": "",
          "type": "address"
        }
      ],
      "name": "isMySpender",
      "outputs": [
        {
          "internalType": "bool",
          "name": "",
          "type": "bool"
        }
      ],
      "stateMutability": "view",
      "type": "function"
    },
    {
      "inputs": [
        {
          "internalType": "address",
          "name": "",
          "type": "address"
        }
      ],
      "name": "isVoted",
      "outputs": [
        {
          "internalType": "bool",
          "name": "",
          "type": "bool"
        }
      ],
      "stateMutability": "view",
      "type": "function"
    },
    {
      "inputs": [],
      "name": "lastTimeStamp",
      "outputs": [
        {
          "internalType": "uint256",
          "name": "",
          "type": "uint256"
        }
      ],
      "stateMutability": "view",
      "type": "function"
    },
    {
      "inputs": [
        {
          "internalType": "address",
          "name": "_account",
          "type": "address"
        }
      ],
      "name": "mint",
      "outputs": [
        {
          "internalType": "bool",
          "name": "",
          "type": "bool"
        }
      ],
      "stateMutability": "payable",
      "type": "function"
    },
    {
      "inputs": [],
      "name": "name",
      "outputs": [
        {
          "internalType": "string",
          "name": "",
          "type": "string"
        }
      ],
      "stateMutability": "view",
      "type": "function"
    },
    {
      "inputs": [],
      "name": "owner",
      "outputs": [
        {
          "internalType": "address",
          "name": "",
          "type": "address"
        }
      ],
      "stateMutability": "view",
      "type": "function"
    },
    {
      "inputs": [
        {
          "internalType": "bytes",
          "name": "",
          "type": "bytes"
        }
      ],
      "name": "performUpkeep",
      "outputs": [],
      "stateMutability": "nonpayable",
      "type": "function"
    },
    {
      "inputs": [],
      "name": "renounceOwnership",
      "outputs": [],
      "stateMutability": "nonpayable",
      "type": "function"
    },
    {
      "inputs": [],
      "name": "rewardTreshold",
      "outputs": [
        {
          "internalType": "uint256",
          "name": "",
          "type": "uint256"
        }
      ],
      "stateMutability": "view",
      "type": "function"
    },
    {
      "inputs": [
        {
          "internalType": "uint256",
          "name": "_interval",
          "type": "uint256"
        }
      ],
      "name": "setInterval",
      "outputs": [
        {
          "internalType": "bool",
          "name": "",
          "type": "bool"
        }
      ],
      "stateMutability": "nonpayable",
      "type": "function"
    },
    {
      "inputs": [
        {
          "internalType": "uint256",
          "name": "_amount",
          "type": "uint256"
        }
      ],
      "name": "setMaxReward",
      "outputs": [
        {
          "internalType": "bool",
          "name": "",
          "type": "bool"
        }
      ],
      "stateMutability": "nonpayable",
      "type": "function"
    },
    {
      "inputs": [
        {
          "internalType": "uint256",
          "name": "_amount",
          "type": "uint256"
        }
      ],
      "name": "setRewardTreshold",
      "outputs": [
        {
          "internalType": "bool",
          "name": "",
          "type": "bool"
        }
      ],
      "stateMutability": "nonpayable",
      "type": "function"
    },
    {
      "inputs": [
        {
          "internalType": "contract ISpender",
          "name": "_spender",
          "type": "address"
        }
      ],
      "name": "setSpender",
      "outputs": [
        {
          "internalType": "bool",
          "name": "",
          "type": "bool"
        }
      ],
      "stateMutability": "nonpayable",
      "type": "function"
    },
    {
      "inputs": [],
      "name": "symbol",
      "outputs": [
        {
          "internalType": "string",
          "name": "",
          "type": "string"
        }
      ],
      "stateMutability": "view",
      "type": "function"
    },
    {
      "inputs": [],
      "name": "totalNegativeVotes",
      "outputs": [
        {
          "internalType": "uint256",
          "name": "",
          "type": "uint256"
        }
      ],
      "stateMutability": "view",
      "type": "function"
    },
    {
      "inputs": [],
      "name": "totalSupply",
      "outputs": [
        {
          "internalType": "uint256",
          "name": "",
          "type": "uint256"
        }
      ],
      "stateMutability": "view",
      "type": "function"
    },
    {
      "inputs": [],
      "name": "totalVotes",
      "outputs": [
        {
          "internalType": "uint256",
          "name": "",
          "type": "uint256"
        }
      ],
      "stateMutability": "view",
      "type": "function"
    },
    {
      "inputs": [
        {
          "internalType": "address",
          "name": "to",
          "type": "address"
        },
        {
          "internalType": "uint256",
          "name": "amount",
          "type": "uint256"
        }
      ],
      "name": "transfer",
      "outputs": [
        {
          "internalType": "bool",
          "name": "",
          "type": "bool"
        }
      ],
      "stateMutability": "nonpayable",
      "type": "function"
    },
    {
      "inputs": [
        {
          "internalType": "address",
          "name": "from",
          "type": "address"
        },
        {
          "internalType": "address",
          "name": "to",
          "type": "address"
        },
        {
          "internalType": "uint256",
          "name": "amount",
          "type": "uint256"
        }
      ],
      "name": "transferFrom",
      "outputs": [
        {
          "internalType": "bool",
          "name": "",
          "type": "bool"
        }
      ],
      "stateMutability": "nonpayable",
      "type": "function"
    },
    {
      "inputs": [
        {
          "internalType": "address",
          "name": "newOwner",
          "type": "address"
        }
      ],
      "name": "transferOwnership",
      "outputs": [],
      "stateMutability": "nonpayable",
      "type": "function"
    }
  ],
  "bytecode": "0x6080604052612710600a556109c4600b556000600c556000600d556001600e556040518060400160405280600881526020017f556e6976657273650000000000000000000000000000000000000000000000008152506040518060400160405280600381526020017f55565400000000000000000000000000000000000000000000000000000000008152508160039080519060200190620000a3929190620001ba565b508060049080519060200190620000bc929190620001ba565b505050620000df620000d3620000ec60201b60201c565b620000f460201b60201c565b42600881905550620002cf565b600033905090565b6000600560009054906101000a900473ffffffffffffffffffffffffffffffffffffffff16905081600560006101000a81548173ffffffffffffffffffffffffffffffffffffffff021916908373ffffffffffffffffffffffffffffffffffffffff1602179055508173ffffffffffffffffffffffffffffffffffffffff168173ffffffffffffffffffffffffffffffffffffffff167f8be0079c531659141344cd1fd0a4f28419497f9722a3daafe3b4186f6b6457e060405160405180910390a35050565b828054620001c8906200026a565b90600052602060002090601f016020900481019282620001ec576000855562000238565b82601f106200020757805160ff191683800117855562000238565b8280016001018555821562000238579182015b82811115620002375782518255916020019190600101906200021a565b5b5090506200024791906200024b565b5090565b5b80821115620002665760008160009055506001016200024c565b5090565b600060028204905060018216806200028357607f821691505b602082108114156200029a5762000299620002a0565b5b50919050565b7f4e487b7100000000000000000000000000000000000000000000000000000000600052602260045260246000fd5b6139a180620002df6000396000f3fe6080604052600436106102465760003560e01c80636e04ff0d11610139578063a2aa73b2116100b6578063e02b82c81161007a578063e02b82c81461093d578063ed837d161461097a578063ef34ab9f146109bb578063ef594925146109e6578063f2fde38b14610a23578063ff0fc77f14610a4c57610246565b8063a2aa73b21461080c578063a457c2d714610849578063a9059cbb14610886578063cbff75cb146108c3578063dd62ed3e1461090057610246565b8063947a36fb116100fd578063947a36fb1461071157806395d89b411461073c57806397c3ccd81461076757806397f735d5146107a45780639a0e7d66146107e157610246565b80636e04ff0d1461062b57806370a0823114610669578063715018a6146106a657806379cc6790146106bd5780638da5cb5b146106e657610246565b8063313ce567116101c7578063444392091161018b578063444392091461053f578063449b98261461057c5780634585e33b146105a75780635a8eb445146105d05780636a627842146105fb57610246565b8063313ce5671461045857806334d084fe1461048357806339509351146104ae5780633f3b3b27146104eb57806342966c681461051657610246565b806320853b281161020e57806320853b281461033957806322a900821461037657806323b872dd146103b357806325c33e13146103f05780633082538f1461042d57610246565b806306fdde031461024b578063095ea7b3146102765780630a2c514c146102b35780630d15fd77146102e357806318160ddd1461030e575b600080fd5b34801561025757600080fd5b50610260610a89565b60405161026d9190612fc1565b60405180910390f35b34801561028257600080fd5b5061029d60048036038101906102989190612ae5565b610b1b565b6040516102aa9190612f76565b60405180910390f35b6102cd60048036038101906102c89190612bf9565b610b3e565b6040516102da9190612f76565b60405180910390f35b3480156102ef57600080fd5b506102f8611297565b60405161030591906131c3565b60405180910390f35b34801561031a57600080fd5b5061032361129d565b60405161033091906131c3565b60405180910390f35b34801561034557600080fd5b50610360600480360381019061035b9190612a25565b6112a7565b60405161036d9190612f76565b60405180910390f35b34801561038257600080fd5b5061039d60048036038101906103989190612bcc565b61135b565b6040516103aa9190612f76565b60405180910390f35b3480156103bf57600080fd5b506103da60048036038101906103d59190612a92565b6113e9565b6040516103e79190612f76565b60405180910390f35b3480156103fc57600080fd5b5061041760048036038101906104129190612bcc565b611418565b6040516104249190612f76565b60405180910390f35b34801561043957600080fd5b506104426114a6565b60405161044f91906131c3565b60405180910390f35b34801561046457600080fd5b5061046d6114ac565b60405161047a9190613231565b60405180910390f35b34801561048f57600080fd5b506104986114b5565b6040516104a591906131c3565b60405180910390f35b3480156104ba57600080fd5b506104d560048036038101906104d09190612ae5565b6114ca565b6040516104e29190612f76565b60405180910390f35b3480156104f757600080fd5b50610500611501565b60405161050d91906131c3565b60405180910390f35b34801561052257600080fd5b5061053d60048036038101906105389190612bcc565b611507565b005b34801561054b57600080fd5b5061056660048036038101906105619190612b9f565b61151b565b6040516105739190612f76565b60405180910390f35b34801561058857600080fd5b50610591611687565b60405161059e91906131c3565b60405180910390f35b3480156105b357600080fd5b506105ce60048036038101906105c99190612b52565b61168d565b005b3480156105dc57600080fd5b506105e56116b9565b6040516105f291906131c3565b60405180910390f35b61061560048036038101906106109190612a25565b6116bf565b6040516106229190612f76565b60405180910390f35b34801561063757600080fd5b50610652600480360381019061064d9190612b52565b611765565b604051610660929190612f91565b60405180910390f35b34801561067557600080fd5b50610690600480360381019061068b9190612a25565b611784565b60405161069d91906131c3565b60405180910390f35b3480156106b257600080fd5b506106bb6117cc565b005b3480156106c957600080fd5b506106e460048036038101906106df9190612ae5565b611854565b005b3480156106f257600080fd5b506106fb611874565b6040516107089190612f16565b60405180910390f35b34801561071d57600080fd5b5061072661189e565b60405161073391906131c3565b60405180910390f35b34801561074857600080fd5b506107516118a4565b60405161075e9190612fc1565b60405180910390f35b34801561077357600080fd5b5061078e60048036038101906107899190612a25565b611936565b60405161079b9190612f76565b60405180910390f35b3480156107b057600080fd5b506107cb60048036038101906107c69190612a25565b6119e5565b6040516107d89190612f76565b60405180910390f35b3480156107ed57600080fd5b506107f6611a05565b60405161080391906131c3565b60405180910390f35b34801561081857600080fd5b50610833600480360381019061082e9190612a25565b611a0f565b6040516108409190612f76565b60405180910390f35b34801561085557600080fd5b50610870600480360381019061086b9190612ae5565b611a65565b60405161087d9190612f76565b60405180910390f35b34801561089257600080fd5b506108ad60048036038101906108a89190612ae5565b611adc565b6040516108ba9190612f76565b60405180910390f35b3480156108cf57600080fd5b506108ea60048036038101906108e59190612a25565b611aff565b6040516108f79190612f76565b60405180910390f35b34801561090c57600080fd5b5061092760048036038101906109229190612a52565b611b1f565b60405161093491906131c3565b60405180910390f35b34801561094957600080fd5b50610964600480360381019061095f9190612a25565b611ba6565b6040516109719190612f76565b60405180910390f35b34801561098657600080fd5b506109a1600480360381019061099c9190612bcc565b611bc6565b6040516109b29594939291906131de565b60405180910390f35b3480156109c757600080fd5b506109d0611c59565b6040516109dd9190612f76565b60405180910390f35b3480156109f257600080fd5b50610a0d6004803603810190610a089190612bcc565b611ea4565b604051610a1a9190612f16565b60405180910390f35b348015610a2f57600080fd5b50610a4a6004803603810190610a459190612a25565b611ee3565b005b348015610a5857600080fd5b50610a736004803603810190610a6e9190612bcc565b611fdb565b604051610a809190612f76565b60405180910390f35b606060038054610a98906133cd565b80601f0160208091040260200160405190810160405280929190818152602001828054610ac4906133cd565b8015610b115780601f10610ae657610100808354040283529160200191610b11565b820191906000526020600020905b815481529060010190602001808311610af457829003601f168201915b5050505050905090565b600080610b26612069565b9050610b33818585612071565b600191505092915050565b6000600660009054906101000a900473ffffffffffffffffffffffffffffffffffffffff1673ffffffffffffffffffffffffffffffffffffffff166320853b28836040518263ffffffff1660e01b8152600401610b9b9190612f16565b60206040518083038186803b158015610bb357600080fd5b505afa158015610bc7573d6000803e3d6000fd5b505050506040513d601f19601f82011682018060405250810190610beb9190612b25565b610c2a576040517f08c379a0000000000000000000000000000000000000000000000000000000008152600401610c2190613083565b60405180910390fd5b8173ffffffffffffffffffffffffffffffffffffffff163373ffffffffffffffffffffffffffffffffffffffff161415610c99576040517f08c379a0000000000000000000000000000000000000000000000000000000008152600401610c90906130e3565b60405180910390fd5b60006001601080549050610cad9190613284565b90506000610cbb338761223c565b85600c6000828254610ccd9190613284565b92505081905550806001811115610ce757610ce6613477565b5b856001811115610cfa57610cf9613477565b5b1415610d0f57610d0a8487612413565b610d80565b600086610d1b86611784565b610d2591906132da565b1015610d5b57610d3d84610d3886611784565b61223c565b85600d6000828254610d4f9190613284565b92505081905550610d7f565b610d65848761223c565b85600d6000828254610d779190613284565b925050819055505b5b601160008573ffffffffffffffffffffffffffffffffffffffff1673ffffffffffffffffffffffffffffffffffffffff16815260200190815260200160002060009054906101000a900460ff1615610fe157600f849080600181540180825580915050600190039060005260206000200160009091909190916101000a81548173ffffffffffffffffffffffffffffffffffffffff021916908373ffffffffffffffffffffffffffffffffffffffff16021790555060106040518060a001604052808481526020018881526020013373ffffffffffffffffffffffffffffffffffffffff168152602001876001811115610e7d57610e7c613477565b5b81526020018673ffffffffffffffffffffffffffffffffffffffff168152509080600181540180825580915050600190039060005260206000209060040201600090919091909150600082015181600001556020820151816001015560408201518160020160006101000a81548173ffffffffffffffffffffffffffffffffffffffff021916908373ffffffffffffffffffffffffffffffffffffffff16021790555060608201518160020160146101000a81548160ff02191690836001811115610f4b57610f4a613477565b5b021790555060808201518160030160006101000a81548173ffffffffffffffffffffffffffffffffffffffff021916908373ffffffffffffffffffffffffffffffffffffffff16021790555050507f6f6b2d2c516bee6bab99fd289c9cb0d1ed0f93de049b73baf1e98b3daa67d75233878688604051610fce9493929190612f31565b60405180910390a1600192505050611290565b601160008573ffffffffffffffffffffffffffffffffffffffff1673ffffffffffffffffffffffffffffffffffffffff16815260200190815260200160002060009054906101000a900460ff1615601160008673ffffffffffffffffffffffffffffffffffffffff1673ffffffffffffffffffffffffffffffffffffffff16815260200190815260200160002060006101000a81548160ff021916908315150217905550600f849080600181540180825580915050600190039060005260206000200160009091909190916101000a81548173ffffffffffffffffffffffffffffffffffffffff021916908373ffffffffffffffffffffffffffffffffffffffff16021790555060106040518060a001604052808481526020018881526020013373ffffffffffffffffffffffffffffffffffffffff1681526020018760018111156111305761112f613477565b5b81526020018673ffffffffffffffffffffffffffffffffffffffff168152509080600181540180825580915050600190039060005260206000209060040201600090919091909150600082015181600001556020820151816001015560408201518160020160006101000a81548173ffffffffffffffffffffffffffffffffffffffff021916908373ffffffffffffffffffffffffffffffffffffffff16021790555060608201518160020160146101000a81548160ff021916908360018111156111fe576111fd613477565b5b021790555060808201518160030160006101000a81548173ffffffffffffffffffffffffffffffffffffffff021916908373ffffffffffffffffffffffffffffffffffffffff16021790555050507f6f6b2d2c516bee6bab99fd289c9cb0d1ed0f93de049b73baf1e98b3daa67d752338786886040516112819493929190612f31565b60405180910390a16001925050505b9392505050565b600c5481565b6000600254905090565b6000600660009054906101000a900473ffffffffffffffffffffffffffffffffffffffff1673ffffffffffffffffffffffffffffffffffffffff166320853b28836040518263ffffffff1660e01b81526004016113049190612f16565b60206040518083038186803b15801561131c57600080fd5b505afa158015611330573d6000803e3d6000fd5b505050506040513d601f19601f820116820180604052508101906113549190612b25565b9050919050565b6000611365612069565b73ffffffffffffffffffffffffffffffffffffffff16611383611874565b73ffffffffffffffffffffffffffffffffffffffff16146113d9576040517f08c379a00000000000000000000000000000000000000000000000000000000081526004016113d090613103565b60405180910390fd5b8160078190555060019050919050565b6000806113f4612069565b9050611401858285612573565b61140c8585856125ff565b60019150509392505050565b6000611422612069565b73ffffffffffffffffffffffffffffffffffffffff16611440611874565b73ffffffffffffffffffffffffffffffffffffffff1614611496576040517f08c379a000000000000000000000000000000000000000000000000000000000815260040161148d90613103565b60405180910390fd5b81600b8190555060019050919050565b600a5481565b60006001905090565b60006114c5600c54600d54612880565b905090565b6000806114d5612069565b90506114f68185856114e78589611b1f565b6114f19190613284565b612071565b600191505092915050565b60085481565b611518611512612069565b8261223c565b50565b6000611525612069565b73ffffffffffffffffffffffffffffffffffffffff16611543611874565b73ffffffffffffffffffffffffffffffffffffffff1614611599576040517f08c379a000000000000000000000000000000000000000000000000000000000815260040161159090613103565b60405180910390fd5b600960008373ffffffffffffffffffffffffffffffffffffffff1673ffffffffffffffffffffffffffffffffffffffff16815260200190815260200160002060009054906101000a900460ff1615600960008473ffffffffffffffffffffffffffffffffffffffff1673ffffffffffffffffffffffffffffffffffffffff16815260200190815260200160002060006101000a81548160ff02191690831515021790555081600660006101000a81548173ffffffffffffffffffffffffffffffffffffffff021916908373ffffffffffffffffffffffffffffffffffffffff16021790555060019050919050565b600d5481565b6007546008544261169e91906132da565b11156116b557426008819055506116b3611c59565b505b5050565b600e5481565b6000600660009054906101000a900473ffffffffffffffffffffffffffffffffffffffff1673ffffffffffffffffffffffffffffffffffffffff163373ffffffffffffffffffffffffffffffffffffffff1614611751576040517f08c379a0000000000000000000000000000000000000000000000000000000008152600401611748906130c3565b60405180910390fd5b61175c826001612413565b60019050919050565b600060606007546008544261177a91906132da565b1191509250929050565b60008060008373ffffffffffffffffffffffffffffffffffffffff1673ffffffffffffffffffffffffffffffffffffffff168152602001908152602001600020549050919050565b6117d4612069565b73ffffffffffffffffffffffffffffffffffffffff166117f2611874565b73ffffffffffffffffffffffffffffffffffffffff1614611848576040517f08c379a000000000000000000000000000000000000000000000000000000000815260040161183f90613103565b60405180910390fd5b6118526000612896565b565b61186682611860612069565b83612573565b611870828261223c565b5050565b6000600560009054906101000a900473ffffffffffffffffffffffffffffffffffffffff16905090565b60075481565b6060600480546118b3906133cd565b80601f01602080910402602001604051908101604052809291908181526020018280546118df906133cd565b801561192c5780601f106119015761010080835404028352916020019161192c565b820191906000526020600020905b81548152906001019060200180831161190f57829003601f168201915b5050505050905090565b6000601260008373ffffffffffffffffffffffffffffffffffffffff1673ffffffffffffffffffffffffffffffffffffffff16815260200190815260200160002060009054906101000a900460ff1615601260008473ffffffffffffffffffffffffffffffffffffffff1673ffffffffffffffffffffffffffffffffffffffff16815260200190815260200160002060006101000a81548160ff02191690831515021790555060019050919050565b60126020528060005260406000206000915054906101000a900460ff1681565b6000600c54905090565b6000601160008373ffffffffffffffffffffffffffffffffffffffff1673ffffffffffffffffffffffffffffffffffffffff16815260200190815260200160002060009054906101000a900460ff169050919050565b600080611a70612069565b90506000611a7e8286611b1f565b905083811015611ac3576040517f08c379a0000000000000000000000000000000000000000000000000000000008152600401611aba90613183565b60405180910390fd5b611ad08286868403612071565b60019250505092915050565b600080611ae7612069565b9050611af48185856125ff565b600191505092915050565b60116020528060005260406000206000915054906101000a900460ff1681565b6000600160008473ffffffffffffffffffffffffffffffffffffffff1673ffffffffffffffffffffffffffffffffffffffff16815260200190815260200160002060008373ffffffffffffffffffffffffffffffffffffffff1673ffffffffffffffffffffffffffffffffffffffff16815260200190815260200160002054905092915050565b60096020528060005260406000206000915054906101000a900460ff1681565b60108181548110611bd657600080fd5b90600052602060002090600402016000915090508060000154908060010154908060020160009054906101000a900473ffffffffffffffffffffffffffffffffffffffff16908060020160149054906101000a900460ff16908060030160009054906101000a900473ffffffffffffffffffffffffffffffffffffffff16905085565b6000611c63612069565b73ffffffffffffffffffffffffffffffffffffffff16611c81611874565b73ffffffffffffffffffffffffffffffffffffffff1614611cd7576040517f08c379a0000000000000000000000000000000000000000000000000000000008152600401611cce90613103565b60405180910390fd5b6000600c819055506000600d8190555060005b600f80549050811015611de157600f8181548110611d0b57611d0a6134d5565b5b9060005260206000200160006101000a81549073ffffffffffffffffffffffffffffffffffffffff0219169055600060126000600f8481548110611d5257611d516134d5565b5b9060005260206000200160009054906101000a900473ffffffffffffffffffffffffffffffffffffffff1673ffffffffffffffffffffffffffffffffffffffff1673ffffffffffffffffffffffffffffffffffffffff16815260200190815260200160002060006101000a81548160ff0219169083151502179055508080611dd9906133ff565b915050611cea565b5060005b601080549050811015611e9c5760108181548110611e0657611e056134d5565b5b906000526020600020906004020160008082016000905560018201600090556002820160006101000a81549073ffffffffffffffffffffffffffffffffffffffff02191690556002820160146101000a81549060ff02191690556003820160006101000a81549073ffffffffffffffffffffffffffffffffffffffff021916905550508080611e94906133ff565b915050611de5565b506001905090565b600f8181548110611eb457600080fd5b906000526020600020016000915054906101000a900473ffffffffffffffffffffffffffffffffffffffff1681565b611eeb612069565b73ffffffffffffffffffffffffffffffffffffffff16611f09611874565b73ffffffffffffffffffffffffffffffffffffffff1614611f5f576040517f08c379a0000000000000000000000000000000000000000000000000000000008152600401611f5690613103565b60405180910390fd5b600073ffffffffffffffffffffffffffffffffffffffff168173ffffffffffffffffffffffffffffffffffffffff161415611fcf576040517f08c379a0000000000000000000000000000000000000000000000000000000008152600401611fc690613023565b60405180910390fd5b611fd881612896565b50565b6000611fe5612069565b73ffffffffffffffffffffffffffffffffffffffff16612003611874565b73ffffffffffffffffffffffffffffffffffffffff1614612059576040517f08c379a000000000000000000000000000000000000000000000000000000000815260040161205090613103565b60405180910390fd5b81600e8190555060019050919050565b600033905090565b600073ffffffffffffffffffffffffffffffffffffffff168373ffffffffffffffffffffffffffffffffffffffff1614156120e1576040517f08c379a00000000000000000000000000000000000000000000000000000000081526004016120d890613163565b60405180910390fd5b600073ffffffffffffffffffffffffffffffffffffffff168273ffffffffffffffffffffffffffffffffffffffff161415612151576040517f08c379a000000000000000000000000000000000000000000000000000000000815260040161214890613043565b60405180910390fd5b80600160008573ffffffffffffffffffffffffffffffffffffffff1673ffffffffffffffffffffffffffffffffffffffff16815260200190815260200160002060008473ffffffffffffffffffffffffffffffffffffffff1673ffffffffffffffffffffffffffffffffffffffff168152602001908152602001600020819055508173ffffffffffffffffffffffffffffffffffffffff168373ffffffffffffffffffffffffffffffffffffffff167f8c5be1e5ebec7d5bd14f71427d1e84f3dd0314c0f7b2291e5b200ac8c7c3b9258360405161222f91906131c3565b60405180910390a3505050565b600073ffffffffffffffffffffffffffffffffffffffff168273ffffffffffffffffffffffffffffffffffffffff1614156122ac576040517f08c379a00000000000000000000000000000000000000000000000000000000081526004016122a390613123565b60405180910390fd5b6122b88260008361295c565b60008060008473ffffffffffffffffffffffffffffffffffffffff1673ffffffffffffffffffffffffffffffffffffffff1681526020019081526020016000205490508181101561233e576040517f08c379a000000000000000000000000000000000000000000000000000000000815260040161233590613003565b60405180910390fd5b8181036000808573ffffffffffffffffffffffffffffffffffffffff1673ffffffffffffffffffffffffffffffffffffffff16815260200190815260200160002081905550816002600082825461239591906132da565b92505081905550600073ffffffffffffffffffffffffffffffffffffffff168373ffffffffffffffffffffffffffffffffffffffff167fddf252ad1be2c89b69c2b068fc378daa952ba7f163c4a11628f55a4df523b3ef846040516123fa91906131c3565b60405180910390a361240e83600084612961565b505050565b600073ffffffffffffffffffffffffffffffffffffffff168273ffffffffffffffffffffffffffffffffffffffff161415612483576040517f08c379a000000000000000000000000000000000000000000000000000000000815260040161247a906131a3565b60405180910390fd5b61248f6000838361295c565b80600260008282546124a19190613284565b92505081905550806000808473ffffffffffffffffffffffffffffffffffffffff1673ffffffffffffffffffffffffffffffffffffffff16815260200190815260200160002060008282546124f69190613284565b925050819055508173ffffffffffffffffffffffffffffffffffffffff16600073ffffffffffffffffffffffffffffffffffffffff167fddf252ad1be2c89b69c2b068fc378daa952ba7f163c4a11628f55a4df523b3ef8360405161255b91906131c3565b60405180910390a361256f60008383612961565b5050565b600061257f8484611b1f565b90507fffffffffffffffffffffffffffffffffffffffffffffffffffffffffffffffff81146125f957818110156125eb576040517f08c379a00000000000000000000000000000000000000000000000000000000081526004016125e290613063565b60405180910390fd5b6125f88484848403612071565b5b50505050565b600073ffffffffffffffffffffffffffffffffffffffff168373ffffffffffffffffffffffffffffffffffffffff16141561266f576040517f08c379a000000000000000000000000000000000000000000000000000000000815260040161266690613143565b60405180910390fd5b600073ffffffffffffffffffffffffffffffffffffffff168273ffffffffffffffffffffffffffffffffffffffff1614156126df576040517f08c379a00000000000000000000000000000000000000000000000000000000081526004016126d690612fe3565b60405180910390fd5b6126ea83838361295c565b60008060008573ffffffffffffffffffffffffffffffffffffffff1673ffffffffffffffffffffffffffffffffffffffff16815260200190815260200160002054905081811015612770576040517f08c379a0000000000000000000000000000000000000000000000000000000008152600401612767906130a3565b60405180910390fd5b8181036000808673ffffffffffffffffffffffffffffffffffffffff1673ffffffffffffffffffffffffffffffffffffffff16815260200190815260200160002081905550816000808573ffffffffffffffffffffffffffffffffffffffff1673ffffffffffffffffffffffffffffffffffffffff16815260200190815260200160002060008282546128039190613284565b925050819055508273ffffffffffffffffffffffffffffffffffffffff168473ffffffffffffffffffffffffffffffffffffffff167fddf252ad1be2c89b69c2b068fc378daa952ba7f163c4a11628f55a4df523b3ef8460405161286791906131c3565b60405180910390a361287a848484612961565b50505050565b6000818361288e91906132da565b905092915050565b6000600560009054906101000a900473ffffffffffffffffffffffffffffffffffffffff16905081600560006101000a81548173ffffffffffffffffffffffffffffffffffffffff021916908373ffffffffffffffffffffffffffffffffffffffff1602179055508173ffffffffffffffffffffffffffffffffffffffff168173ffffffffffffffffffffffffffffffffffffffff167f8be0079c531659141344cd1fd0a4f28419497f9722a3daafe3b4186f6b6457e060405160405180910390a35050565b505050565b505050565b600081359050612975816138ff565b92915050565b60008151905061298a81613916565b92915050565b60008083601f8401126129a6576129a5613509565b5b8235905067ffffffffffffffff8111156129c3576129c2613504565b5b6020830191508360018202830111156129df576129de61350e565b5b9250929050565b6000813590506129f58161392d565b92915050565b600081359050612a0a81613944565b92915050565b600081359050612a1f81613954565b92915050565b600060208284031215612a3b57612a3a613518565b5b6000612a4984828501612966565b91505092915050565b60008060408385031215612a6957612a68613518565b5b6000612a7785828601612966565b9250506020612a8885828601612966565b9150509250929050565b600080600060608486031215612aab57612aaa613518565b5b6000612ab986828701612966565b9350506020612aca86828701612966565b9250506040612adb86828701612a10565b9150509250925092565b60008060408385031215612afc57612afb613518565b5b6000612b0a85828601612966565b9250506020612b1b85828601612a10565b9150509250929050565b600060208284031215612b3b57612b3a613518565b5b6000612b498482850161297b565b91505092915050565b60008060208385031215612b6957612b68613518565b5b600083013567ffffffffffffffff811115612b8757612b86613513565b5b612b9385828601612990565b92509250509250929050565b600060208284031215612bb557612bb4613518565b5b6000612bc3848285016129e6565b91505092915050565b600060208284031215612be257612be1613518565b5b6000612bf084828501612a10565b91505092915050565b600080600060608486031215612c1257612c11613518565b5b6000612c2086828701612a10565b9350506020612c31868287016129fb565b9250506040612c4286828701612966565b9150509250925092565b612c558161330e565b82525050565b612c6481613320565b82525050565b6000612c758261324c565b612c7f8185613262565b9350612c8f81856020860161339a565b612c988161351d565b840191505092915050565b612cac81613388565b82525050565b6000612cbd82613257565b612cc78185613273565b9350612cd781856020860161339a565b612ce08161351d565b840191505092915050565b6000612cf8602383613273565b9150612d038261352e565b604082019050919050565b6000612d1b602283613273565b9150612d268261357d565b604082019050919050565b6000612d3e602683613273565b9150612d49826135cc565b604082019050919050565b6000612d61602283613273565b9150612d6c8261361b565b604082019050919050565b6000612d84601d83613273565b9150612d8f8261366a565b602082019050919050565b6000612da7600c83613273565b9150612db282613693565b602082019050919050565b6000612dca602683613273565b9150612dd5826136bc565b604082019050919050565b6000612ded600d83613273565b9150612df88261370b565b602082019050919050565b6000612e10601483613273565b9150612e1b82613734565b602082019050919050565b6000612e33602083613273565b9150612e3e8261375d565b602082019050919050565b6000612e56602183613273565b9150612e6182613786565b604082019050919050565b6000612e79602583613273565b9150612e84826137d5565b604082019050919050565b6000612e9c602483613273565b9150612ea782613824565b604082019050919050565b6000612ebf602583613273565b9150612eca82613873565b604082019050919050565b6000612ee2601f83613273565b9150612eed826138c2565b602082019050919050565b612f0181613371565b82525050565b612f108161337b565b82525050565b6000602082019050612f2b6000830184612c4c565b92915050565b6000608082019050612f466000830187612c4c565b612f536020830186612ef8565b612f606040830185612c4c565b612f6d6060830184612ca3565b95945050505050565b6000602082019050612f8b6000830184612c5b565b92915050565b6000604082019050612fa66000830185612c5b565b8181036020830152612fb88184612c6a565b90509392505050565b60006020820190508181036000830152612fdb8184612cb2565b905092915050565b60006020820190508181036000830152612ffc81612ceb565b9050919050565b6000602082019050818103600083015261301c81612d0e565b9050919050565b6000602082019050818103600083015261303c81612d31565b9050919050565b6000602082019050818103600083015261305c81612d54565b9050919050565b6000602082019050818103600083015261307c81612d77565b9050919050565b6000602082019050818103600083015261309c81612d9a565b9050919050565b600060208201905081810360008301526130bc81612dbd565b9050919050565b600060208201905081810360008301526130dc81612de0565b9050919050565b600060208201905081810360008301526130fc81612e03565b9050919050565b6000602082019050818103600083015261311c81612e26565b9050919050565b6000602082019050818103600083015261313c81612e49565b9050919050565b6000602082019050818103600083015261315c81612e6c565b9050919050565b6000602082019050818103600083015261317c81612e8f565b9050919050565b6000602082019050818103600083015261319c81612eb2565b9050919050565b600060208201905081810360008301526131bc81612ed5565b9050919050565b60006020820190506131d86000830184612ef8565b92915050565b600060a0820190506131f36000830188612ef8565b6132006020830187612ef8565b61320d6040830186612c4c565b61321a6060830185612ca3565b6132276080830184612c4c565b9695505050505050565b60006020820190506132466000830184612f07565b92915050565b600081519050919050565b600081519050919050565b600082825260208201905092915050565b600082825260208201905092915050565b600061328f82613371565b915061329a83613371565b9250827fffffffffffffffffffffffffffffffffffffffffffffffffffffffffffffffff038211156132cf576132ce613448565b5b828201905092915050565b60006132e582613371565b91506132f083613371565b92508282101561330357613302613448565b5b828203905092915050565b600061331982613351565b9050919050565b60008115159050919050565b60006133378261330e565b9050919050565b600081905061334c826138eb565b919050565b600073ffffffffffffffffffffffffffffffffffffffff82169050919050565b6000819050919050565b600060ff82169050919050565b60006133938261333e565b9050919050565b60005b838110156133b857808201518184015260208101905061339d565b838111156133c7576000848401525b50505050565b600060028204905060018216806133e557607f821691505b602082108114156133f9576133f86134a6565b5b50919050565b600061340a82613371565b91507fffffffffffffffffffffffffffffffffffffffffffffffffffffffffffffffff82141561343d5761343c613448565b5b600182019050919050565b7f4e487b7100000000000000000000000000000000000000000000000000000000600052601160045260246000fd5b7f4e487b7100000000000000000000000000000000000000000000000000000000600052602160045260246000fd5b7f4e487b7100000000000000000000000000000000000000000000000000000000600052602260045260246000fd5b7f4e487b7100000000000000000000000000000000000000000000000000000000600052603260045260246000fd5b600080fd5b600080fd5b600080fd5b600080fd5b600080fd5b6000601f19601f8301169050919050565b7f45524332303a207472616e7366657220746f20746865207a65726f206164647260008201527f6573730000000000000000000000000000000000000000000000000000000000602082015250565b7f45524332303a206275726e20616d6f756e7420657863656564732062616c616e60008201527f6365000000000000000000000000000000000000000000000000000000000000602082015250565b7f4f776e61626c653a206e6577206f776e657220697320746865207a65726f206160008201527f6464726573730000000000000000000000000000000000000000000000000000602082015250565b7f45524332303a20617070726f766520746f20746865207a65726f20616464726560008201527f7373000000000000000000000000000000000000000000000000000000000000602082015250565b7f45524332303a20696e73756666696369656e7420616c6c6f77616e6365000000600082015250565b7f6e6f7420612076656e646f720000000000000000000000000000000000000000600082015250565b7f45524332303a207472616e7366657220616d6f756e742065786365656473206260008201527f616c616e63650000000000000000000000000000000000000000000000000000602082015250565b7f6f7574206f6620626f756e647300000000000000000000000000000000000000600082015250565b7f63616e6e6f7420766f746520796f757273656c66000000000000000000000000600082015250565b7f4f776e61626c653a2063616c6c6572206973206e6f7420746865206f776e6572600082015250565b7f45524332303a206275726e2066726f6d20746865207a65726f2061646472657360008201527f7300000000000000000000000000000000000000000000000000000000000000602082015250565b7f45524332303a207472616e736665722066726f6d20746865207a65726f20616460008201527f6472657373000000000000000000000000000000000000000000000000000000602082015250565b7f45524332303a20617070726f76652066726f6d20746865207a65726f2061646460008201527f7265737300000000000000000000000000000000000000000000000000000000602082015250565b7f45524332303a2064656372656173656420616c6c6f77616e63652062656c6f7760008201527f207a65726f000000000000000000000000000000000000000000000000000000602082015250565b7f45524332303a206d696e7420746f20746865207a65726f206164647265737300600082015250565b600281106138fc576138fb613477565b5b50565b6139088161330e565b811461391357600080fd5b50565b61391f81613320565b811461392a57600080fd5b50565b6139368161332c565b811461394157600080fd5b50565b6002811061395157600080fd5b50565b61395d81613371565b811461396857600080fd5b5056fea264697066735822122022ddee7aa5e15537077feced13d7035e43c3ebf0f2760c27a0ea6917a5b8428864736f6c63430008070033",
  "linkReferences": {},
  "deployedLinkReferences": {}
}