{
  "_format": "hh-sol-artifact-1",
  "contractName": "Map3Pay",
  "sourceName": "contracts/Map3.sol",
  "abi": [
    {
      "inputs": [
        {
          "internalType": "address",
          "name": "_rewardtoken",
          "type": "address"
        },
        {
          "internalType": "address",
          "name": "_feeColector",
          "type": "address"
        }
      ],
      "stateMutability": "payable",
      "type": "constructor"
    },
    {
      "anonymous": false,
      "inputs": [
        {
          "indexed": false,
          "internalType": "contract IERC20",
          "name": "sellToken",
          "type": "address"
        },
        {
          "indexed": false,
          "internalType": "contract IERC20",
          "name": "buyToken",
          "type": "address"
        },
        {
          "indexed": false,
          "internalType": "uint256",
          "name": "boughtAmount",
          "type": "uint256"
        }
      ],
      "name": "FilledSwapOrder",
      "type": "event"
    },
    {
      "anonymous": false,
      "inputs": [
        {
          "indexed": false,
          "internalType": "address",
          "name": "from",
          "type": "address"
        },
        {
          "indexed": false,
          "internalType": "address",
          "name": "to",
          "type": "address"
        },
        {
          "indexed": false,
          "internalType": "address",
          "name": "tokenIn",
          "type": "address"
        },
        {
          "indexed": false,
          "internalType": "address",
          "name": "tokenOut",
          "type": "address"
        },
        {
          "indexed": false,
          "internalType": "uint256",
          "name": "amount",
          "type": "uint256"
        }
      ],
      "name": "MoneySpent",
      "type": "event"
    },
    {
      "anonymous": false,
      "inputs": [
        {
          "indexed": true,
          "internalType": "address",
          "name": "previousOwner",
          "type": "address"
        },
        {
          "indexed": true,
          "internalType": "address",
          "name": "newOwner",
          "type": "address"
        }
      ],
      "name": "OwnershipTransferred",
      "type": "event"
    },
    {
      "anonymous": false,
      "inputs": [
        {
          "indexed": false,
          "internalType": "address",
          "name": "sender",
          "type": "address"
        },
        {
          "indexed": false,
          "internalType": "address",
          "name": "to",
          "type": "address"
        },
        {
          "indexed": false,
          "internalType": "uint256",
          "name": "amount",
          "type": "uint256"
        }
      ],
      "name": "Paid",
      "type": "event"
    },
    {
      "anonymous": false,
      "inputs": [
        {
          "indexed": false,
          "internalType": "address",
          "name": "vendorsWalletAddress",
          "type": "address"
        },
        {
          "indexed": false,
          "internalType": "string",
          "name": "vendorsName",
          "type": "string"
        },
        {
          "indexed": false,
          "internalType": "string",
          "name": "vendorsStreetAddress",
          "type": "string"
        },
        {
          "indexed": false,
          "internalType": "string",
          "name": "vendorsCity",
          "type": "string"
        },
        {
          "indexed": false,
          "internalType": "string",
          "name": "vendorsState",
          "type": "string"
        },
        {
          "indexed": false,
          "internalType": "string",
          "name": "vendorsZip",
          "type": "string"
        },
        {
          "indexed": false,
          "internalType": "string",
          "name": "vendorsPhone",
          "type": "string"
        }
      ],
      "name": "VendorCreated",
      "type": "event"
    },
    {
      "anonymous": false,
      "inputs": [
        {
          "indexed": false,
          "internalType": "string",
          "name": "vendorsBio",
          "type": "string"
        },
        {
          "indexed": false,
          "internalType": "string",
          "name": "vendorsLat",
          "type": "string"
        },
        {
          "indexed": false,
          "internalType": "string",
          "name": "vendorsLong",
          "type": "string"
        },
        {
          "indexed": false,
          "internalType": "string",
          "name": "vendorsImageUrl",
          "type": "string"
        },
        {
          "indexed": false,
          "internalType": "string",
          "name": "vendorsWebsiteUrl",
          "type": "string"
        },
        {
          "indexed": false,
          "internalType": "uint256",
          "name": "vendorsId",
          "type": "uint256"
        },
        {
          "indexed": false,
          "internalType": "contract IERC20",
          "name": "vendorsToken",
          "type": "address"
        }
      ],
      "name": "newVendorInfo",
      "type": "event"
    },
    {
      "inputs": [
        {
          "internalType": "contract IERC20",
          "name": "_Coin",
          "type": "address"
        },
        {
          "internalType": "address",
          "name": "_account",
          "type": "address"
        }
      ],
      "name": "GetAllowance",
      "outputs": [
        {
          "internalType": "uint256",
          "name": "",
          "type": "uint256"
        }
      ],
      "stateMutability": "view",
      "type": "function"
    },
    {
      "inputs": [
        {
          "internalType": "contract IERC20",
          "name": "_tokenIn",
          "type": "address"
        }
      ],
      "name": "GetContractTokenBalance",
      "outputs": [
        {
          "internalType": "uint256",
          "name": "",
          "type": "uint256"
        }
      ],
      "stateMutability": "view",
      "type": "function"
    },
    {
      "inputs": [
        {
          "internalType": "contract IERC20",
          "name": "_Coin",
          "type": "address"
        }
      ],
      "name": "GetThisContractAllowance",
      "outputs": [
        {
          "internalType": "uint256",
          "name": "",
          "type": "uint256"
        }
      ],
      "stateMutability": "view",
      "type": "function"
    },
    {
      "inputs": [
        {
          "internalType": "uint256",
          "name": "_tokenamount",
          "type": "uint256"
        },
        {
          "internalType": "address",
          "name": "_to",
          "type": "address"
        },
        {
          "internalType": "contract IERC20",
          "name": "_tokenIn",
          "type": "address"
        }
      ],
      "name": "SameTokenPay",
      "outputs": [
        {
          "internalType": "bool",
          "name": "",
          "type": "bool"
        }
      ],
      "stateMutability": "payable",
      "type": "function"
    },
    {
      "inputs": [],
      "name": "VendorId",
      "outputs": [
        {
          "internalType": "uint256",
          "name": "",
          "type": "uint256"
        }
      ],
      "stateMutability": "view",
      "type": "function"
    },
    {
      "inputs": [
        {
          "internalType": "uint256",
          "name": "",
          "type": "uint256"
        }
      ],
      "name": "VendorList",
      "outputs": [
        {
          "internalType": "address",
          "name": "vendorsWalletAddress",
          "type": "address"
        },
        {
          "internalType": "string",
          "name": "vendorsName",
          "type": "string"
        },
        {
          "internalType": "string",
          "name": "vendorsPhone",
          "type": "string"
        },
        {
          "internalType": "string",
          "name": "vendorsBio",
          "type": "string"
        },
        {
          "internalType": "string",
          "name": "vendorsLat",
          "type": "string"
        },
        {
          "internalType": "string",
          "name": "vendorsLong",
          "type": "string"
        },
        {
          "internalType": "string",
          "name": "vendorsImageUrl",
          "type": "string"
        },
        {
          "internalType": "string",
          "name": "vendorsWebsiteUrl",
          "type": "string"
        },
        {
          "internalType": "uint256",
          "name": "vendorsId",
          "type": "uint256"
        },
        {
          "internalType": "contract IERC20",
          "name": "vendorsToken",
          "type": "address"
        }
      ],
      "stateMutability": "view",
      "type": "function"
    },
    {
      "inputs": [
        {
          "components": [
            {
              "internalType": "address",
              "name": "vendorsWalletAddress",
              "type": "address"
            },
            {
              "internalType": "string",
              "name": "vendorsName",
              "type": "string"
            },
            {
              "internalType": "string",
              "name": "vendorsStreetAddress",
              "type": "string"
            },
            {
              "internalType": "string",
              "name": "vendorsCity",
              "type": "string"
            },
            {
              "internalType": "string",
              "name": "vendorsState",
              "type": "string"
            },
            {
              "internalType": "string",
              "name": "vendorsZip",
              "type": "string"
            },
            {
              "internalType": "string",
              "name": "vendorsPhone",
              "type": "string"
            },
            {
              "internalType": "string",
              "name": "vendorsBio",
              "type": "string"
            },
            {
              "internalType": "string",
              "name": "vendorsLat",
              "type": "string"
            },
            {
              "internalType": "string",
              "name": "vendorsLong",
              "type": "string"
            },
            {
              "internalType": "string",
              "name": "vendorsImageUrl",
              "type": "string"
            },
            {
              "internalType": "string",
              "name": "vendorsWebsiteUrl",
              "type": "string"
            },
            {
              "internalType": "contract IERC20",
              "name": "vendorsToken",
              "type": "address"
            }
          ],
          "internalType": "struct Map3Pay.signUpVendor",
          "name": "_signUpVendor",
          "type": "tuple"
        }
      ],
      "name": "addVendor",
      "outputs": [
        {
          "internalType": "bool",
          "name": "",
          "type": "bool"
        }
      ],
      "stateMutability": "payable",
      "type": "function"
    },
    {
      "inputs": [],
      "name": "approveAmmount",
      "outputs": [
        {
          "internalType": "uint256",
          "name": "",
          "type": "uint256"
        }
      ],
      "stateMutability": "view",
      "type": "function"
    },
    {
      "inputs": [
        {
          "internalType": "address",
          "name": "_account",
          "type": "address"
        }
      ],
      "name": "checkIsVendor",
      "outputs": [
        {
          "internalType": "bool",
          "name": "",
          "type": "bool"
        }
      ],
      "stateMutability": "view",
      "type": "function"
    },
    {
      "inputs": [],
      "name": "decimalMultiplier",
      "outputs": [
        {
          "internalType": "uint256",
          "name": "",
          "type": "uint256"
        }
      ],
      "stateMutability": "view",
      "type": "function"
    },
    {
      "inputs": [],
      "name": "feeColector",
      "outputs": [
        {
          "internalType": "address",
          "name": "",
          "type": "address"
        }
      ],
      "stateMutability": "view",
      "type": "function"
    },
    {
      "inputs": [
        {
          "internalType": "contract IERC20",
          "name": "sellToken",
          "type": "address"
        },
        {
          "internalType": "contract IERC20",
          "name": "buyToken",
          "type": "address"
        },
        {
          "internalType": "address",
          "name": "spender",
          "type": "address"
        },
        {
          "internalType": "address payable",
          "name": "swapTarget",
          "type": "address"
        },
        {
          "internalType": "bytes",
          "name": "swapCallData",
          "type": "bytes"
        },
        {
          "internalType": "uint256",
          "name": "_tokenamount",
          "type": "uint256"
        },
        {
          "internalType": "uint256",
          "name": "_sendAmount",
          "type": "uint256"
        },
        {
          "internalType": "address",
          "name": "_toAddress",
          "type": "address"
        }
      ],
      "name": "fillQuote",
      "outputs": [],
      "stateMutability": "payable",
      "type": "function"
    },
    {
      "inputs": [],
      "name": "getRewardsPoolBalance",
      "outputs": [
        {
          "internalType": "uint256",
          "name": "",
          "type": "uint256"
        }
      ],
      "stateMutability": "view",
      "type": "function"
    },
    {
      "inputs": [
        {
          "internalType": "address",
          "name": "",
          "type": "address"
        }
      ],
      "name": "isVendor",
      "outputs": [
        {
          "internalType": "bool",
          "name": "",
          "type": "bool"
        }
      ],
      "stateMutability": "view",
      "type": "function"
    },
    {
      "inputs": [],
      "name": "numberOfVendors",
      "outputs": [
        {
          "internalType": "uint256",
          "name": "",
          "type": "uint256"
        }
      ],
      "stateMutability": "view",
      "type": "function"
    },
    {
      "inputs": [],
      "name": "owner",
      "outputs": [
        {
          "internalType": "address",
          "name": "",
          "type": "address"
        }
      ],
      "stateMutability": "view",
      "type": "function"
    },
    {
      "inputs": [],
      "name": "rate",
      "outputs": [
        {
          "internalType": "uint256",
          "name": "",
          "type": "uint256"
        }
      ],
      "stateMutability": "view",
      "type": "function"
    },
    {
      "inputs": [],
      "name": "renounceOwnership",
      "outputs": [],
      "stateMutability": "nonpayable",
      "type": "function"
    },
    {
      "inputs": [],
      "name": "rewardsPoolBalance",
      "outputs": [
        {
          "internalType": "uint256",
          "name": "",
          "type": "uint256"
        }
      ],
      "stateMutability": "view",
      "type": "function"
    },
    {
      "inputs": [
        {
          "internalType": "address",
          "name": "_rewardtoken",
          "type": "address"
        }
      ],
      "name": "setCoins",
      "outputs": [
        {
          "internalType": "bool",
          "name": "",
          "type": "bool"
        }
      ],
      "stateMutability": "nonpayable",
      "type": "function"
    },
    {
      "inputs": [
        {
          "internalType": "uint256",
          "name": "_rate",
          "type": "uint256"
        }
      ],
      "name": "setRate",
      "outputs": [
        {
          "internalType": "bool",
          "name": "",
          "type": "bool"
        }
      ],
      "stateMutability": "nonpayable",
      "type": "function"
    },
    {
      "inputs": [
        {
          "internalType": "uint256",
          "name": "_price",
          "type": "uint256"
        }
      ],
      "name": "setVendorSignUpFee",
      "outputs": [
        {
          "internalType": "bool",
          "name": "",
          "type": "bool"
        }
      ],
      "stateMutability": "nonpayable",
      "type": "function"
    },
    {
      "inputs": [
        {
          "internalType": "address",
          "name": "newOwner",
          "type": "address"
        }
      ],
      "name": "transferOwnership",
      "outputs": [],
      "stateMutability": "nonpayable",
      "type": "function"
    },
    {
      "inputs": [],
      "name": "vendorSignUpFee",
      "outputs": [
        {
          "internalType": "uint256",
          "name": "",
          "type": "uint256"
        }
      ],
      "stateMutability": "view",
      "type": "function"
    },
    {
      "stateMutability": "payable",
      "type": "receive"
    }
  ],
  "bytecode": "0x608060405261271060055560006007556005600a557fffffffffffffffffffffffffffffffffffffffffffffffffffffffffffffffff600b556000600c55604051620041483803806200414883398181016040528101906200006291906200079d565b6200008262000076620005a360201b60201c565b620005ab60201b60201c565b80600460006101000a81548173ffffffffffffffffffffffffffffffffffffffff021916908373ffffffffffffffffffffffffffffffffffffffff1602179055506000829050600e60003073ffffffffffffffffffffffffffffffffffffffff1673ffffffffffffffffffffffffffffffffffffffff16815260200190815260200160002060009054906101000a900460ff1615600e60003073ffffffffffffffffffffffffffffffffffffffff1673ffffffffffffffffffffffffffffffffffffffff16815260200190815260200160002060006101000a81548160ff02191690831515021790555060086040518061014001604052803073ffffffffffffffffffffffffffffffffffffffff1681526020016040518060400160405280600a81526020017f4d6170332e30204d56500000000000000000000000000000000000000000000081525081526020016040518060400160405280600c81526020017f3132332d3435362d37383930000000000000000000000000000000000000000081525081526020016040518060400160405280601981526020017f436f6e6e6563742076656e646f727320696e206d6170332e300000000000000081525081526020016040518060400160405280600481526020017f34312e390000000000000000000000000000000000000000000000000000000081525081526020016040518060400160405280600581526020017f2d38372e3600000000000000000000000000000000000000000000000000000081525081526020016040518060a0016040528060718152602001620040d76071913981526020016040518060400160405280601a81526020017f68747470733a2f2f6769746875622e636f6d2f45727269636363000000000000815250815260200160075481526020018373ffffffffffffffffffffffffffffffffffffffff1681525090806001815401808255809150506001900390600052602060002090600a020160009091909190915060008201518160000160006101000a81548173ffffffffffffffffffffffffffffffffffffffff021916908373ffffffffffffffffffffffffffffffffffffffff1602179055506020820151816001019080519060200190620003c7929190620006d6565b506040820151816002019080519060200190620003e6929190620006d6565b50606082015181600301908051906020019062000405929190620006d6565b50608082015181600401908051906020019062000424929190620006d6565b5060a082015181600501908051906020019062000443929190620006d6565b5060c082015181600601908051906020019062000462929190620006d6565b5060e082015181600701908051906020019062000481929190620006d6565b5061010082015181600801556101208201518160090160006101000a81548173ffffffffffffffffffffffffffffffffffffffff021916908373ffffffffffffffffffffffffffffffffffffffff160217905550505060076000815480929190620004ec9062000bca565b919050555062000502836200066f60201b60201c565b507f8fae7acf0841962f499918aefc7b550b64859bd36340e7d8310b8a76661495a230604051620005349190620009c4565b60405180910390a17f58f5d906b024b0c9c163d1e1cf6f3a884384b24e01774cd6b96c044071e4a4236000600960009054906101000a900473ffffffffffffffffffffffffffffffffffffffff166040516200059292919062000a5f565b60405180910390a150505062000ea4565b600033905090565b60008060009054906101000a900473ffffffffffffffffffffffffffffffffffffffff169050816000806101000a81548173ffffffffffffffffffffffffffffffffffffffff021916908373ffffffffffffffffffffffffffffffffffffffff1602179055508173ffffffffffffffffffffffffffffffffffffffff168173ffffffffffffffffffffffffffffffffffffffff167f8be0079c531659141344cd1fd0a4f28419497f9722a3daafe3b4186f6b6457e060405160405180910390a35050565b600081600160006101000a81548173ffffffffffffffffffffffffffffffffffffffff021916908373ffffffffffffffffffffffffffffffffffffffff1602179055506001600d60006101000a81548160ff02191690831515021790555060019050919050565b828054620006e49062000b94565b90600052602060002090601f01602090048101928262000708576000855562000754565b82601f106200072357805160ff191683800117855562000754565b8280016001018555821562000754579182015b828111156200075357825182559160200191906001019062000736565b5b50905062000763919062000767565b5090565b5b808211156200078257600081600090555060010162000768565b5090565b600081519050620007978162000e8a565b92915050565b60008060408385031215620007b757620007b662000c76565b5b6000620007c78582860162000786565b9250506020620007da8582860162000786565b9150509250929050565b620007ef8162000b06565b82525050565b620008008162000b44565b82525050565b620008118162000b58565b82525050565b60006200082660198362000af5565b9150620008338262000c7b565b602082019050919050565b60006200084d60118362000af5565b91506200085a8262000ca4565b602082019050919050565b60006200087460058362000af5565b9150620008818262000ccd565b602082019050919050565b60006200089b60098362000af5565b9150620008a88262000cf6565b602082019050919050565b6000620008c2600a8362000af5565b9150620008cf8262000d1f565b602082019050919050565b6000620008e9600a8362000af5565b9150620008f68262000d48565b602082019050919050565b60006200091060058362000af5565b91506200091d8262000d71565b602082019050919050565b600062000937601a8362000af5565b9150620009448262000d9a565b602082019050919050565b60006200095e600c8362000af5565b91506200096b8262000dc3565b602082019050919050565b60006200098560588362000af5565b9150620009928262000dec565b606082019050919050565b6000620009ac60048362000af5565b9150620009b98262000e61565b602082019050919050565b600060e082019050620009db6000830184620007e4565b8181036020830152620009ee81620008b3565b9050818103604083015262000a03816200083e565b9050818103606083015262000a18816200099d565b9050818103608083015262000a2d8162000901565b905081810360a083015262000a428162000865565b905081810360c083015262000a57816200094f565b905092915050565b600060e082019050818103600083015262000a7a8162000817565b9050818103602083015262000a8f816200088c565b9050818103604083015262000aa481620008da565b9050818103606083015262000ab98162000976565b9050818103608083015262000ace8162000928565b905062000adf60a083018562000806565b62000aee60c0830184620007f5565b9392505050565b600082825260208201905092915050565b600062000b138262000b1a565b9050919050565b600073ffffffffffffffffffffffffffffffffffffffff82169050919050565b6000819050919050565b600062000b518262000b6c565b9050919050565b600062000b658262000b3a565b9050919050565b600062000b798262000b80565b9050919050565b600062000b8d8262000b1a565b9050919050565b6000600282049050600182168062000bad57607f821691505b6020821081141562000bc45762000bc362000c47565b5b50919050565b600062000bd78262000b3a565b91507fffffffffffffffffffffffffffffffffffffffffffffffffffffffffffffffff82141562000c0d5762000c0c62000c18565b5b600182019050919050565b7f4e487b7100000000000000000000000000000000000000000000000000000000600052601160045260246000fd5b7f4e487b7100000000000000000000000000000000000000000000000000000000600052602260045260246000fd5b600080fd5b7f436f6e6e6563742076656e646f727320696e206d6170332e3000000000000000600082015250565b7f4c6976696e67206f6e20636c6f75642039000000000000000000000000000000600082015250565b7f3630363232000000000000000000000000000000000000000000000000000000600082015250565b7f34302e3731363836320000000000000000000000000000000000000000000000600082015250565b7f4d6170332e30204d565000000000000000000000000000000000000000000000600082015250565b7f2d37332e39393930303500000000000000000000000000000000000000000000600082015250565b7f5374617465000000000000000000000000000000000000000000000000000000600082015250565b7f68747470733a2f2f6769746875622e636f6d2f45727269636363000000000000600082015250565b7f3132332d3435362d373839300000000000000000000000000000000000000000600082015250565b7f68747470733a2f2f697066732e6d6f72616c69732e696f3a323035332f69706660008201527f732f516d533367645856636a4d37324a53474838325a4576753444376e53367360208201527f5968626935597943773875387a3470452f6d656469612f330000000000000000604082015250565b7f4369747900000000000000000000000000000000000000000000000000000000600082015250565b62000e958162000b06565b811462000ea157600080fd5b50565b6132238062000eb46000396000f3fe60806040526004361061014f5760003560e01c80636334101a116100b6578063b04101a61161006f578063b04101a6146104d9578063dab5cc5a14610504578063de6158f714610520578063e8a211931461055d578063ee54d54f1461058d578063f2fde38b146105ca57610156565b80636334101a146103d957806366c1ed3814610404578063715018a61461042f57806373f9733d146104465780638da5cb5b14610483578063adf55101146104ae57610156565b8063454f98e311610108578063454f98e3146102935780634a066852146102d05780634de0da69146102fb578063534627411461032b5780635ebba8f9146103685780636207d541146103ae57610156565b806313b97d791461015b57806320853b28146101865780632c4e722e146101c35780632cc64ebf146101ee5780633082538f1461022b57806334fcf4371461025657610156565b3661015657005b600080fd5b34801561016757600080fd5b506101706105f3565b60405161017d9190612c0d565b60405180910390f35b34801561019257600080fd5b506101ad60048036038101906101a8919061243b565b610600565b6040516101ba9190612a80565b60405180910390f35b3480156101cf57600080fd5b506101d8610656565b6040516101e59190612c0d565b60405180910390f35b3480156101fa57600080fd5b5061021560048036038101906102109190612495565b61065c565b6040516102229190612c0d565b60405180910390f35b34801561023757600080fd5b506102406106f3565b60405161024d9190612c0d565b60405180910390f35b34801561026257600080fd5b5061027d60048036038101906102789190612621565b6106f9565b60405161028a9190612a80565b60405180910390f35b34801561029f57600080fd5b506102ba60048036038101906102b59190612621565b610787565b6040516102c79190612a80565b60405180910390f35b3480156102dc57600080fd5b506102e5610815565b6040516102f29190612c0d565b60405180910390f35b610315600480360381019061031091906125d8565b61081b565b6040516103229190612a80565b60405180910390f35b34801561033757600080fd5b50610352600480360381019061034d9190612495565b610d1e565b60405161035f9190612c0d565b60405180910390f35b34801561037457600080fd5b5061038f600480360381019061038a9190612621565b610db2565b6040516103a59a9998979695949392919061298a565b60405180910390f35b3480156103ba57600080fd5b506103c361120e565b6040516103d09190612876565b60405180910390f35b3480156103e557600080fd5b506103ee611234565b6040516103fb9190612c0d565b60405180910390f35b34801561041057600080fd5b5061041961123a565b6040516104269190612c0d565b60405180910390f35b34801561043b57600080fd5b50610444611240565b005b34801561045257600080fd5b5061046d600480360381019061046891906124c2565b6112c8565b60405161047a9190612c0d565b60405180910390f35b34801561048f57600080fd5b5061049861135d565b6040516104a59190612876565b60405180910390f35b3480156104ba57600080fd5b506104c3611386565b6040516104d09190612c0d565b60405180910390f35b3480156104e557600080fd5b506104ee611390565b6040516104fb9190612c0d565b60405180910390f35b61051e60048036038101906105199190612502565b611396565b005b34801561052c57600080fd5b506105476004803603810190610542919061243b565b61180b565b6040516105549190612a80565b60405180910390f35b6105776004803603810190610572919061267b565b611872565b6040516105849190612a80565b60405180910390f35b34801561059957600080fd5b506105b460048036038101906105af919061243b565b611d53565b6040516105c19190612a80565b60405180910390f35b3480156105d657600080fd5b506105f160048036038101906105ec919061243b565b611d73565b005b6000600880549050905090565b6000600e60008373ffffffffffffffffffffffffffffffffffffffff1673ffffffffffffffffffffffffffffffffffffffff16815260200190815260200160002060009054906101000a900460ff169050919050565b600a5481565b6000808290508073ffffffffffffffffffffffffffffffffffffffff166370a08231306040518263ffffffff1660e01b815260040161069b9190612876565b60206040518083038186803b1580156106b357600080fd5b505afa1580156106c7573d6000803e3d6000fd5b505050506040513d601f19601f820116820180604052508101906106eb919061264e565b915050919050565b60055481565b6000610703611e6b565b73ffffffffffffffffffffffffffffffffffffffff1661072161135d565b73ffffffffffffffffffffffffffffffffffffffff1614610777576040517f08c379a000000000000000000000000000000000000000000000000000000000815260040161076e90612bed565b60405180910390fd5b81600a8190555060019050919050565b6000610791611e6b565b73ffffffffffffffffffffffffffffffffffffffff166107af61135d565b73ffffffffffffffffffffffffffffffffffffffff1614610805576040517f08c379a00000000000000000000000000000000000000000000000000000000081526004016107fc90612bed565b60405180910390fd5b81600c8190555060019050919050565b60065481565b6000600c54341015610862576040517f08c379a000000000000000000000000000000000000000000000000000000000815260040161085990612bad565b60405180910390fd5b816000015173ffffffffffffffffffffffffffffffffffffffff163373ffffffffffffffffffffffffffffffffffffffff16146108d4576040517f08c379a00000000000000000000000000000000000000000000000000000000081526004016108cb90612b2d565b60405180910390fd5b600e6000836000015173ffffffffffffffffffffffffffffffffffffffff1673ffffffffffffffffffffffffffffffffffffffff16815260200190815260200160002060009054906101000a900460ff1615610965576040517f08c379a000000000000000000000000000000000000000000000000000000000815260040161095c90612b4d565b60405180910390fd5b600e6000836000015173ffffffffffffffffffffffffffffffffffffffff1673ffffffffffffffffffffffffffffffffffffffff16815260200190815260200160002060009054906101000a900460ff1615600e6000846000015173ffffffffffffffffffffffffffffffffffffffff1673ffffffffffffffffffffffffffffffffffffffff16815260200190815260200160002060006101000a81548160ff02191690831515021790555060086040518061014001604052803373ffffffffffffffffffffffffffffffffffffffff168152602001846020015181526020018460c0015181526020018460e0015181526020018461010001518152602001846101200151815260200184610140015181526020018461016001518152602001600754815260200184610180015173ffffffffffffffffffffffffffffffffffffffff1681525090806001815401808255809150506001900390600052602060002090600a020160009091909190915060008201518160000160006101000a81548173ffffffffffffffffffffffffffffffffffffffff021916908373ffffffffffffffffffffffffffffffffffffffff1602179055506020820151816001019080519060200190610b38929190611fe8565b506040820151816002019080519060200190610b55929190611fe8565b506060820151816003019080519060200190610b72929190611fe8565b506080820151816004019080519060200190610b8f929190611fe8565b5060a0820151816005019080519060200190610bac929190611fe8565b5060c0820151816006019080519060200190610bc9929190611fe8565b5060e0820151816007019080519060200190610be6929190611fe8565b5061010082015181600801556101208201518160090160006101000a81548173ffffffffffffffffffffffffffffffffffffffff021916908373ffffffffffffffffffffffffffffffffffffffff16021790555050507f8fae7acf0841962f499918aefc7b550b64859bd36340e7d8310b8a76661495a2826000015183602001518460400151856060015186608001518760a001518860c00151604051610c9397969594939291906128f1565b60405180910390a17f58f5d906b024b0c9c163d1e1cf6f3a884384b24e01774cd6b96c044071e4a4238260e00151836101000151846101200151856101400151866101600151600754886101800151604051610cf59796959493929190612a9b565b60405180910390a160076000815480929190610d1090612eab565b919050555060019050919050565b60008173ffffffffffffffffffffffffffffffffffffffff1663dd62ed3e33306040518363ffffffff1660e01b8152600401610d5b929190612891565b60206040518083038186803b158015610d7357600080fd5b505afa158015610d87573d6000803e3d6000fd5b505050506040513d601f19601f82011682018060405250810190610dab919061264e565b9050919050565b60088181548110610dc257600080fd5b90600052602060002090600a02016000915090508060000160009054906101000a900473ffffffffffffffffffffffffffffffffffffffff1690806001018054610e0b90612e48565b80601f0160208091040260200160405190810160405280929190818152602001828054610e3790612e48565b8015610e845780601f10610e5957610100808354040283529160200191610e84565b820191906000526020600020905b815481529060010190602001808311610e6757829003601f168201915b505050505090806002018054610e9990612e48565b80601f0160208091040260200160405190810160405280929190818152602001828054610ec590612e48565b8015610f125780601f10610ee757610100808354040283529160200191610f12565b820191906000526020600020905b815481529060010190602001808311610ef557829003601f168201915b505050505090806003018054610f2790612e48565b80601f0160208091040260200160405190810160405280929190818152602001828054610f5390612e48565b8015610fa05780601f10610f7557610100808354040283529160200191610fa0565b820191906000526020600020905b815481529060010190602001808311610f8357829003601f168201915b505050505090806004018054610fb590612e48565b80601f0160208091040260200160405190810160405280929190818152602001828054610fe190612e48565b801561102e5780601f106110035761010080835404028352916020019161102e565b820191906000526020600020905b81548152906001019060200180831161101157829003601f168201915b50505050509080600501805461104390612e48565b80601f016020809104026020016040519081016040528092919081815260200182805461106f90612e48565b80156110bc5780601f10611091576101008083540402835291602001916110bc565b820191906000526020600020905b81548152906001019060200180831161109f57829003601f168201915b5050505050908060060180546110d190612e48565b80601f01602080910402602001604051908101604052809291908181526020018280546110fd90612e48565b801561114a5780601f1061111f5761010080835404028352916020019161114a565b820191906000526020600020905b81548152906001019060200180831161112d57829003601f168201915b50505050509080600701805461115f90612e48565b80601f016020809104026020016040519081016040528092919081815260200182805461118b90612e48565b80156111d85780601f106111ad576101008083540402835291602001916111d8565b820191906000526020600020905b8154815290600101906020018083116111bb57829003601f168201915b5050505050908060080154908060090160009054906101000a900473ffffffffffffffffffffffffffffffffffffffff1690508a565b600460009054906101000a900473ffffffffffffffffffffffffffffffffffffffff1681565b600b5481565b60075481565b611248611e6b565b73ffffffffffffffffffffffffffffffffffffffff1661126661135d565b73ffffffffffffffffffffffffffffffffffffffff16146112bc576040517f08c379a00000000000000000000000000000000000000000000000000000000081526004016112b390612bed565b60405180910390fd5b6112c66000611e73565b565b60008273ffffffffffffffffffffffffffffffffffffffff1663dd62ed3e33846040518363ffffffff1660e01b8152600401611305929190612891565b60206040518083038186803b15801561131d57600080fd5b505afa158015611331573d6000803e3d6000fd5b505050506040513d601f19601f82011682018060405250810190611355919061264e565b905092915050565b60008060009054906101000a900473ffffffffffffffffffffffffffffffffffffffff16905090565b6000600654905090565b600c5481565b8873ffffffffffffffffffffffffffffffffffffffff166323b872dd3330866040518463ffffffff1660e01b81526004016113d3939291906128ba565b602060405180830381600087803b1580156113ed57600080fd5b505af1158015611401573d6000803e3d6000fd5b505050506040513d601f19601f820116820180604052508101906114259190612468565b508873ffffffffffffffffffffffffffffffffffffffff1663095ea7b388856040518363ffffffff1660e01b8152600401611461929190612a57565b602060405180830381600087803b15801561147b57600080fd5b505af115801561148f573d6000803e3d6000fd5b505050506040513d601f19601f820116820180604052508101906114b39190612468565b6114bc57600080fd5b60008673ffffffffffffffffffffffffffffffffffffffff163487876040516114e692919061285d565b60006040518083038185875af1925050503d8060008114611523576040519150601f19603f3d011682016040523d82523d6000602084013e611528565b606091505b505090508061156c576040517f08c379a000000000000000000000000000000000000000000000000000000000815260040161156390612bcd565b60405180910390fd5b8873ffffffffffffffffffffffffffffffffffffffff1663a9059cbb83856040518363ffffffff1660e01b81526004016115a7929190612a57565b602060405180830381600087803b1580156115c157600080fd5b505af11580156115d5573d6000803e3d6000fd5b505050506040513d601f19601f820116820180604052508101906115f99190612468565b5060008a73ffffffffffffffffffffffffffffffffffffffff166370a08231306040518263ffffffff1660e01b81526004016116359190612876565b60206040518083038186803b15801561164d57600080fd5b505afa158015611661573d6000803e3d6000fd5b505050506040513d601f19601f82011682018060405250810190611685919061264e565b90508a73ffffffffffffffffffffffffffffffffffffffff1663a9059cbb33836040518363ffffffff1660e01b81526004016116c2929190612a57565b602060405180830381600087803b1580156116dc57600080fd5b505af11580156116f0573d6000803e3d6000fd5b505050506040513d601f19601f820116820180604052508101906117149190612468565b50600260009054906101000a900473ffffffffffffffffffffffffffffffffffffffff1673ffffffffffffffffffffffffffffffffffffffff16636a627842336040518263ffffffff1660e01b81526004016117709190612876565b602060405180830381600087803b15801561178a57600080fd5b505af115801561179e573d6000803e3d6000fd5b505050506040513d601f19601f820116820180604052508101906117c29190612468565b507f9def4e2802183d68ce90a6a226a2962b59298616c27165f12c4fbc5c84cdd7783384866040516117f6939291906128ba565b60405180910390a15050505050505050505050565b600081600160006101000a81548173ffffffffffffffffffffffffffffffffffffffff021916908373ffffffffffffffffffffffffffffffffffffffff1602179055506001600d60006101000a81548160ff02191690831515021790555060019050919050565b60008082905061188181610d1e565b8511156118c3576040517f08c379a00000000000000000000000000000000000000000000000000000000081526004016118ba90612b6d565b60405180910390fd5b6118cc84610600565b15611a54578073ffffffffffffffffffffffffffffffffffffffff166323b872dd3386886040518463ffffffff1660e01b815260040161190e939291906128ba565b602060405180830381600087803b15801561192857600080fd5b505af115801561193c573d6000803e3d6000fd5b505050506040513d601f19601f820116820180604052508101906119609190612468565b50600260009054906101000a900473ffffffffffffffffffffffffffffffffffffffff1673ffffffffffffffffffffffffffffffffffffffff16636a627842336040518263ffffffff1660e01b81526004016119bc9190612876565b602060405180830381600087803b1580156119d657600080fd5b505af11580156119ea573d6000803e3d6000fd5b505050506040513d601f19601f82011682018060405250810190611a0e9190612468565b507f9def4e2802183d68ce90a6a226a2962b59298616c27165f12c4fbc5c84cdd778338587604051611a42939291906128ba565b60405180910390a16001915050611d4c565b6000600554600a5487611a679190612cd6565b611a719190612ca5565b90506000611a7f8783611f37565b90508273ffffffffffffffffffffffffffffffffffffffff166323b872dd33308a6040518463ffffffff1660e01b8152600401611abe939291906128ba565b602060405180830381600087803b158015611ad857600080fd5b505af1158015611aec573d6000803e3d6000fd5b505050506040513d601f19601f82011682018060405250810190611b109190612468565b50611b1c818785611f4d565b5060008373ffffffffffffffffffffffffffffffffffffffff166370a08231306040518263ffffffff1660e01b8152600401611b589190612876565b60206040518083038186803b158015611b7057600080fd5b505afa158015611b84573d6000803e3d6000fd5b505050506040513d601f19601f82011682018060405250810190611ba8919061264e565b90508373ffffffffffffffffffffffffffffffffffffffff1663a9059cbb600460009054906101000a900473ffffffffffffffffffffffffffffffffffffffff16836040518363ffffffff1660e01b8152600401611c07929190612a57565b602060405180830381600087803b158015611c2157600080fd5b505af1158015611c35573d6000803e3d6000fd5b505050506040513d601f19601f82011682018060405250810190611c599190612468565b50600260009054906101000a900473ffffffffffffffffffffffffffffffffffffffff1673ffffffffffffffffffffffffffffffffffffffff16636a627842336040518263ffffffff1660e01b8152600401611cb59190612876565b602060405180830381600087803b158015611ccf57600080fd5b505af1158015611ce3573d6000803e3d6000fd5b505050506040513d601f19601f82011682018060405250810190611d079190612468565b507f9def4e2802183d68ce90a6a226a2962b59298616c27165f12c4fbc5c84cdd77833888a604051611d3b939291906128ba565b60405180910390a160019450505050505b9392505050565b600e6020528060005260406000206000915054906101000a900460ff1681565b611d7b611e6b565b73ffffffffffffffffffffffffffffffffffffffff16611d9961135d565b73ffffffffffffffffffffffffffffffffffffffff1614611def576040517f08c379a0000000000000000000000000000000000000000000000000000000008152600401611de690612bed565b60405180910390fd5b600073ffffffffffffffffffffffffffffffffffffffff168173ffffffffffffffffffffffffffffffffffffffff161415611e5f576040517f08c379a0000000000000000000000000000000000000000000000000000000008152600401611e5690612b8d565b60405180910390fd5b611e6881611e73565b50565b600033905090565b60008060009054906101000a900473ffffffffffffffffffffffffffffffffffffffff169050816000806101000a81548173ffffffffffffffffffffffffffffffffffffffff021916908373ffffffffffffffffffffffffffffffffffffffff1602179055508173ffffffffffffffffffffffffffffffffffffffff168173ffffffffffffffffffffffffffffffffffffffff167f8be0079c531659141344cd1fd0a4f28419497f9722a3daafe3b4186f6b6457e060405160405180910390a35050565b60008183611f459190612d30565b905092915050565b60008173ffffffffffffffffffffffffffffffffffffffff1663a9059cbb84866040518363ffffffff1660e01b8152600401611f8a929190612a57565b602060405180830381600087803b158015611fa457600080fd5b505af1158015611fb8573d6000803e3d6000fd5b505050506040513d601f19601f82011682018060405250810190611fdc9190612468565b50600190509392505050565b828054611ff490612e48565b90600052602060002090601f016020900481019282612016576000855561205d565b82601f1061202f57805160ff191683800117855561205d565b8280016001018555821561205d579182015b8281111561205c578251825591602001919060010190612041565b5b50905061206a919061206e565b5090565b5b8082111561208757600081600090555060010161206f565b5090565b600061209e61209984612c4d565b612c28565b9050828152602081018484840111156120ba576120b9612fc9565b5b6120c5848285612e06565b509392505050565b6000813590506120dc8161317a565b92915050565b6000813590506120f181613191565b92915050565b600081519050612106816131a8565b92915050565b60008083601f84011261212257612121612fb5565b5b8235905067ffffffffffffffff81111561213f5761213e612fb0565b5b60208301915083600182028301111561215b5761215a612fc4565b5b9250929050565b600081359050612171816131bf565b92915050565b600082601f83011261218c5761218b612fb5565b5b813561219c84826020860161208b565b91505092915050565b60006101a082840312156121bc576121bb612fba565b5b6121c76101a0612c28565b905060006121d7848285016120cd565b600083015250602082013567ffffffffffffffff8111156121fb576121fa612fbf565b5b61220784828501612177565b602083015250604082013567ffffffffffffffff81111561222b5761222a612fbf565b5b61223784828501612177565b604083015250606082013567ffffffffffffffff81111561225b5761225a612fbf565b5b61226784828501612177565b606083015250608082013567ffffffffffffffff81111561228b5761228a612fbf565b5b61229784828501612177565b60808301525060a082013567ffffffffffffffff8111156122bb576122ba612fbf565b5b6122c784828501612177565b60a08301525060c082013567ffffffffffffffff8111156122eb576122ea612fbf565b5b6122f784828501612177565b60c08301525060e082013567ffffffffffffffff81111561231b5761231a612fbf565b5b61232784828501612177565b60e08301525061010082013567ffffffffffffffff81111561234c5761234b612fbf565b5b61235884828501612177565b6101008301525061012082013567ffffffffffffffff81111561237e5761237d612fbf565b5b61238a84828501612177565b6101208301525061014082013567ffffffffffffffff8111156123b0576123af612fbf565b5b6123bc84828501612177565b6101408301525061016082013567ffffffffffffffff8111156123e2576123e1612fbf565b5b6123ee84828501612177565b6101608301525061018061240484828501612162565b6101808301525092915050565b600081359050612420816131d6565b92915050565b600081519050612435816131d6565b92915050565b60006020828403121561245157612450612fd3565b5b600061245f848285016120cd565b91505092915050565b60006020828403121561247e5761247d612fd3565b5b600061248c848285016120f7565b91505092915050565b6000602082840312156124ab576124aa612fd3565b5b60006124b984828501612162565b91505092915050565b600080604083850312156124d9576124d8612fd3565b5b60006124e785828601612162565b92505060206124f8858286016120cd565b9150509250929050565b60008060008060008060008060006101008a8c03121561252557612524612fd3565b5b60006125338c828d01612162565b99505060206125448c828d01612162565b98505060406125558c828d016120cd565b97505060606125668c828d016120e2565b96505060808a013567ffffffffffffffff81111561258757612586612fce565b5b6125938c828d0161210c565b955095505060a06125a68c828d01612411565b93505060c06125b78c828d01612411565b92505060e06125c88c828d016120cd565b9150509295985092959850929598565b6000602082840312156125ee576125ed612fd3565b5b600082013567ffffffffffffffff81111561260c5761260b612fce565b5b612618848285016121a5565b91505092915050565b60006020828403121561263757612636612fd3565b5b600061264584828501612411565b91505092915050565b60006020828403121561266457612663612fd3565b5b600061267284828501612426565b91505092915050565b60008060006060848603121561269457612693612fd3565b5b60006126a286828701612411565b93505060206126b3868287016120cd565b92505060406126c486828701612162565b9150509250925092565b6126d781612d64565b82525050565b6126e681612d88565b82525050565b60006126f88385612c89565b9350612705838584612e06565b82840190509392505050565b61271a81612dd0565b82525050565b600061272b82612c7e565b6127358185612c94565b9350612745818560208601612e15565b61274e81612fd8565b840191505092915050565b6000612766601c83612c94565b915061277182612fe9565b602082019050919050565b6000612789601a83612c94565b915061279482613012565b602082019050919050565b60006127ac603083612c94565b91506127b78261303b565b604082019050919050565b60006127cf602683612c94565b91506127da8261308a565b604082019050919050565b60006127f2602283612c94565b91506127fd826130d9565b604082019050919050565b6000612815601183612c94565b915061282082613128565b602082019050919050565b6000612838602083612c94565b915061284382613151565b602082019050919050565b61285781612dc6565b82525050565b600061286a8284866126ec565b91508190509392505050565b600060208201905061288b60008301846126ce565b92915050565b60006040820190506128a660008301856126ce565b6128b360208301846126ce565b9392505050565b60006060820190506128cf60008301866126ce565b6128dc60208301856126ce565b6128e9604083018461284e565b949350505050565b600060e082019050612906600083018a6126ce565b81810360208301526129188189612720565b9050818103604083015261292c8188612720565b905081810360608301526129408187612720565b905081810360808301526129548186612720565b905081810360a08301526129688185612720565b905081810360c083015261297c8184612720565b905098975050505050505050565b6000610140820190506129a0600083018d6126ce565b81810360208301526129b2818c612720565b905081810360408301526129c6818b612720565b905081810360608301526129da818a612720565b905081810360808301526129ee8189612720565b905081810360a0830152612a028188612720565b905081810360c0830152612a168187612720565b905081810360e0830152612a2a8186612720565b9050612a3a61010083018561284e565b612a48610120830184612711565b9b9a5050505050505050505050565b6000604082019050612a6c60008301856126ce565b612a79602083018461284e565b9392505050565b6000602082019050612a9560008301846126dd565b92915050565b600060e0820190508181036000830152612ab5818a612720565b90508181036020830152612ac98189612720565b90508181036040830152612add8188612720565b90508181036060830152612af18187612720565b90508181036080830152612b058186612720565b9050612b1460a083018561284e565b612b2160c0830184612711565b98975050505050505050565b60006020820190508181036000830152612b4681612759565b9050919050565b60006020820190508181036000830152612b668161277c565b9050919050565b60006020820190508181036000830152612b868161279f565b9050919050565b60006020820190508181036000830152612ba6816127c2565b9050919050565b60006020820190508181036000830152612bc6816127e5565b9050919050565b60006020820190508181036000830152612be681612808565b9050919050565b60006020820190508181036000830152612c068161282b565b9050919050565b6000602082019050612c22600083018461284e565b92915050565b6000612c32612c43565b9050612c3e8282612e7a565b919050565b6000604051905090565b600067ffffffffffffffff821115612c6857612c67612f81565b5b612c7182612fd8565b9050602081019050919050565b600081519050919050565b600081905092915050565b600082825260208201905092915050565b6000612cb082612dc6565b9150612cbb83612dc6565b925082612ccb57612cca612f23565b5b828204905092915050565b6000612ce182612dc6565b9150612cec83612dc6565b9250817fffffffffffffffffffffffffffffffffffffffffffffffffffffffffffffffff0483118215151615612d2557612d24612ef4565b5b828202905092915050565b6000612d3b82612dc6565b9150612d4683612dc6565b925082821015612d5957612d58612ef4565b5b828203905092915050565b6000612d6f82612da6565b9050919050565b6000612d8182612da6565b9050919050565b60008115159050919050565b6000612d9f82612d64565b9050919050565b600073ffffffffffffffffffffffffffffffffffffffff82169050919050565b6000819050919050565b6000612ddb82612de2565b9050919050565b6000612ded82612df4565b9050919050565b6000612dff82612da6565b9050919050565b82818337600083830152505050565b60005b83811015612e33578082015181840152602081019050612e18565b83811115612e42576000848401525b50505050565b60006002820490506001821680612e6057607f821691505b60208210811415612e7457612e73612f52565b5b50919050565b612e8382612fd8565b810181811067ffffffffffffffff82111715612ea257612ea1612f81565b5b80604052505050565b6000612eb682612dc6565b91507fffffffffffffffffffffffffffffffffffffffffffffffffffffffffffffffff821415612ee957612ee8612ef4565b5b600182019050919050565b7f4e487b7100000000000000000000000000000000000000000000000000000000600052601160045260246000fd5b7f4e487b7100000000000000000000000000000000000000000000000000000000600052601260045260246000fd5b7f4e487b7100000000000000000000000000000000000000000000000000000000600052602260045260246000fd5b7f4e487b7100000000000000000000000000000000000000000000000000000000600052604160045260246000fd5b600080fd5b600080fd5b600080fd5b600080fd5b600080fd5b600080fd5b600080fd5b600080fd5b6000601f19601f8301169050919050565b7f76656e646f722068617320746f20736f6c656c79207369676e20757000000000600082015250565b7f796f752063616e206f6e6c79207265676973746572206f6e6365000000000000600082015250565b7f506c6561736520617070726f766520656e6f75676820746f6b656e732062656660008201527f6f7265207472616e7366657272696e6700000000000000000000000000000000602082015250565b7f4f776e61626c653a206e6577206f776e657220697320746865207a65726f206160008201527f6464726573730000000000000000000000000000000000000000000000000000602082015250565b7f796f75206861766520746f2070617920746f206265636f6d6520612076656e6460008201527f6f72000000000000000000000000000000000000000000000000000000000000602082015250565b7f535741505f43414c4c5f4641494c454421000000000000000000000000000000600082015250565b7f4f776e61626c653a2063616c6c6572206973206e6f7420746865206f776e6572600082015250565b61318381612d64565b811461318e57600080fd5b50565b61319a81612d76565b81146131a557600080fd5b50565b6131b181612d88565b81146131bc57600080fd5b50565b6131c881612d94565b81146131d357600080fd5b50565b6131df81612dc6565b81146131ea57600080fd5b5056fea2646970667358221220350ed50a09e67985868e3b789a8d9409a9f692a949a8e04ce35d5c2350bfa9ca64736f6c6343000807003368747470733a2f2f73742e6465706f73697470686f746f732e636f6d2f313031303731302f333338362f692f3630302f6465706f73697470686f746f735f33333836333539312d73746f636b2d70686f746f2d796f756e672d776f6d616e2d706179696e672d666f722d6963652e6a7067",
  "linkReferences": {},
  "deployedLinkReferences": {}
}